:400000000010002011000000AD090000AD09000008B500F0D3FCC04638B5164C23688022D20213432360182001F012F82268124B13402360114A124B1A601022114B1A603E
:400040001032114B1A6080221206104B1A60002525600F4A0F4B1A600F4A104B1A6009200F4900F09BFF092000F082FF0D4B1D6038BDC04600010B40FFFFFBFF0600008095
:4000800004010B40080202400C02024008010B400E000080000002401000008040000240411300000C020B4010B572B6002410E0324863001A195200821891881B195B00CC
:4000C0001A5AC31858880004104300F0D9FC0134E4B2012CECD92949081C0C30103100F0B5FC99231B04264A1360EE210902254A1160EE21244A1160244A1360244A1360DC
:40010000244A136080218903234A1160234A1360234B197802220A431A70224802783C218A4328390A430270197816220A431A7021221D4B1A601D4A1D4B1A601D4B022231
:400140001A6020231C4A1360C02149031B4A116004211B4A11603C311A4A11601A4A1360D8221201194B1A600322194B1A602132184B1A60FFF750FF10BDC0466C1A000016
:40018000000001400C0001401000014000500F4010500F4020500F4024500F4030500F4000700F4001700F4000000440B21D0300080004400C0004401800044008010440E7
:4001C00000020440080204400C02044008030440000404400804044010B5064C2378002B07D1054B002B02D0044800E000BF0123237010BD5001002000000000381A0000FE
:4002000008B5084B002B03D00748084900E000BF07480368002B00D108BD064B002BFBD09847F9E700000000381A000054010020C80000200000000008B501F0A5F9C043F2
:40024000C0B201F095F900F01FFA182809D9002001F052F9002001F063F9012001F074F914E00E2809D9002001F046F9012001F057F9002001F068F908E0012001F03CF9BB
:40028000002001F04DF9002001F05EF9074800F0BDFE002001F030F9002001F041F9002001F052F901F0ECF808BDC0461027000008B500F01DFA00280BD0012001F01CF9DF
:4002C000002001F02DF9002001F03EF901F000F90CE000F007FA002808D0002001F00CF9012001F01DF9002001F02EF901F054F908BDC04670B5061C0C1C002001F0FCF8C5
:40030000002513E001F004F9C043C0B201F0F4F8FA20400000F07AFE01F0FAF8C043C0B201F0EAF8201C00F071FE0135B542E9DD70BDC04670B5061C0C1C002001F0F0F84F
:40034000002513E001F0F8F8C043C0B201F0E8F8FA20400000F05AFE01F0EEF8C043C0B201F0DEF8201C00F051FE0135B542E9DD70BDC04670B5061C0C1C002001F0E4F88C
:40038000002513E001F0ECF8C043C0B201F0DCF8FA20400000F03AFE01F0E2F8C043C0B201F0D2F8201C00F031FE0135B542E9DD70BDC04638B500F081F9002809D103209C
:4003C000FA214900FFF796FFFA20C00000F01EFEF5E7FA24A4000320211CFFF7ABFF201C00F014FEFA25ED00281C00F053FA0320211CFFF7BFFF00F0BFF9281C00F04AFA8B
:40040000002000F063FA012000F07EFA0F20142100F098FA05200A2100F0AAFA00F06EF938BDC04608B562B6FFF7C4FF0C4801F055F80C4801F0DAF8002001F05DF80020ED
:4004400001F06EF8002001F07FF800F0DBFE022801D100F007FF00F0E9FE00F0ABFEFAE739020000B102000070B5041C0E1C151C5520002100F096FB201C00F045FC00245B
:4004800003E0305D00F040FC0134A542F9DC00F0F5FB012070BDC04600B583B06B46D91D00230B7061200122FFF7DEFF03B000BD00B583B06B46D91D08703E200122FFF7E9
:4004C000D3FF03B000BDC04600B583B06B46D91D08703F200122FFF7C7FF03B000BDC04600B583B06B46D97107334030C0B2191C0122FFF7B9FF03B000BDC04600B583B096
:400500006B46D91D087060200122FFF7ADFF03B000BDC04600B583B0030A01A908704B7000200222FFF7A0FF002800D0012003B000BDC04608B54220FFF7ECFF08BDC046DC
:40054000F0B5474680B4C0B0041C0E1C151C684600218022520001F067FA5520002100F021FB201C00F0D0FB00F088FBA846552069462A1C002300F061FCFA27FF0003E03E
:40058000012000F043FD271C00F00AFC804504D97B1E9CB2002FF3D1271C002F05D107E06A46D25CF254013300E000239D42F7DC38B240B004BC9046F0BDC04610B582B0DF
:4005C0006B46DC1D6020211C0122FFF7B9FF207802B010BD00B589B0402069462022FFF7AFFF0022002304E06946895CCB18DBB201321F2AF8DDDB43D8B209B000BDC04627
:4006000010B582B0C0B201AC211C0222FFF798FF607800022378184302B010BD08B53A20FFF7EEFF08BDC04600B583B0030A01A908704B7000236A46137053700020022273
:40064000FFF712FF002069460222FFF779FF002805D06B46587800021B78184300E0002003B000BD08B580200002FFF7DDFF002803D080200002FFF7D7FF08BD08B52020D8
:40068000FFF7D2FF08BDC04608B5084B9B78002B02D0012B04D007E01C20FFF7B1FF04E03020FFF7ADFF00E0002008BD6C01002008B50120FFF7B8FF08BDC04608B500F094
:4006C000FBF9FFF7F5FF034B984201D1012000E0002008BD2104000008B50620FFF790FF08BDC04608B5FFF7F7FF0423184008BD08B5FFF7F1FF0223184008BD10B5154BED
:400700005B88002B1ED0FFF715FF002805D120E0012000F07BFCA2B201E0FA22D200531E9CB2002A03D0FFF7D7FFC306F0D423B2002B0BDD084BDB88002B09D0FFF79EFFC0
:40074000012006E04320FFF7E5FE02E0002000E0012010BDCC0000206C01002008B50020FFF762FF08BDC04608B5FFF7F7FF80239B01184008BDC04610B5164B1B88002BEF
:4007800002D00122144B1A81FFF7EEFF002804D00122114BDA80FFF765FF1320FFF7BAFE002805D114E0012000F030FCA2B201E0FA22D200531E9CB2002A03D0FFF7CEFF86
:4007C000C306F0D523B2002B01DD012000E0002010BDC046CC0000206C010020F8B5041C0E1C171C1D1C234800F0D8F8202D3FD8214B1B89002B04D10022204B1A80FFF701
:40080000BBFF1F4800F0CAF8FFF746FE002830D0201CFFF74DFE00282BD07009FFF754FEFFF7D8FEFFF7CAFE164800F0B7F8002407E01F2030400019C0B2395DFFF750FE7C
:400840000134A542F5DC104800F0A8F8FFF7C2FEFFF754FE0D4800F0A1F8074B1B89002B01D1FFF74BFF0A4800F098F8012000E00020F8BD3C1A00006C010020CC0000201D
:40088000441A00004C1A0000541A00005C1A0000641A000000B583B0030A01AA1370507052200A210223FFF799FF03B000BDC04600B583B0030A01AA137050704020002105
:4008C0000223FFF78BFF03B000BDC04610B5041CFFF7A4FE002C01D003050FD4002C01D103050DD5002C04D080231B01184380B201E0044B1840FFF7DBFF02E0012000E009
:40090000012010BDFFF7000010B5041CFFF786FE002C01D043070ED4002C01D143070CD5002C03D00423184380B201E0044B1840FFF7BEFF02E0012000E0012010BDC0465D
:40094000FBFF000000B583B0031C642800D9642301AA13700B1C642900D9642301AA5370312000210223FFF739FF03B000BDC04600B583B0031C642800D9642301AA13707E
:400980000B1C642900D9642301AA5370312002210223FFF723FF03B000BDC04608B500F059FD202000F062FD08BDC04608B501F00FF803680C2B00D1FEE7FEE770B50F4EBD
:4009C0000F4D13E029686B68AC68002202E001C901C30432A242FAD1E868002202E0002102C304328242FAD11035013E002EE9D100F0F4FFFFF716FDFEE7C0460100000076
:400A0000D81A000008B500230AE0032B03D89A000A49505800E00A4899000A4A885001332F2BF2D9FFF740FB0022074B1A608022D205116801230B43136008BD0000000051
:400A4000AD09000000000020C0000020F0B50025002711E0BB00C658F3B2FF22964308E06A008A181478A419527822700135013BDBB2002BF4D10137002FEBD0F0BDC04609
:400A800008B50A1C002100F0CFFF08BD08B50A2000F06EFA08BDC04608B500F01DF808BD08B5044A1368802109060B431360FFF7EDFF08BD0000064008B5064B1B78002B6E
:400AC00004D1FFF7E9FF0122024B1A70FFF7E8FF08BDC0467801002010B51D4A11680C230B43136000241B4B1C601B4A1B4B1A601B4B1C4A13601C4A14601C4A14601C4ACF
:400B000013601C4B1C600A2000F03CFA0A20032100F056FA0A20184900F040FA174B1C60174B1C60174B1C601422FF32164B1A60164B1C60164B1C60043AFF3A154B1A70D5
:400B4000154B1C80154B1C60154B1C6010BDC0467000064000000640770800806000064007010080000306400403064010030640000206400402064031160000C80E0640DF
:400B8000880E0640480F0640080F0640C80F0640880F0640A0010020B0010020C0010020A801002038B52E4B1B78102B53D12D4B1B68DB0751D40D1C041C0A2000F0E2F991
:400BC0006000FF231840002D03D12422244B1A7004E02522224B1A7001231843224B1860224A234B1A600222224B1A60204B1A680823FF331A42F9D01D4B1B685B0714D452
:400C00001B4B1B689B0713D4194B1B68DB0705D51022134B1A70012001210BE01022104B1A7080204000012104E00020002101E0022000210822FF320D4B1A6000290DD0C2
:400C40000D4A13685B005B0813601368802109060B43136002E0042000E0082038BDC046A0010020640006404002064017030000000F064068000640000006401D4B1B782B
:400C80009B0634D51C4B1B689B0601D5182200E010221A4B1A601A4B1A681223FF331A42F9D0174B1B68DB0606D4154B1B68DB0705D50120012105E00020002102E0802061
:400CC000400001211222FF320D4B1A60023AFF3A084B1A7000290BD00A4A13685B005B0813601368802109060B43136000E004207047C046A001002064000640680006403F
:400D0000000F064000000640214B1B789B063CD5204B1860204B1A680823FF331A42F9D01D4B1B685B0705D56022194B1A700020002119E0184B1B689B0705D56022144B01
:400D40001A70022000210FE0134B1B68DB0705D510220F4B1A700120012105E010220C4B1A708020400001210822FF320A4B1A6000290BD0094A13685B005B08136013681F
:400D8000802109060B43136000E004207047C046A001002040020640000F064000000640014B18687047C046C001002010B51F4B1C6800F0C1F80028FBD0002000F0C4F898
:400DC0001B4A13680F218B4313601A4A13685B005B081360A3060FD5002000F0B5F80A2000F02CF9012000F0AFF800F0B9F80028FBD00A2000F022F9002000F0A5F80A20B1
:400E000000F01CF901220C4B1A600A4A1368802109060B43136006490B680F229343013A13430B60012000F08FF810BD64000640100001400000064068000640F0B583B088
:400E400001900C1C171C1D1C002919D02D4B1B78102B0AD10A2000F095F82B4B1B68DB0701D508260FE000260DE0264B1B78602B08D1264A138808218B431380002602E08D
:400E8000042600E00426002E35D129221D4B1A7000221F4B1A601F4A17601F4B1C60EBB21E490B70019B5C00FF231C400120044316490B8883430B8019491A4B1960136866
:400EC000072B03D80422184B1A6008E0174A1368802149000B4313600822134B1A60EB0704D5FFF763FF124B1C6004E0104B1C600222104B1A600A2000F03AF8301C03B076
:400F0000F0BDC046A001002064000640B0010020C0010020BC010020B4010020B801002017030000000F0640C80F0640600006404002064068000640024B18688007C00FCB
:400F40007047C04604040440031C04490868FE2202400120184010430860704700040440024B1868012318407047C046040404401F2318401E3B8340181C014B1860704740
:400F800000E100E01F2318401E3B8340181C014B1860704780E100E001BE704738B5041C0D1C1F2802D90020FFF7F6FFA400034B9C4664442068256038BDC046400000200D
:400FC00070B5041C0E1E032E02D90020FFF7E4FF1F2C02D90020FFF7DFFF03252540ED00063500F01BFBA408A400074B9C46644423680322AA409343AE40351C1D432560E6
:4010000000F010FB70BDC04600E400E010B5041C06E0084B586800F0F7FA074B9C46644480231B029C42F4D8024B9868604300F0EBFA10BDD00000200080FFFF08B5034BAE
:401040001B7B584300F0E0FA08BDC046D0000020F0B557464E46C0B483B0041C00F0DEFA0190E71E2D2F74D83F4B1B78DBB2A34208D33E4B1B78DBB29A463D4B1B78DBB27C
:40108000994631E03B4B1B78DBB2A34208D33A4B1B78DBB29A46394B1B78DBB2994623E0374B1B78DBB2A34208D3364B1B78DBB29A46354B1B78DBB2994615E0334B1B7867
:4010C000DBB2A34208D3324B1B78DBB29A46314B1B78DBB2994607E02F4B1B78DBB29A462E4B1B78DBB299462D4BDE5D2F2E09D92A2C07D919222B4B1A60052000F084FAEC
:40110000192503E0274B1D683F231D40AE4206D2234BDA5D234B1A60052000F075FA1F4B9C4664442378DBB21F4A13601F4B52461A601F4B4A461A600520FFF77FFFAE428E
:401140000AD9174BDA5D174B1A60052000F05CFA02E00020FFF720FF019800F063FA03B00CBC91469A46F0BDC0F1FF0FC1F1FF0FC2F1FF0FC3F1FF0FC4F1FF0FC5F1FF0F47
:40118000C6F1FF0FC7F1FF0FC8F1FF0FC9F1FF0FCAF1FF0FCBF1FF0FCCF1FF0FCDF1FF0F801A00002CFF0B4028FF0B401CFF0B4020FF0B4008B500F031FA0D4A136880214E
:4011C00009060B4313600B4B1B889BB20A4A13600A4A116804230B43136009490B68FF2293430E3A13430B6030BF00F01BFA08BD00000B4050F1FF0F0C000B4010ED00E011
:401200002C000B40084B1B68FF221340F12B05D0F22B05D0002B05D0002004E0022002E0032000E0012070472C000B4008B500F0F5F9094B1B689B030AD4074B1968074A9E
:401240000A4007490A431A601A681A681A681A6000F0E8F908BDC0462C000B40FF000100003A028010B500F0D9F9084B1A6808490A40E824A40122431A601A681A681A6831
:401280001140196000F0CEF910BDC0462C000B40FF000100034B1868C0231B02184000D00120704700010B4008B500F0B7F9044A1368C02109020B43136000F0B3F908BD15
:4012C00000010B4010B500F0A9F908490A68084B1A408024E40122430A600A6813408022120213430B6000F09DF910BD00010B40FF3FFFFF70B5061C00F090F9041CFFF796
:40130000C9FF002803D0FFF7DDFF012500E000250848331C0340084A106808490840184310601368012D01D1FFF7BEFF201C00F079F970BD0404040010020B40FBFBFBFF8B
:4013400010B5244B1B685B0715D5234B1B685B070ED5224BD969042001401F4C22688A432260DA698243DA611B69002B00D098470420FFF7BFFF174B1B685B0518D5164BD0
:401380001B685B0510D5154BD9698022D2001140114802688A430260D969114A0A40DA615B69002B00D098478020C000FFF7A2FF084B1B685B030CD5074B1B685B0304D534
:4013C000064B9B69002B00D098478020C002FFF791FF10BD10020B40E400002080010020FFFBFFFF144B1A68144B1B689A4208D1134B1B680F221340082B02D0114B186059
:4014000019E00D4B1A680132322A00D100220B4B1B689A42FBD002230B490B60C0B20B49885405490A600A4A1268134203D1084A11680B4313607047CC010020C801002089
:401440000802074040020740800F0740D0010020880F074038B5051C002402E0FFF7C2FF0134285D0028F9D138BDC04608B5FFF7B9FF0D20FFF7B6FF0A20FFF7B3FF08BDA1
:40148000034A10680423184010608008C0B2704710020440014B98647047C0460000002010B5041C00F0BAF8044A1168044B0B40A4051C43146000F0B5F810BD00E400E0BA
:4014C000FFFF3FFF0422014B1A60704700E100E00422014B1A60704780E100E010B5041CFFF7F6FF201CFFF7D5FF0320FFF7D8FFFFF7E8FF10BDC04604490A68FD231A40B9
:401500004000FB3B184010430860704700000440024B18688007C00F7047C0460400044004490A68FB231A408000F73B184010430860704700000440024B18684007C00F25
:401540007047C0460400044004490A68F7231A40C000EF3B184010430860704700000440024B18680007C00F7047C0460400044004490A68BF231A4080017F3B18401043B2
:401580000860704700010440024B18684006C00F7047C04604010440024A1068012318401060704710000440014B18647047C0460000002010B5041C00F030F8044A1368B9
:4015C000C0218B43A4011C43146000F02BF810BD00E400E00122014B1A60704700E100E00122014B1A60704780E100E010B5041CFFF7F6FF201CFFF7D7FF0320FFF7DAFF14
:40160000FFF7E8FF10BDC0460230800804D0C0460138FDD1C046C046C0467047EFF3108072B6704780F310887047C046C046C04610B5C04B1B68002B00D09847BE4B1B68B8
:40164000DB0702D50022BD4B1A60BD4B1B789B0628D5BC4B1B68DB0507D5BB4A1188C0239B000B431380012300E00023B54A1268D20706D5B44A118890239B000B43138077
:401680000123002B0FD0AE4A1278D20701D5012200E00222AC49088802430A800021A84A117000E00023A64A1278920600D414E1A44A1268D20611D51022A44B1A60A04B32
:4016C0001B78DB0701D5012300E002239E4A11880B43138010229A4B1A7029E1984A1278120720D5974A126892070AD50222974B1A60954A118888239B000B4313800123D9
:4017000011E08F4A1278D20703D525218C4A117009E024218A4A11708D4A1268002A02D014398C4A1160864A1278520700D4ABE0834A1278D20749D5874A1268120727D5E3
:40174000864A1268864909680F240C40854909686418141B082C09D8002C16D1824A1168824B0B401360012308340EE008240CE07C4A11687E48006841187E480068C0B2B2
:401780000870116801311160013C002CF0D119E0714A1268520715D5724A116874480068411874480068C0B2087011680131116011686A4A1268914203D204216E4A116081
:4017C00000E001236D496E4A11605DE05D4A1268920726D502225D4B1A606A4A13680F211940136880221202134000D00123CB18654A1168CB1A13601268644B1A60524AFC
:40180000118884239B000B431380614B1A68802149020A431A6019685E4A0A401A60012332E05D4A1268D20612D424E0564A1168474A1268914211D2534A1168574800680E
:4018400041180978C9B2564801601168013111604C4A12680F210A40082AE7D14A4A11683B4A1268914202D140213A4A11604D494D4A116008E0484A1268520604D5424B2C
:401880001A68424B1A600123002B51D0364A1168364B0B4013600023444A13602D4A1360434B1B789B070ED5254B1B78DB0701D5092300E00A23244A11880B4313806022E5
:4018C0001F4B1A7034E03B4B1B689B0601D5182200E01022284B1A602AE0194B1B78DB0626D4354A13685B005B0813601021144B19701D4B186831490140196018683049F2
:4019000001401960002329490B6012490B601B49254B196023491A4B19602A492A4B19602A490A4B19601368802109060B43136010BDC0467C0100208C0E0640880E0640D6
:40194000A00100200C0F0640B0010020000F0640AC010020880F0640CC0F0640BC01002008030640C001002060000640FFFEFFFFB40100204003064068000640ED0F00009C
:40198000C00F064008020640A4010020A801002004020640FFFFFEFF8C0F0640C401002040020640F3070000800F0640C80F0640B80100206400064000000640FF5FFFFF8E
:4019C000FFFCFFFFFF0F0000400F064017030000014B18687047C046480100200E4B70B500251E1C0D4CE41AA410A54204D0AB00F35898470135F8E700F05CF8084B0025F6
:401A00001E1C084CE41AA410A54204D0AB00F35898470135F8E770BDC01A0000C01A0000C01A0000C81A0000031C8218934202D019700133FAE77047000000004D41444558
:401A4000203100004D414445203200004D414445203300004D414445203400004D414445203500004D4144452036000000300F40000400400F40000402600F400201110122
:401A8000030405060708090A0B0C0E0F101112131415161718191B1C1D1E1F2021222325262728292A2B2E2F303132333435000043000000F8B5C046F8BC08BC9E4670472D
:401AC00001020000050A0000F8B5C046F8BC08BC9E467047D9010000E81A0000C800002088000000B80000000000000001000100010000000000E02EC05D000018000000C4
:401B000000366E01040404000000000000000000000000000000000000000000000000000000000000000000B01A000000000000000000000000000000000000000000002A
:401B400000000000000000000000000000000000000000000000000000000000000000000000000000000000E800002000000000000000000000000000000000000000005D
:401B80000000000000000000000000000000000000000000000000000000000000000000000000000000000000000000000000000000000000000000000000000000000025
:401BC00000000000000000000000000000000000000000000000000000000000000000000000000000000000000000000000000000000000000000000000000000000000E5
:401C000000000000000000000000000000000000000000000000000000000000000000000000000000000000000000000000000000000000000000000000000000000000A4
:401C40000000000000000000000000000000000000000000000000000000000000000000000000000000000000000000000000000000000000000000000000000000000064
:0200000490303A
:020000000DCA27
:0200000490402A
:200000000000000000000000000000000000000000000000000000000000000000000000E0
:0200000490501A
:0C000000000204C81193110104D11F5D1F
:0200000490600A
:0100000001FE
:00000001FF