:400000000010002011000000310400003104000008B500F015FAC04638B50F4C23688022D20213432360182000F09AFA22680B4B134023600A4A0B4B1A60063A0A4B1A608C
:40004000002525600920094900F06EFA092000F05FFA074B1D6038BD00010B40FFFFFBFF0600008004010B4008010B40710700000C020B4010B572B60122284B1A7000245D
:4000800010E0274863001A195200821891881B195B001A5AC31858880004104300F032FA0134E4B2012CECD91D49081C0C30243100F00EFA30201B4B1860EE2212021A4B8E
:4000C0001A6099231B04194A13608021C902184A1160184A13600522174B1A600132174B1A60174B1978043A0A431A70154C22783C218A4328390A432270197816220A432C
:400100001A70114B02221A60104B1860D82212010F4B1A60FFF780FF10BDC0461C700F40BC0B0000040001400C00014010500F4018500F4030500F402000004000800F40A7
:4001400000700F4001700F4000010440080104400803044010B5064C2378002B07D1054B002B02D0044800E000BF0123237010BD4801002000000000B809000008B5084B74
:40018000002B03D00748084900E000BF07480368002B00D108BD064B002BFBD09847F9E700000000B80900004C010020C800002000000000134B1B688F2B1ED811494A68CE
:4001C000581C0860D00082181201D3189B000E4A9B580E4A1268D3400D4A12681340D8B20C4A1070180AC0B21070180CC0B210701B0E8B60DBB2137002E01122064B1A702E
:400200007047C046640100209C010020E0030020DC03002042000F4072000F402122174B1A70174A536801335360002B22D1DBB2144A137012494B68DA00D3189B01124AE2
:400240009B58124A1268D340114A12681340D8B2104A1070180AC0B21070180CC0B210701B0ECB60DBB2137001230B600922034B1A7002E00122084B1A60704772000F40AC
:400280006401002073000F409C010020E0030020DC03002042000F40E403002010B500210CE0CB005B181B019B189B00054C1851013200E000228F2AF3D901310029F9D08E
:4002C00010BDC0469C01002000280CDB00290ADB8F2808DC002906DCCB005918090108188000014BC25070479C010020072834D880001E4B1B589F461D4A1E4B1A6001220A
:400300001D4B1A6030E01D4A1A4B1A6002221A4B1A6029E01A4A174B1A600322164B1A6022E0184A134B1A600422134B1A601BE0154A104B1A6005220F4B1A6014E0134A84
:400340000C4B1A6006220C4B1A600DE0104A094B1A600722084B1A6006E001225242054B1A600022044B1A607047C046BC0900007F7F7F7FDC030020E00300203F3F3F3FDA
:400380001F1F1F1F0F0F0F0F07070707030303030101010110B50322144B1A703832144B1A700B3A134B1A70143A134B1A70134C012323700020FFF771FF0023237000205E
:4003C00000F028FA0020FFF791FF0D4B1B7D002B08D101220A4B1A750A4800F063FA0A4800F092FA0122094B1A6010BD93000F4043000F4023000F4033000F4072000F40F6
:40040000640100201D020000B5010000E403002008B562B6FFF7BEFF02200121034AFFF753FF0420FFF762FFF6E7C046F0F0000008B500F08DFA03680C2B00D1FEE7FEE74B
:4004400070B50F4E0F4D13E029686B68AC68002202E001C901C30432A242FAD1E868002202E0002102C304328242FAD11035013E002EE9D100F072FAFFF7CAFFFEE7C0464B
:4004800001000000A00F000008B500230AE0032B03D89A000A49505800E00A4899000A4A885001332F2BF2D9FFF7E4FD0022074B1A608022D205116801230B43136008BD73
:4004C000000000003104000000000020C0000020F0B50025002711E0BB00C658F3B2FF22964308E06A008A181478A419527822700135013BDBB2002BF4D10137052FEBD9B5
:40050000F0BDC04608B50A1C002100F04DFA08BD1F2318401E3B8340181C014B1860704700E100E001BE704738B5041C0D1C1F2802D90020FFF7F6FFA400034B9C4664448D
:400540002068256038BDC0464000002008B5034B1B7B584300F0E8F908BDC046CC000020F0B557464E46C0B483B0041C00F0E6F90190E71E2D2F74D83F4B1B78DBB2A34216
:4005800008D33E4B1B78DBB29A463D4B1B78DBB2994631E03B4B1B78DBB2A34208D33A4B1B78DBB29A46394B1B78DBB2994623E0374B1B78DBB2A34208D3364B1B78DBB2CB
:4005C0009A46354B1B78DBB2994615E0334B1B78DBB2A34208D3324B1B78DBB29A46314B1B78DBB2994607E02F4B1B78DBB29A462E4B1B78DBB299462D4BDE5D2F2E09D986
:400600002A2C07D919222B4B1A60052000F08CF9192503E0274B1D683F231D40AE4206D2234BDA5D234B1A60052000F07DF91F4B9C4664442378DBB21F4A13601F4B52460E
:400640001A601F4B4A461A600520FFF77FFFAE420AD9174BDA5D174B1A60052000F064F902E00020FFF75EFF019800F06BF903B00CBC91469A46F0BDC0F1FF0FC1F1FF0F99
:40068000C2F1FF0FC3F1FF0FC4F1FF0FC5F1FF0FC6F1FF0FC7F1FF0FC8F1FF0FC9F1FF0FCAF1FF0FCBF1FF0FCCF1FF0FCDF1FF0F680D00002CFF0B4028FF0B401CFF0B4029
:4006C00020FF0B40034B1868C0231B02184000D00120704700010B4008B500F02FF9044A1368C02109020B43136000F02BF908BD00010B4010B500F021F908490A68084B21
:400700001A408024E40122430A600A6813408022120213430B6000F015F910BD00010B40FF3FFFFF70B5061C00F008F9041CFFF7C9FF002803D0FFF7DDFF012500E000256A
:400740000848331C0340084A106808490840184310601368012D01D1FFF7BEFF201C00F0F1F870BD0404040010020B40FBFBFBFF10B5244B1B685B0715D5234B1B685B074A
:400780000ED5224BD969042001401F4C22688A432260DA698243DA611B69002B00D098470420FFF7BFFF174B1B685B0518D5164B1B685B0510D5154BD9698022D2001140C3
:4007C000114802688A430260D969114A0A40DA615B69002B00D098478020C000FFF7A2FF084B1B685B030CD5074B1B685B0304D5064B9B69002B00D098478020C002FFF7A8
:4008000091FF10BD10020B40E00000207C010020FFFBFFFF00280CD10C4A0D4B1A6005220C4B1A6002320C4B1A6019320B4B1A600BE0064A064B1A600522064B1A600232F8
:40084000054B1A601932054B1A607047980D0000F0030020E8030020F4030020EC030020014B18647047C0460000002010B5041C00F064F8044A1368C0218B43A4011C43A7
:40088000146000F05FF810BD00E400E00122014B1A60704700E100E00122014B1A60704780E100E010B5041CFFF7F6FF201CFFF7D7FF0320FFF7DAFFFFF7E8FF10BDC04630
:4008C000014B98647047C0460000002010B5041C00F034F8044A1168044B0B40A4051C43146000F02FF810BD00E400E0FFFF3FFF0422014B1A60704700E100E00422014B3B
:400900001A60704780E100E010B5041CFFF7F6FF201CFFF7D5FF0320FFF7D8FFFFF7E8FF10BDC046000000000230800804D0C0460138FDD1C046C046C0467047EFF31080F9
:4009400072B6704780F310887047C046C046C046014B18687047C046440100200E4B70B500251E1C0D4CE41AA410A54204D0AB00F35898470135F8E700F000FB084B0025E6
:400980001E1C084CE41AA410A54204D0AB00F35898470135F8E770BD880F0000880F0000880F0000900F0000031C8218934202D019700133FAE77047000000005A030000AF
:4009C000F8020000060300001403000022030000300300003E0300004C030000FFFF0000CCFF000099FF000033FF000000FF000000B36600009999000066B3000033CC0000
:400A00001919B30033009900400099006600990099009900CC009900E6006600FF000000FF330000FF660000FF800000FF990000FFB20000FFCC0000FFE50000000000003D
:400A4000000055000000AA000000FF0000550000005555000055AA000055FF0000AA000000AA550000AAAA0000AAFF0000FF000000FF550000FFAA0000FFFF005500000031
:400A8000550055005500AA005500FF0055550000555555005555AA005555FF0055AA000055AA550055AAAA0055AAFF0055FF000055FF550055FFAA0055FFFF00AA000000A1
:400AC000AA005500AA00AA00AA00FF00AA550000AA555500AA55AA00AA55FF00AAAA0000AAAA5500AAAAAA00AAAAFF00AAFF0000AAFF5500AAFFAA00AAFFFF00FF00000011
:400B0000FF005500FF00AA00FF0FF000FF550000FF555500FF55AA00FF55FF00FFAA0000FFAA5500FFAAAA00FFAAFF00FFFF0000FFFF5500FFFFAA00FFFFFFFF80FF000056
:400B400000FF800000FFFF000080FF008000FF00FF00800000FF00002020200000002000000000100000000000000000000000000000000000000000000000000000FF00ED
:400B80001000F0002000E0003000D0004000C0005000B0006000A000700090008000800090007000A0006000B0005000C0004000D0003000E0002000FF00000000300F40B7
:400BC000000400400F40000404000F4067320F404B330F4004400F4008410F4002600F40031813182314330C024905570708086D09020A120B200D010E21110412891390B1
:400C000014A415A0165A175F1B081C212249264928102A022F5730C03207330F3438353037C038083A023BA04026460B47CE483449FF4AFF4BFF580459045A045B045C9925
:400C40005D095F0162C064406501800281048204840686388A018C028F1990019101930894089626970699039A109C049F08A001A310A401A801AF10B001B20EB308B41853
:400C8000B510B620B707B980BE01BF14C015C510C605C720C826C9FFCAFFCBFFCDA0D804D904DA04DB04DC99DD09DF01E040E140E2C0E4C0E6C00094024004020510070127
:400CC00009880A880D080E400F021028110115021608170818901A0A1B401C041D1C1E402009220824022510272A29802B402C023114334235043722380139403B803C04A7
:400D00003D203E404061430A472048424E04500251815640570B5C6064106780682869016A806D406F41758076088040840488108A01A608B208C0DFC2BFC47ECA19CCEFED
:400D4000CE79D028D228D630D8C0EE806F087308DA80DC20550881088708A708B308D440E280E64002011101030405060708090A0B0C0E0F101112131415161718191B1CEA
:400D80001D1E1F2021222325262728292A2B2E2F3031323334350000000000000000005F00000007000700147F147F14242A7F2A12231308646236495522500005030000AD
:400DC000001C2241000041221C00082A1C2A0808083E080800503000000808080808006060000020100804023E5149453E00427F400042615149462141454B311814127FB2
:400E00001027454545393C4A49493001710905033649494936064949291E003636000000563600000008142241141414141441221408000201510906324979413E7E1111B2
:400E4000117E7F494949363E414141227F4141221C7F494949417F090901013E414151327F0808087F00417F41002040413F017F081422417F404040407F0204027F7F0482
:400E800008107F3E4141413E7F090909063E4151215E7F09192946464949493101017F01013F4040403F1F2040201F7F2018207F6314081463030478040361514945430037
:400EC000007F4141020408102041417F000004020102044040404040000102040020545454787F484444383844444420384444487F3854545418087E090102081454543CBA
:400F00007F0804047800447D40002040443D00007F10284400417F40007C041804787C0804047838444444387C14141408081414187C7C080404084854545420043F444036
:400F4000203C4040207C1C2040201C3C4030403C44281028440C5050503C4464544C44000836410000007F0000004136080008082A1C08081C2A080843000000F8B5C0463E
:400F8000F8BC08BC9E4670477D01000089040000F8B5C046F8BC08BC9E46704755010000B00F0000C800002080000000B002000000000000010000000000E02EC05D0000F2
:400FC0001800000000366E01040404000000000000000000000000000000000000000000000000000000000000000000780F000000000000000000000000000000000000A1
:401000000000000000000000000000000000000000000000000000000000000000000000000000000000000000000000E400002000000000000000000000000000000000AC
:401040000000000000000000000000000000000000000000000000000000000000000000000000000000000000000000000000000000000000000000000000000000000070
:401080000000000000000000000000000000000000000000000000000000000000000000000000000000000000000000000000000000000000000000000000000000000030
:4010C00000000000000000000000000000000000000000000000000000000000000000000000000000000000000000000000000000000000000000000000000000000000F0
:4011000000000000000000000000000000000000000000000000000000000000000000000000000000000000000000000000000000000000000000000000000000000000AF
:0200000490303A
:02000000BEC57B
:0200000490402A
:200000000000000000000000000000000000000000000000000000000000000000000000E0
:0200000490501A
:0C000000000204C81193110104CCD05878
:0200000490600A
:0100000001FE
:00000001FF