:400000000080002011000000310D0000310D000008B5044B1A6803F53F5302331A6000F0A7FE00BFFA46004010B5054C237833B9044B13B10448AFF300800123237010BD56
:40004000C081FF1F00000000905A0000084B10B51BB108480849AFF300800848036803B910BD074B002BFBD0BDE81040184700BF00000000905A0000C481FF1F0881FF1FFD
:400080000000000008B5002000F0E4F9FA2000F03FFB00F0CFFB08BD08B501F04BF800F0F7FD01F01FFB01F067FB62B6FFF7EAFF08BD00BF08B500F099F800F02DFA00F0E0
:4000C0007FFD08BD08B5FFF7E7FF054800F0E8FDFFF7F0FF4FF47A7001F092FAF8E700BF985A000000B583B08DF804008DF805101F2001A90222002301F096F901F062FADD
:4001000010F0020FFAD003B05DF804FB00B583B08DF8040000238DF800301F2001A90122022301F081F901F04DFA10F0020FFAD01F2069460122134601F0DCF901F042FA88
:4001400010F0010FFAD09DF8000003B05DF804FB10B5044600F0E0FA204B1C70204A00231380538093801F4A1380538093800D20FFF7CCFFC72804D01B4800F091FD00209F
:4001800010BD2A200021FFF7ADFF144B1B78012B08D013B1022B0AD00DE00E200021FFF7A1FF08E00E200121FFF79CFF03E00E200221FFF797FF2B200221FFF793FF2A2009
:4001C0001521FFF78FFF5B201F21FFF78BFF5C202021FFF787FF012010BD00BFDC81FF1F3882FF1F9882FF1FB85A00002DE9F04F8BB0874A0023138053809380854A138028
:40020000538093808DF82430059306930793ADF820301F2009A90122022301F005F901F0D1F910F0020FFAD01F2005A90E22012301F060F901F0C6F910F0010FFAD09DF8D7
:4002400015009DF816309DF817B09DF818709DF819A09DF81A609DF81B909DF81C409DF81D2001929DF81E1002919DF81F5003959DF8208043EA002040F38D0003F05CF9A6
:400280000090654D286047EA0B2040F38D0003F053F90746686046EA0A2040F38D0003F04BF90646A86044EA092000B203F044F904460299019A41EA022000B203F03CF97F
:4002C0008146039D48EA052000B203F035F982464F4D009803F0D4FA2880384603F0D0FA6880304603F0CCFAA8804A4D204603F0C7FA2880484603F0C3FA6880504603F086
:40030000BFFAA880454B1B78012B14D013B1022B22D031E0404D0098414903F061F9286038463F4903F05CF9686030463C4903F057F9A86020E0384D00983A4903F050F9F9
:4003400028603846374903F04BF968603046354903F046F9A8600FE02F4D0098324903F03FF928603846304903F03AF9686030462D4903F035F9A8602C4D20462C4903F058
:400380002FF9286048462A4903F02AF968605046274903F025F9A860264800F07DFC1E4C206802F0D1FC00F083FC234800F074FC606802F0C9FC00F07BFC204800F06CFC27
:4003C000A06802F0C1FC00F073FC1D4800F064FC1C4800F061FC286802F0B6FC00F068FC194800F059FC686802F0AEFC00F060FC164800F051FCA86802F0A6FC00F058FC18
:40040000134800F04DFC01200BB0BDE8F08F00BF3882FF1F9882FF1F4482FF1FDC81FF1FE7D01C3BE7D09C3BE7D01C3CE082FF1FCDCCCC3DDC5A0000E85A0000F45A000067
:40044000005B00000C5B0000185B0000245B0000305B000008B5FFF77BFE08BD00B583B08DF804008DF80510212001A90222002300F0DAFF01F0A6F810F0020FFAD003B029
:400480005DF804FB00B583B08DF8040000238DF80030212001A90122022300F0C5FF212069460122134601F025F89DF8000003B05DF804FB10B5044600F02EF9124B1C8083
:4004C000124B00221A805A809A800C20FFF7DAFFD72804D00E4800F0E3FB002010BD0D4800F0DEFB13200021FFF7B8FF13204021FFF7B4FF13200E21FFF7B0FF642001F038
:400500007FF8012010BD00BFDE81FF1F2082FF1FB85A0000385B00002DE9F04385B0764A00231380538093808DF80C300193ADF808308DF80A30212003A90122022300F0C5
:4005400073FF01F03FF810F0020FFAD0212001A90722012300F0CEFF01F034F810F0010FFAD09DF805009DF806309DF807909DF808609DF809809DF80A5043EA002000B280
:4005800002F0DAFF07465D4C206046EA092000B202F0D2FF0646606045EA082000B202F0CBFF0546A060544C384603F069F92080304603F065F96080284603F061F9A0807B
:4005C0004F4B1B88B3F5FA7F1ED002D8FA2B07D055E0B3F57A7F2BD0B3F5FA6F3CD04EE0464C38464FF0705102F0FAFF206030464FF0705102F0F4FF606028464FF07051B9
:4006000002F0EEFFA0603AE03C4C38464FF0725102F0E6FF206030464FF0725102F0E0FF606028464FF0725102F0DAFFA06026E0324C38464FF0745102F0D2FF206030465F
:400640004FF0745102F0CCFF606028464FF0745102F0C6FFA06012E0284C38464FF0765102F0BEFF206030464FF0765102F0B8FF606028464FF0765102F0B2FFA0601F4C50
:40068000206802F061FB1AA3D3E9002302F0B0FB02F048FE2060606802F056FB14A3D3E9002302F0A5FB02F03DFE6060A06802F04BFB0FA3D3E9002302F09AFB02F032FED9
:4006C000A060104800F0E8FA206800F001FB0E4800F0E2FA606800F0FBFA0C4800F0DCFAA06800F007FB012005B0BDE8F08300BF06ED91AA46DF913F2082FF1FA082FF1FA9
:40070000DE81FF1F445B0000505B0000605B000008B5FFF7CFFE08BD08B500F00BFD08BD00B583B002A901F8040D77200122002300F07AFE00F046FF10F0020FFAD003B0D3
:400740005DF804FB08B51E20FFF7EAFF08BD00BF30B583B0002502AC24F8045DFFF7E0FF7720214602222B4600F0C4FE00F02AFF10F0010FFAD09DF804009DF8053043EAC2
:40078000002003B030BD00BF10B500240BE004F15100400000F0FE00FFF7DAFF034B23F814000134E4B2052CF1D910BDE081FF1F10B582B00024ADF804408DF80640FFF74F
:4007C000AFFF772001A90322234600F093FE00F0F9FE10F0010FFAD09DF804209DF805309DF806001B0243EA0243184302B010BD082819D8DFE800F0051809180D1811184F
:40080000150001220A4B1A730EE00222084B1A730AE00322064B1A7306E00522044B1A7302E00A22024B1A73014B5873704700BFE081FF1F08B5FFF76FFFFFF783FF042025
:40084000FFF7D6FF642000F0DBFEFFF79DFF012008BD00BF10B5064C607B5030C0B2FFF75FFF207B00F0CCFE0020FFF7A1FF10BDE081FF1F10B5064C607B5030C0B2FFF7C0
:400880004FFF207B00F0BCFE0020FFF791FF10BDE081FF1F2DE9F04F83B0FFF7EBFF0190FFF7D8FF644B1A89A0EB02205E88002545EA16453404DE884FEAE07BA6FB002363
:4008C00006FB0B3316461F46002A73F1000103DA12F17F0643F10007F10941EA4762FB11A4185D4154490A88002747EA5247D603B1F80480A0FB082308FB0B3390469946B3
:40090000002A73F1000103DA12F1FF0843F100094FEA182141EA09624FEA292392197B414549897B002960D043494E89A0FB060106FB0B1106460F46002871F1000E03DAED
:400940003E4E002736184F41F10D41EA472101F5FA61394800260027C0E90467C0E90667B1F5FA6F16DAA1F5FA6000FB00F000EB800000EBD0767610F717DFF8BCE0CEE9D8
:4009800004670646002800DAC61CB610F7172A48C0E906672A4881421CDA01F2DC5606FB06F6C6EBC60E244FD7E9040110EB0E0041EBEE71C7E9040106EB860106EB41063D
:4009C00006EBD6767610D7E90601801941EBE671C7E90601184ED6E90401241A65EB0105D6E90601121A63EB0103019EA6FB020106FB031106460F46002871F1000303DA35
:400A0000104E002736184F41710D41EAC7227B15141B63EB050522462B46002C75F1000104DA47F6FF72002312196B41D00B40EA434003B0BDE8F08FE081FF1FFFFF7F005D
:400A400024FAFFFFFFFF1F00F8B5FFF703FF1A4A1389A0EB0323DF175489A3FB040104FB071104460D46002871F1000203DA134C002524184D41E00D40EA452000F5FA603B
:400A80000D4A00211162927B5AB1B0F5FA6F08DA03FB03F3B3F1004F14BF00230123064A1362054B1B6AC01A02F03CF90022044B02F0C8FAF8BD00BFE081FF1FFFFF7F0012
:400AC000000059400000000008B502F02BF90CA3D3E9002302F0B6FA0BA3D3E9002300F0F3FE02460B4600200B4901F0CDFF08A3D3E9002302F07CF908BD00BFAFF300808B
:400B000000000000D0BCF8404E3C0C52955BC83F0000000040A5E5400000F03FAFF3008070B50E4602F0FEF804460D46304602F0F9F802460B462046294602F083FA08A3D8
:400B4000D3E9002300F0C0FE02460B460020084901F09AFF04A3D3E9002302F049F970BD4E3C0C52955BC83F0000000040A5E5400000F03FAFF30080014B1868704700BFF1
:400B8000B082FF1F014B5868704700BFB082FF1F014BD3E902017047B082FF1F014B1869704700BFB082FF1F014BD3E906017047B082FF1F014BD3E908017047B082FF1F40
:400BC00010B5FFF747FE274C2060FFF753FE6060FFF73AFFC4E90201FFF75CFE2061FFF773FFC4E9060120691F4B1968FFF798FFC4E908011D4800F04FF8FFF7BDFF00F03A
:400C00008BF81B4800F048F8FFF7C2FF00F050F8184800F041F8184800F03EF8FFF7B2FF00F07AF8154800F037F8FFF7B7FF00F073F8134800F030F8124800F02DF8FFF73C
:400C4000B3FF02F06FFB00F043F80F4800F024F8FFF7B0FF02F066FB00F03AF80B4800F01FF810BDB082FF1F4082FF1F705C00007C5C0000EC5C0000905C0000A05C000093
:400C8000F85C0000B85C0000D05C0000E85C000008B500F0AFFD08BD08B500F0C5FD08BD08B500F0C1FD202000F0D0FD08BD00BF00B587B002460B4601A8044903F0CAFAEC
:400CC00001A8FFF7E9FF07B05DF804FB045D000000B587B002F038F802460B4601A8044903F0B8FA01A8FFF7D7FF07B05DF804FB045D000000B587B002F026F802460B4649
:400D000001A8044903F0A6FA01A8FFF7C9FF07B05DF804FB045D000000B587B001A90A2202F017FEFFF7B8FF07B05DF804FB00BF08B502F0CBFD03680C2B00D1FEE7FEE763
:400D400008B5094B1A681044084BC31AB3F5007F02DC054B186005E002F0B8FD0C2303604FF0FF32104608BD0C81FF1F0883FF1F08B5104E104D16E029686B68AC6800228A
:400D800004E051F8040B43F8040B0432A242F8D1E868002203E0002143F8041B04328242F9D11035013E002EE6D102F095FDFFF789F9FEE7010000002C5F000008B5124A47
:400DC000124B1A60124A136843F40073136000230AE0032B03D80F4A52F8231000E00E490E4A42F8231001332F2BF2D90C4B1A780C4B1A70094A0C4B1A6000F0BBF8002234
:400E00000A4B1A6008BD00BF0004FA050CED00E014ED00E000000000310D00000080FF1FBC7600400481FF1F08ED00E00081FF1FFEE700BFF0B40022174611E050F82760B6
:400E4000F3B226F0FF0608E001EB420511F812406D78A5550132013BDBB2002BF4D10137232FEBD9F0BC7047064B1B78DBB203F00701054A11701B09013213704422034BF6
:400E80001A707047CF0100496E5800407658004008B50A46002102F069FD08BD38B51925284B1D801823284A137002321580023213704FF49C71023211800232137002229E
:400EC000224B1A7008224FF040231A70032103F5007319701E4B1B78DBB21E490B701E4B1A8041F25122023B1A8000240CE01B4B1B7803F0010343EA440404F003044FF4EF
:400F0000F07000F0D1FC013D0DB1032CEFD115B90320FFF78DFF124B4FF480721A8007221A7000220F490A704820023108701A700222033B1A700C4A137843F00703137039
:400F400038BD00BF80400040824000400043004008010049A146004022420040254200400440004006400040A243004008B502F0F2FC08BD38B572B6384A137843F0040387
:400F8000137000240CE0364963001A1952000A4423445B00C8589188FFF77AFF0134E4B2072CF0D900240BE02D49A3001A1952000A44106B516B8022FFF7D8FF0134E4B24C
:400FC000002CF1D04FF090402649FFF733FF264A137843F0020313701032137843F002031370224C237843F040032370A2F58632513A137843F0100313701D481D490A22E9
:40100000FFF7B4FF1C481D490A22FFF7AFFF1C481C490A22FFF7AAFF1B481C490822FFF7A5FF1B481B490822FFF7A0FF1A4A137843F008031370194D61232B70FFF72EFF6F
:4010400081232B700122164B1A70FFF70DFF154821460E22FFF78AFF38BD00BFE8460040085D00009000004803500140A043004000510040C40C0048C0510040D00C00487A
:40108000F0510040DC0C004812510040E80C004822510040F00C0048224300400048004004000840B043004038B50222114B1A7081220E3B1A70082202331A700F2511332F
:4010C0001D70002401331C704FF400420A4B1A602846072100F0BEFA2846084900F0A6FA1022074B1A70074B1C70074B1C70074B1C7038BDD649004080E100E05D110000F3
:40110000EC82FF1FF282FF1FFA82FF1FF082FF1F08B500F0D1FB064A137843F0040313701032137843F00403137000F0C9FB08BDA543004008B5074B1B7823B9FFF7B4FF04
:401140000122044B1A70FFF7E3FF4FF40042024B1A6008BD0882FF1F00E100E038B5A44B1C78E4B2A34B1B7813F0400F00F0378114F0010F00F01B819E4B1B78453B052BD4
:4011800000F21281DFE813F006008200100110010600DE0004F0DF0504F00A04082C42D1944B1B78DBB2452B35D1934B1B7813F0FF0F10D0914B1B681B78DBB2904A13707E
:4011C00004228B4B1A7001228E4B1A704622894B1A702C46EBE08C4B1B7813F0020F0DD08A4A137843F00A0313706022814B1A704FF40042864B1A602C46D8E0854A137837
:4012000043F0100313701022834B1A700422023B1A702C46CBE00022754B1A704A22754B1A702C46C3E00A2C2BD1784A137843F0A0031370744B1B7813F0020F14D06D4B40
:401240001B7813F0080F01D0092300E00A236F4A11780B4313706022664B1A704FF400426B4B1A602C46A2E06A4A137843F0100313701022684B1A700422023B1A702C4668
:4012800095E0002000F0BAF92C4690E014F0020F35D15C4B1B78584A1278DBB2934210D2584A1378DBB255490968CB5CDBB254490B7004214E4B197013780133DBB21370A4
:4012C00075E0514B1B7813F0020F0CD04F4A137843F00A0313706022464B1A704FF400424B4B1A6063E04B4A137843F0100313701022494B1A700422023B1A7057E0424B34
:401300001B7813F0020F0CD0404A137843F09A0313706022374B1A704FF400423C4B1A6045E03C4A137843F01003137010223A4B1A700422023B1A70344A137843F09003B2
:40134000137034E0354A1378DBB2354908682C490978C9B2C15413780133DBB213701378304A1278DBB2934203D21022204B1A701DE0254B1B7813F0020F0CD0234A137827
:4013800043F00903137060221A4B1A704FF400421F4B1A600BE01F4A137843F0100313700022134B1A7002E0002000F027F914F0200F1CD00F4B1B7813F0080F01D00123B2
:4013C00000E00223114A11780B431370114A137803F0EF0313701022064B1A7038BD054B1B7813F0100F02D11022024B1A7038BDD7490040EC82FF1FF182FF1FFC82FF1FF4
:40140000D8490040F082FF1FF882FF1FF282FF1F80E100E0D6490040D9490040FA82FF1FF482FF1FF982FF1F002948D070B40C4626490978C9B2102906D12549097811F0A6
:40144000080F11D1002112E020490978C9B260290CD14FF400451F490D601F4D297801F0F7012970002102E0012100E0022149BB4526164D2E700026184D2E70184D2A70E9
:40148000184A1460184A1370134C227802F0FD0222704200D2B21548027013F0010F06D012220B4B1A700422023B1A7002E00122074B1A704FF400420D4B1A6002E0022139
:4014C00008467047084670BC704700BFEC82FF1FD949004080E200E0F282FF1FF082FF1FF182FF1FFC82FF1FF882FF1FD849004000E100E000294AD070B40C462749097814
:40150000C9B2102906D12649097811F0080F11D1002112E021490978C9B260290CD14FF4004520490D60204D297801F0F7012970002102E0012100E0022159BB4926174D5A
:401540002E700026194D2E70194D2A70194A1460194A1370144C227802F0FE0222704200D2B242F001021548027013F0010F06D012220B4B1A700422023B1A7002E00122AF
:40158000074B1A704FF400420D4B1A6002E0022108467047084670BC704700BFEC82FF1FD949004080E200E0F282FF1FFA82FF1FF982FF1FF482FF1FF882FF1FD84900407C
:4015C00000E100E04FF40042084B1A60084B1878C0B2084B1B7813F0400F01D040F004004FF40042044B1A60704700BF80E100E0F282FF1FEC82FF1F00E100E001BE7047EC
:4016000010B5044605E0084B186800F04DF9A4F50044B4F5004FF6D8034B586800FB04F000F042F910BD00BF1081FF1F70B504460E46074B1D681F2802D90020FFF7DEFFF8
:4016400004F01F04103455F8240045F8246070BD08ED00E038B504460D46072902D90020FFF7CCFF1F2C02D90020FFF7C7FF04F01F0000F1604000F564406D01EDB20570A4
:4016800038BD00BF7222084B1A70202202331A700622623B1A70472210331A70002203F257131A70704700BF8064004010B500F003F904460A4A137843F0200313700232F3
:4016C000137843F01003137002F20512137843F01003137000F014F8204600F0F1F810BD9064004008B5054B1B7823B9FFF7CAFF0122024B1A70FFF7D9FF08BD0982FF1F8A
:40170000054A137843F0040313701032137843F004031370704700BFA24300407222074B1A702022033B1A7006225D3B1A70472210331A700022B43B1A7070478B65004071
:4017400010B500F0B9F804460A4A137843F020031370033A137843F010031370A2F20112137843F01003137000F080F8204600F0A7F810BD9B65004008B5054B1B7823B98F
:40178000FFF7CCFF0122024B1A70FFF7D9FF08BD0B82FF1F7222084B1A70202203F583731A700622633B1A70472210331A7000224F331A70704700BF8464004010B500F0FE
:4017C0007BF804460A4A137843F02003137002F58372137843F010031370043A137843F01003137000F050F8204600F069F810BD9464004008B5054B1B7823B9FFF7CAFF73
:401800000122024B1A70FFF7D9FF08BD0D82FF1F034B1B7813F0040FFAD1024B18707047666500404465004038B5074B1B782BB938BDFFF7EDFF0134A4B201E005460024C4
:40184000285D0028F5D138BD0D82FF1F08B5064B1B783BB1FFF7DCFF0D20FFF7D9FF0A20FFF7D6FF08BD00BF0D82FF1F054A137843F0010313701032137843F001031370B9
:40188000704700BFA2430040054A137843F0020313701032137843F002031370704700BFA2430040000000000230800803D000BF01380046FCD17047EFF3108072B6704735
:4018C00080F31088704700BF2DE9F04F8BB01F4680468946164600F06FF9DFF8D8A204469AF900300D46013304D03046394600F083FF20B9204629460BB0BDE8F08F4046F6
:40190000494600F079FF834660BB304639460022002301F0D5FC0028ECD09AF900309E4C01229E4900208DE814005A1CCDF820B0CDE90289CDE90467CDE906010DD0022B58
:401940000BD0684600F084FF002800F09380089B1BB101F0BBFF089B0360DDE906010BB0BDE8F08F404649460022002301F0A8FCF8B1304639460022002301F0A1FC83464B
:4019800000284ED084489AF900300121002200240025CDE90289CDE90467CDE90645019000910892002BCCD07C4B0022CDE90623D3E72046294600F019FF834600285ED061
:4019C000204629460022002301F07AFC002891D04046494600F00AFF00288BD03046394600F004FF002885D09AF900306A480421002200240025022BCDE90289CDE9046753
:401A0000CDE9064501900091089200F08880684600F01EFF002800F08280089B002B9CD097E73046394600F0E1FE00283FF462AF304639460022002301F04CFC00283FF466
:401A400059AF55499AF800300122CDF820B0CDE90289CDE9046701910092002B3CD050490020022BCDE9060130D101F02FFF21230360D2E701F02AFF2123036067E74046D1
:401A8000494600F0B3FE00289AD03046394600F0ADFE002894D02046294600F0ADFE00BB3D4A9AF8004001230890CDE90289CDE90467019200937CB10020002102460B4679
:401AC00001F0C0FA022CCDE90601CED0684600F0BFFE0028A1D1C8E700220023CDE90623F4E72D499AF900300322CDF820B0CDE90289CDE9046701910092ABB9294D4FF07D
:401B000060444046494600220023CDE9064501F0E1FB50BB9AF90030022B7FF478AF01F0D5FE2223036078E71F4D00244046494600220023CDE9064501F0CCFB0028E9D0F5
:401B400000221A4B3046394601F052F904460D4600F086FE22462B4601F0B2FB0028D9D10F4B0022CDE90623D4E700220F4B3046394601F03DF904460D4600F071FE224641
:401B80002B4601F09DFB0028C4D1094B4FF06042CDE90623BEE700BF445D00000000F03F0000F0FFFFFFEF470000F07F0000E03FFFFFEFC72081FF1F2DE9F04F144623F040
:401BC0000047024657EA04000E468FB01D469C46214634D06E4B26F0004A9A459346B14626DC24D09F4223DC694B9F4200F08F80B9F1000FC0F28F804FF0000879BB644BF8
:401C00009F4200F0A580634B9F4267D0BCF1804F00F0E283604B9C4521D1B9F1000F1EDB104631460FB0BDE8F04F00F015BD62B10AF1404000F5801050EA0B0007D103463C
:401C4000544918460FB0BDE8F08F5745CCDD53480FB0BDE8F04F00F0FDBD4FF0000810463146CDF808C0009200F0BCFD009ADDF808C0BBF1000F20D04FEAD97909F1FF39DE
:401C800058EA09037AD0464B9F4240F38F8003F104739F4240F31084424B9A4540F39283BCF1000F40F3928337A1D1E900010B46024601F09DF80346C3E7BAF1000F04D0DA
:401CC000344B29F0404E9E45D6D1BCF1000FC0F2B683B9F1000F08DB0346B2E7BCF1000FC0F2528413463146ABE70AF1404A0AF5801A58EA0A0340F05E8402460B4600F061
:401D0000C3FE0B46024601F09DF9034699E700293FF46EAF8CE7244B9F422CDCA3F154739F427FF769AF40F213403B15834240F34B84C3F58663033321FA03F000FA03F37A
:401D40008B427FF459AF00F00100C0F1020855E70AF1404303F5801353EA0B0300F03983104B9A4540F36483BCF1000FC0F22E832346294665E74FF002083FE71046314660
:401D80003346BCE7AFF300809C7500883CE4377E0000F07F0000F03F0000E03FF45C00000000E041FFFFEF3FFFFF3F43BAF5801F4FF0000205DACA4B01F01AF88A466FF0E8
:401DC00034024FEA2A53C74ECAF3130AA3F2FF334AF07F571344B2450C9347F4401740F3D083C14B9A4540F307840026B4460C9BA7F5801701330C933946BC4B4FEACC0C1F
:401E00006344D3E900AB52465B46CDF834C0CDE9060100F039FE52465B46CDE90801DDE9060100F033FE02460B460020B04901F009F902460B46DDE90801CDE90A2300F0F8
:401E4000D7FF02460B46CDE90223CDE904237B1043F0005303F5002399190020002306460F460293DDE902231046194632463B46CDE9000100F0BCFF02460B46DDE9080181
:401E800000F002FE5246CDE908015B463046394600F0FAFD02460B46DDE9060100F0F4FD02460B46DDE9000100F0A2FF02460B46DDE9080100F0E8FDDDE90A2300F098FF6F
:401EC000DDE90423CDE906011046194600F090FF02460B4606460F4600F08AFF6EA3D3E9002382468B463046394600F081FF6CA3D3E9002300F0CAFD32463B4600F078FF5E
:401F000069A3D3E9002300F0C1FD32463B4600F06FFF67A3D3E9002300F0B8FD32463B4600F066FF64A3D3E9002300F0AFFD32463B4600F05DFF62A3D3E9002300F0A6FD97
:401F400002460B465046594600F052FFDDE9042306460F46DDE9000100F098FDDDE9062300F046FF32463B4600F090FDDDE9006782468B4632463B463046394600F038FF03
:401F800000225C4BCDE9080100F080FD52465B4600F07CFD02980F460646DDE9000132463B4600F025FF32463B46CDE90001DDE9060100F01DFF0022CDE906014D4B304605
:401FC000394600F061FDDDE9082300F05DFD02460B465046594600F057FDDDE9042300F007FF02460B46DDE9060100F04FFD82468B46DDE9000152465B4600F047FD32A3A0
:40200000D3E9002302980F46064600F0F1FE30A3D3E90023CDE904013046394600F0E8FEDDE90023CDE906013046394600F02CFD02460B465046594600F026FD26A3D3E955
:40204000002300F0D5FE02460B46DDE9060100F01DFDDDF834C0284BCDF818C06344D3E9002300F013FDCDE900010C9800F05AFE06460F46DDE90401204BDDF818C09C44A4
:40208000DDE90023DCE900AB00F000FD52465B4636E000BFAFF30080EF4E454A287ECA3F65DBC9934A86CD3F01411DA96074D13F4D268F515555D53FFFAB6FDBB66DDB3F89
:4020C000033333333333E33F000000E009C7EE3FF5015B14E02F3EBEFD033ADC09C7EE3F000040438E98030079B60B00685D00000000F03F00000840585D0000485D0000E0
:40210000CDE906AB00F0C2FC32463B4600F0BEFC029832463B4682468B4600F0B5FCDDE9062300F0B1FCDDE9042300F0ADFC02460B46DDE9000100F0A7FCCDE9020108F163
:40214000FF3858EA09030CBFD54BD64B0022CDE904230023CDE900450093DDE90067204632463B46294600F08FFC52465B4600F03FFEDDE90223804689462046294600F0FD
:4021800037FE02460B464046494600F07FFC04460D465246304639465B46CDE9024500F027FE06460F4620463B462946324600F06DFCBD4B824699428946884640F313811D
:4021C00001F13F4303F5E003034340F0E581A0A3D3E90023DDE9020100F058FC324604460D463B465046494600F04EFC02460B462046294601F08CF8002840F0CD814C4675
:402200002015A0F2FE304FF4801101414144C1F30A50A64CA0F2FF35C1F3130BC0F5826003302C414BF4801B21EA040300224BFA00FB3946304600F027FC06460F46DDE982
:4022400002018BEAE87B0BEBD87B32463B464FEA0B5A00F01BFC80A3D3E90023002420460D4600F0C5FD3246804689463B462046294600F009FC02460B46DDE9020100F061
:4022800003FC77A3D3E9002300F0B2FD76A3D3E9002306460F462046294600F0A9FD02460B463046394600F0F1FB06460F4632463B464046494600F0E9FB42464B46044633
:4022C0000D4600F0E1FB02460B463046394600F0DBFB2246804689462B462046294600F087FD63A3D3E9002306460F4600F080FD61A3D3E9002300F0C7FB32463B4600F043
:4023000077FD5FA3D3E9002300F0C0FB32463B4600F06EFD5CA3D3E9002300F0B5FB32463B4600F065FD5AA3D3E9002300F0AEFB32463B4600F05CFD02460B46204629465B
:4023400000F0A2FB06460F4632463B462046294600F04EFD0022CDE900014FF080433046394600F091FB02460B46DDE9000100F069FE424606460F464B462046294600F0A4
:4023800037FD42464B4600F081FB02460B463046394600F079FB22462B4600F075FB02460B4600203F4900F06FFB8A44BAF5801F0246C0F227815346DDE9040100F018FD77
:4023C00003463EE4BCF1000FFFF66EAC0023194637E40B46334934E433461046314600F007FD03462DE4324B21F000449C4240F3FA80304B0B4403430CD132463B4600F05E
:4024000043FB02460B46DDE9020100F06DFF00283FF4F6AE20A3D3E90023DDE9040100F0E7FC1DA3D3E9002300F0E2FC034608E4BCF1000FCADA234605F1004101E4024692
:402440000B460020174900F0FDFD42E4AFF30080FE822B654715973C00000000432EE63FEF39FAFE422EE63F396CA80C615C20BED0A4BE726937663EF16BD2C541BDBB3E09
:402480002CDE25AF6A56113F93BDBE166CC1663F3E5555555555C53F59F3F8C21F6EA5010000F0BF0000F03FFFFF8F40FFFF0F00FFCB904000346F3F634B9A4582DD634B46
:4024C0009A453FF7EDAB0022604B00F0DDFA54A3D3E9002306460F4600F08AFC52A3D3E90023CDE900013046394600F081FC3246CDE902013B463046394600F079FC002293
:4025000082468B4630463946514B00F071FC02460B4647A1D1E9000100F0B6FA32463B4600F066FC02460B4600204A4900F0ACFA02460B465046594600F05AFC3EA3D3E95A
:40254000002300F055FC02460B46DDE9020100F09BFA06460F46DDE9000132463B4600F095FADDE90023002082468B4600F08CFA02460B463046394600F086FACDE9020161
:40258000DDE50026B44637E4334600202F4900F059FD0346FFF755BB29A3D3E90023DDE9040100F025FC26A3D3E9002300F020FC0346FFF746BBB8F1010F03467FF441AB9C
:4025C00001F10041FFF73DBB00297FF446ABC3F58263033347FA03F000FA03F3BB4217D08846FFF710BB1B4B9C423FF709AEDDE90023924693462EE64FF480264FF0010CAF
:40260000FFF7FABB5A4600F0BBF902460B46D3E600F00100C0F10208FFF7F5BAAFF30080000000604715F73F44DF5DF80BAE543E555555555555D53FFE822B654715F73F7D
:402640009C7500883CE4377EFEFFEF3F0000F03F0000D03F0000E03F2DE9F041604E0C46B6460E40764505460B4600F098800029024676DD5FEA215E00F08180AEF2FF3E1A
:40268000C3F313031EF0010F43F480135ED100273C46D10F01EB43034FEA6E0E520016204FF4001165189D424FEAD2764FEA420202DC5B1B6C180F44013806EB43034FEABD
:4026C0005101EFD1844620264FF000410AE0A34220D0D50F013E4FEA510105EB43034FEA420220D09C420CEB0105F0DA002D05EB010C09DBA0461B1B954288BF03F1FF3315
:402700004446521B0844E4E7BCF1000FF2DB04F10108F0E7954217D8002D05EB010C48DB98460023ECE7134315D140087B1003F17F5303F50013FA0703EB0E57394648BF8C
:4027400040F00040BDE8F0811C46C2E7D10F01EB430352009BE7411C31D000F001031844E3E721F000460643ECD079BB8E46D30AAEF1150E5205002BF9D0DC0222D4002127
:402780005B00D80201F10101FAD5C1F10100C1F1200422FA04F4234386448A406EE702460B4600F025FB2A46234600F06FF9BDE8F081BCF1000FAADAA0460023A0E701373D
:4027C0003046B3E7202401200021E2E702460B4600F05AF902460B4600F034FCB2E700BF0000F07F21F00041704700BF41F0004101F58010C00F704710B431F0004408D0D7
:40280000114BA1F580129A4208D804205DF8044B704718B902205DF8044B704701F1FF41094B01F5E0019942EFD9B4F5801F01D20320EBE7054B9C4201D00020E6E7B0FAE5
:4028400080F04009E2E700BFFFFFDF7F0000F07F0020704700200149704700BF0000F87FF0B5C1F30A5EAEF2FF35132D83B002460B460C464FEAD17607462EDC002D48DB04
:402880003C49294101EA030010432BD049080B4053EA02070CD04FF48023132D24EA010143FA05F444EA01040CBF4FF0004700273149234601EBC606D6E900453A46204693
:4028C000294600F0E3F8CDE90001DDE9000122462B4600F0D9F803B0F0BD332D06DDB5F5806F43D01046194603B0F0BDAEF2134E4FF0FF3121FA0EF10142F3D049080142FE
:40290000D6D04FF0804320EA010143FA0EF70F43CEE721F000410143E4D0C3F3130141EA000CCCF1000141EA0C0C13495C0C4FEA1C3C0CF4002C640401EBC6014CEA040375
:40294000D1E900452046294600F0A0F8CDE90001DDE9000122462B4600F096F8024621F0004141EAC67310461946BDE700F08EF8BAE700BFFFFF0F00785D00000000000017
:40298000F8B5C1F30A5604460D460B46174616BB21F00043034332D00022314B00F028FA304A044697420D460B4637DB40F2FE72C1F30A56363E3E44964215DD24A1D1E9A6
:4029C000000122462B4600F053F821A3D3E9002300F00EFAF8BD40F2FF72964224D040F2FE723E449642E9DC002E09DD23F0FF4323F4E00343EA065520462946F8BDF8BD18
:402A000016F1350F15DA4CF250339F42D6DC12A1D1E9000122462B4600F02AF80EA3D3E9002300F0E5F9F8BD02460B4600F02EF8F8BD23F0FF4323F4E003363643EA0655F5
:402A4000204629460022084B00F0D2F9F8BD00BF9C7500883CE4377E59F3F8C21F6EA50100005043B03CFFFF0000903CAFF3008003F0004321F0004243EA0201704700BF9C
:402A800081F0004102E000BF83F0004330B54FEA41044FEA430594EA050F08BF90EA020F1FBF54EA000C55EA020C7FEA645C7FEA655C00F0E2804FEA5454D4EB5555B8BF6A
:402AC0006D420CDD2C4480EA020281EA030382EA000083EA010180EA020281EA0303362D88BF30BD11F0004F4FEA01314FF4801C4CEA113102D0404261EB410113F0004F58
:402B00004FEA03334CEA133302D0524263EB430394EA050F00F0A780A4F10104D5F1200E0DDB02FA0EFC22FA05F2801841F1000103FA0EF2801843FA05F359410EE0A5F1C5
:402B400020050EF1200E012A03FA0EFC28BF4CF0020C43FA05F3C01851EBE37101F0004507D54FF0000EDCF1000C7EEB00006EEB0101B1F5801F1BD3B1F5001F0CD34908DF
:402B80005FEA30004FEA3C0C04F101044FEA445212F5800F80F09A80BCF1004F08BF5FEA500C50F1000041EB045141EA050130BD5FEA4C0C404141EB010111F4801FA4F161
:402BC0000104E9D191F0000F04BF01460020B1FA81F308BF2033A3F10B03B3F120020CDA0C3208DD02F1140CC2F10C0201FA0CF021FA02F10CE002F11402D8BFC2F1200C6E
:402C000001FA02F120FA0CFCDCBF41EA0C019040E41AA2BF01EB0451294330BD6FEA04041F3C1CDA0C340EDC04F11404C4F1200220FA04F001FA02F340EA030021FA04F3EB
:402C400045EA030130BDC4F10C04C4F1200220FA02F001FA04F340EA0300294630BD21FA04F0294630BD94F0000F83F4801306BF81F480110134013D4EE77FEA645C18BF96
:402C80007FEA655C29D094EA050F08BF90EA020F05D054EA000C04BF1946104630BD91EA030F1EBF0021002030BD5FEA545C05D14000494128BF41F0004130BD14F5800485
:402CC0003CBF01F5801130BD01F0004545F0FE4141F470014FF0000030BD7FEA645C1ABF194610467FEA655C1CBF0B46024650EA013406BF52EA033591EA030F41F4002109
:402D000030BD00BF90F0000F04BF0021704730B54FF4806404F132044FF000054FF0000150E700BF90F0000F04BF0021704730B54FF4806404F1320410F0004548BF4042DD
:402D40004FF000013EE700BF42004FEAE2014FEA31014FEA02701FBF12F07F4393F07F4F81F06051704792F0000F14BF93F07F4F704730B54FF4607401F0004521F00041FF
:402D800020E700BF50EA010208BF704730B54FF000050AE050EA010208BF704730B511F0004502D5404261EB41014FF4806404F132045FEA915C3FF4DCAE4FF003025FEAE0
:402DC000DC0C18BF03325FEADC0C18BF033202EBDC02C2F1200300FA03FC20FA02F001FA03FE40EA0E0021FA02F11444C1E600BF70B54FF0FF0C4CF4E06C1CEA11541DBFBA
:402E00001CEA135594EA0C0F95EA0C0F00F0DEF82C4481EA030621EA4C5123EA4C5350EA013518BF52EA033541F4801143F4801338D0A0FB02CE4FF00005E1FB02E506F038
:402E40000042E0FB03E54FF00006E1FB03569CF0000F18BF4EF0010EA4F1FF04B6F5007F64F5407404D25FEA4E0E6D4146EB060642EAC62141EA55514FEAC52040EA5E5005
:402E80004FEACE2EB4F1FD0C88BFBCF5E06F1ED8BEF1004F08BF5FEA500E50F1000041EB045170BD06F0004646EA010140EA020081EA0301B4EB5C04C2BFD4EB0C0541EA13
:402EC000045170BD41F480114FF0000E013C00F3AB8014F1360FDEBF002001F0004170BDC4F10004203C35DA0C341BDC04F11404C4F1200500FA05F320FA04F001FA05F248
:402F000040EA020001F0004221F0004110EBD37021FA04F642EB06015EEA430E08BF20EAD37070BDC4F10C04C4F1200500FA04F320FA05F001FA04F240EA020001F0004191
:402F400010EBD37041F100015EEA430E08BF20EAD37070BDC4F1200500FA05F24EEA020E20FA04F301FA05F243EA020321FA04F001F0004121FA04F220EA020000EBD37032
:402F80005EEA430E08BF20EAD37070BD94F0000F0FD101F00046400041EB010111F4801F08BF013CF7D041EA060195F0000F18BF704703F00046520043EB030313F4801FF7
:402FC00008BF013DF7D043EA0603704794EA0C0F0CEA135518BF95EA0C0F0CD050EA410618BF52EA4306D1D181EA030101F000414FF0000070BD50EA410606BF104619464D
:4030000052EA430619D094EA0C0F02D150EA013613D195EA0C0F05D152EA03361CBF104619460AD181EA030101F0004141F0FE4141F470014FF0000070BD41F0FE4141F449
:40304000780170BD70B54FF0FF0C4CF4E06C1CEA11541DBF1CEA135594EA0C0F95EA0C0F00F0A7F8A4EB050481EA030E52EA03354FEA013100F088804FEA03334FF08055CA
:4030800045EA131343EA12634FEA022245EA111545EA10654FEA00260EF000419D4208BF964244F1FD0404F5407402D25B084FEA3202B61A65EB03055B084FEA32024FF4E5
:4030C00080104FF4002CB6EB020E75EB030E22BFB61A754640EA0C005B084FEA3202B6EB020E75EB030E22BFB61A754640EA5C005B084FEA3202B6EB020E75EB030E22BF56
:40310000B61A754640EA9C005B084FEA3202B6EB020E75EB030E22BFB61A754640EADC0055EA060E18D04FEA051545EA16754FEA06164FEAC30343EA52734FEAC2025FEA06
:403140001C1CC0D111F4801F0BD141EA00014FF000004FF0004CB6E711F4801F04BF01430020B4F1FD0C88BFBCF5E06F3FF6AFAEB5EB030C04BFB6EB020C5FEA500C50F11A
:40318000000041EB045170BD0EF0004E4EEA113114EB5C04C2BFD4EB0C0541EA045170BD41F480114FF0000E013C90E645EA060E8DE60CEA135594EA0C0F08BF95EA0C0F6A
:4031C0003FF43BAF94EA0C0F0AD150EA01347FF434AF95EA0C0F7FF425AF104619462CE795EA0C0F06D152EA03353FF4FDAE1046194622E750EA410618BF52EA43067FF4FF
:40320000C5AE50EA41047FF40DAF52EA43057FF4EBAE12E74FF0FF3C06E000BF4FF0010C02E000BF4FF0010C4DF804CD4FEA410C7FEA6C5C4FEA430C18BF7FEA6C5C1BD044
:4032400001B050EA410C0CBF52EA430C91EA030F02BF90EA020F0020704710F1000F91EA030F58BF994208BF90422CBFD8176FEAE37040F0010070474FEA410C7FEA6C5CC3
:4032800002D150EA013C07D14FEA430C7FEA6C5CD6D152EA033CD3D05DF8040B704700BF8446104662468C461946634600E000BF01B5FFF7B7FF002848BF10F1000F01BDF4
:4032C0004DF808EDFFF7F4FF0CBF012000205DF808FB00BF4DF808EDFFF7EAFF34BF012000205DF808FB00BF4DF808EDFFF7E0FF94BF012000205DF808FB00BF4DF808ED30
:40330000FFF7CEFF94BF012000205DF808FB00BF4DF808EDFFF7C4FF34BF012000205DF808FB00BF4FEA4102B2F1E04324BFB3F5001CDCF1FE5C0DD901F0004C4FEAC002B3
:403340004CEA5070B2F1004F40EB830008BF20F00100704711F0804F21D113F13872BCBF01F00040704741F480114FEA5252C2F11802C2F1200C10FA0CF320FA02F018BF1A
:4033800040F001004FEAC1234FEAD32303FA0CFC40EA0C0023FA02F34FEA4303CCE77FEA625307D150EA01331EBF4FF0FE4040F44000704701F0004040F0FE4040F4000055
:4033C000704700BF80F0004002E000BF81F0004142001FBF5FEA410392EA030F7FEA226C7FEA236C6AD04FEA1262D2EB1363C1BFD218414048404140B8BF5B42192B88BF7D
:40340000704710F0004F40F4000020F07F4018BF404211F0004F41F4000121F07F4118BF494292EA030F3FD0A2F1010241FA03FC10EB0C00C3F1200301FA03F100F0004304
:4034400002D5494260EB4000B0F5000F13D3B0F1807F06D340084FEA310102F10102FE2A51D2B1F1004F40EBC25008BF20F0010040EA03007047490040EB000010F4000FE7
:40348000A2F10102EDD1B0FA80FCACF1080CB2EB0C0200FA0CF0AABF00EBC25052421843BCBFD0401843704792F0000F81F4000106BF80F400000132013BB5E74FEA410386
:4034C0007FEA226C18BF7FEA236C21D092EA030F04D092F0000F08BF0846704790EA010F1CBF0020704712F07F4F04D1400028BF40F00040704712F100723CBF00F50000C2
:40350000704700F0004343F0FE4040F4000070477FEA226216BF08467FEA23630146420206BF5FEA412390EA010F40F4800070474FF0000304E000BF10F0004348BF4042A3
:403540005FEA000C08BF704743F0964301464FF000001CE050EA010208BF70474FF000030AE000BF50EA010208BF704711F0004302D5404261EB41015FEA010C02BF84467D
:403580000146002043F0B64308BFA3F18053A3F50003BCFA8CF2083AA3EBC25310DB01FA02FC634400FA02FCC2F12002BCF1004F20FA02F243EB020008BF20F00100704775
:4035C00002F1200201FA02FCC2F1200250EA4C0021FA02F243EB020008BF20EADC7070474FF0FF0C1CEAD0521EBF1CEAD15392EA0C0F93EA0C0F6FD01A4480EA010C400251
:4036000018BF5FEA41211ED04FF0006343EA501043EA5111A0FB01310CF00040B1F5000F3EBF490041EAD3715B0040EA010062F17F02FD2A1DD8B3F1004F40EBC25008BF7C
:4036400020F00100704790F0000F0CF0004C08BF49024CEA502040EA51207F3AC2BFD2F1FF0340EAC250704740F400004FF00003013A5DDC12F1190FDCBF00F000407047CF
:40368000C2F10002410021FA02F1C2F1200200FA02FC5FEA310040F1000053EA4C0308BF20EADC70704792F0000F00F0004C02BF400010F4000F013AF9D040EA0C0093F090
:4036C000000F01F0004C02BF490011F4000F013BF9D041EA0C018FE70CEAD15392EA0C0F18BF93EA0C0F0AD030F0004C18BF31F0004CD8D180EA010000F00040704790F088
:40370000000F17BF90F0004F084691F0000F91F0004F14D092EA0C0F01D142020FD193EA0C0F03D14B0218BF084608D180EA010000F0004040F0FE4040F40000704740F0DB
:40374000FE4040F4400070474FF0FF0C1CEAD0521EBF1CEAD15392EA0C0F93EA0C0F69D0A2EB030280EA010C49024FEA402037D04FF0805343EA111143EA10130CF000401E
:403780008B4238BF5B0042F17D024FF4000C8B4224BF5B1A40EA0C00B3EB510F24BFA3EB510340EA5C00B3EB910F24BFA3EB910340EA9C00B3EBD10F24BFA3EBD10340EA4F
:4037C000DC001B0118BF5FEA1C1CE0D1FD2A3FF650AF8B4240EBC25008BF20F0010070470CF0004C4CEA50207F32C2BFD2F1FF0340EAC250704740F400004FF00003013A4B
:4038000037E792F0000F00F0004C02BF400010F4000F013AF9D040EA0C0093F0000F01F0004C02BF490011F4000F013BF9D041EA0C0195E70CEAD15392EA0C0F08D14202DB
:403840007FF47DAF93EA0C0F7FF470AF084676E793EA0C0F04D14B023FF44CAF08466EE730F0004C18BF31F0004CCAD130F000427FF45CAF31F000437FF43CAF5FE700BF57
:403880004FEA4002B2F1FE4F0FD34FF09E03B3EB12620DD94FEA002343F0004310F0004F23FA02F018BF404270474FF00000704712F1610F01D1420205D110F0004008BF47
:4038C0006FF0004070474FF000007047014B1868704700BF8481FF1F0E4B70B51E460E4C0025E41AA410A54204D056F8253098470135F8E702F008FB084B094C1E46E41AB3
:40390000A4100025A54204D056F8253098470135F8E770BD145F0000145F0000145F00001C5F0000931E222B10B50C4602D90020087010BD0A2A06D1002804DA2D230B702A
:403940004042012100E00021214400F0AFFC204610BDFFF7E7BF10B5431E0A44914204D011F8014B03F8014FF8E710BD03460244934202D003F8011BFAE770472DE9F0473A
:403980001E4688B0149F002BB8BF06F10043129927F02007B6BF1E4600232D23462F1446109DDDF84CA00B7003D0452F03D1013501E0032300E002238DE8280406AB0393AA
:4039C00007AB04932246334600F036FD472F804602D1119BDB0726D5462F08EB050911D198F80030302B0AD12046314600220023FFF766FC18B9C5F10105CAF80050DAF8A9
:403A0000003099442046314600220023FFF758FC08B1CDF81C90079B4B4504D25A1C079230221A70F7E74046079B159AC8EB0303136008B0BDE8F087034673B50029B8BF2A
:403A4000494203F8022BB4BF2D222B22092942701ADD0DF1070426460A2291FBF2F502FB1511092D01F1300104F8011D2946F3DC3031651E04F8011CB5421A460AD215F884
:403A8000012B03F8012BF7E71A463024214402F8024B5970101A02B070BD00002DE9F04F91B08B4615461E461A9F044601F080FAD0F800A0504600F0F1FB00230E933B68CE
:403AC0000990073323F0070303F108029BF818803A60D3E90023CBE91223DBE91201FEF78BFE0128DBE9120119D100220023FFF7F1FB10B12D238BF84330A04BA04FB8F15B
:403B0000470F88BF1F460323CBF81030DBF8003023F00403CBF800304FF00009A1E0FEF76BFEDBF8003048B9964A974FB8F1470F88BF17460322CBF81020E9E7DBF80420D7
:403B4000DBE91201571CCDE90A0101D1062209E0B8F1670F02D0B8F1470F05D1002A40F0C7810122CBF80420DBF8042043F480638DE80C00CBF800300DF1330302930DABDF
:403B800003930EAB059300230693CDF81080DDE90A232046FFF7F2FE08F0DF03472B07460AD10D9BD81C03DBDBF80420934237DDA8F102085FFA88F8B8F1650F0D9915D8D4
:403BC000013942460BF150000D91FFF735FF0E9A81468318012ACBF8103003DCDBF80020D10738D50133CBF8103034E0B8F1660F18D10029DBF8043009DDCBF810101BB9E1
:403C0000DBF80020D20721D501330B441CE01BB9DBF80020D00701D5023315E0012313E04FF067080D9B0E9A934207DBDBF80020CBF81030D10709D5013305E0002BD4BF56
:403C4000C3F1020301231344CBF810300D9B4FF00009CBF858309DF8333013B12D238BF843300096204659460FAA2B4600F05CF9013002D14FF0FF3052E1DBF800305A05BF
:403C800005D4204629463A46DBF8103008E1B8F1650F40F2D080DBE9120100220023FFF70FFB50B320462946384A0123B0470130E0D00E9B0D9A9A4209DBDBF80030D807D7
:403CC00005D4DBF800309F0700F1108107E1204629465246099BB0470130CBD000270E9B013B9F42EDDA204629460BF11A020123B0470130BED00137F1E70D9B002B29DCA1
:403D000020462946214A0123B0470130B2D00D9B2BB90E9B1BB9DBF80030D907D1D5204629465246099BB0470130A3D04FF000080D9B20465B429845294608DA0BF11A02FF
:403D40000123B047013095D008F10108F0E73A460E9BA5E0DBF858200E9B9A42A8BF1A46002A914602DC4FF000081CE0204629463A464B46B0470130F5D17BE78E5D000031
:403D80008A5D0000965D0000925D00009A5D0000204629460BF11A020123B04701303FF469AF08F10108DBF85830B9F1000FB4BF1A46C9EB03029045EADB07EB03080D9ADF
:403DC0000E9B9A4210DBDBF80030DA070CD40E9A1744C8EB07030D9FD21B9342A8BF1346002B1F4608DC0EE0204629465246099BB0470130EBD13DE7204629464246B047D2
:403E000001303FF437AF4FF000080AE0204629460BF11A020123B04701303FF42BAF08F101080D9A0E9B002FA3EB0203A8BFDB1B9845EBDB45E70E9A012A01DCDB0736D5E4
:403E4000204629463A460123B04701303FF412AF204629465246099BB04701303FF40AAFDBE9120100220023FFF72AFAE8B90E9B204629467A1C013B1DE0204629460BF193
:403E80001A020123B04701303FF4F4AE01370E9B013B9F42F1DB204629464B460BF15002B04701307FF40DAFE4E60027EFE7204629463A460123B0470130ECD1DAE62046A5
:403EC00029460BF119020123B04701303FF4D2AE0137DBF80C300F9A9B1A9F42EFDBDBF80C000F9B9842B8BF184619E00027F0E743F480638DE80C00CBF800300DF13303FC
:403F000002930DAB03930EAB059300230693CDF810802046DDE90A23FFF730FD074640E611B0BDE8F08F00BF2DE9F84391461F468A680B6906469342B8BF1346C9F80030D4
:403F400091F843200C46DDF8208012B10133C9F800302368990642BFD9F800300233C9F80030256815F006051CD094F843302268003318BF012392061FD5E118302081F8C6
:403F800043005A1C94F845102244023382F8431013E03046394604F119020123C047013007D00135E368D9F800209B1A9D42F0DBDBE74FF0FF30BDE8F8833046394604F1C9
:403FC0004302C0470130F4D02268D9F80050E36802F00602042A08BF5D1B2269A3680CBF25EAE57500259342C4BF9B1AED184FF00009A9450ADA3046394604F11A020123DE
:40400000C0470130D5D009F10109F2E70020BDE8F88300002DE9FF410C461746227E98466E2A06460A9B01F1430100F0B08012D8632A23D00AD8002A00F0BD80582A40F0CF
:40404000CC8084F84520DFF804E257E0642A1ED0692A1CD0C1E0732A00F0B18009D86F2A2ED0702A40F0B980226842F0200222603FE0752A24D0782A3BD0AEE01A6804F186
:404080004205111D1960136884F84230A9E020681A6810F0800F02D0101D186008E010F0400F02F10400186002D0B2F9003000E01368002B3EDA2D225B4284F8432039E03B
:4040C00020681A6810F0800F02D0101D186007E010F0400F02F10400186001D0138800E01368227EDFF864E16F2A0CBF08220A221CE07822DFF858E184F84520226818683D
:4041000012F0800F00F104051D6003D1550601D5038800E00368D00744BF42F0200222601BB9226822F0200222601022002084F8430002E0DFF814E10A226568002DA8BF8C
:404140002068A560A4BF20F00400206003B965B10D46B3FBF2F002FB10331EF8033005F8013D03460028F4D100E00D46082A0BD12368DA0708D5236962689A42DEBF302360
:4041800005F8013C05F1FF35491B21612EE025681A6815F0800F606903D0151D1D60136808E015F0400F02F104051D60136801D0188000E01860002323610D4616E01A68DB
:4041C000111D1960156800212846626800F0FCFE08B1401B6060636804E004F1420584F8422001232361002384F84330CDF800803046214603AA3B46FFF796FE013002D123
:404200004FF0FF301FE0304639462A462369C0470130F5D023689B0705D4E068039B9842B8BF18460FE00025E368039A9B1A9D42F3DA3046394604F119020123C0470130CA
:40424000DED00135F0E704B0BDE8F0819C5D0000AD5D00000EB400B54FF402719CB0ADF814106FF00041049107914FF6FF711DABADF81610084953F8042B029006900868FC
:4042800002A9019301F08EFA029B00221A701CB05DF804EB03B070478481FF1F034613F8012B002AFBD1181A01387047F0B58BB003460F466D461A4C04F1200E2E46206812
:4042C0006168083403C674453546F7D1217920683171911E222930604FF0000001D938701CE07D1EB3FBF2F402FB14330AAE334413F8283C411C05F8013F23460CB10846CA
:40430000F0E77C543A18C11A8B4206DAF95C1478FC5402F801190133F5E738460BB0F0BDBE5D00002DE9F74F03690C698046A3427EDB013C01F114074FEA840E00F1140645
:4043400006EB0E0357F82450019356F824300135B3FBF5F507EB0E09BDB34FF0000A3846B446D34650F8043B9AB21B0C02FB05A26B4303EB124392B2C2EB0B0BBCF80020B7
:404380004FEA134A5A441FFA83FBDCF800304845CBEB134303EB224392B242EA03424FEA234B4CF8042BDDD956F80E306BB9019B043BB3421A4602D8C8F8104005E0126894
:4043C000043B002AF8D1013CF3E7404601F01BF800282BDB304601354FF0000E57F8042B036891B2C1EB0E0E120C99B27144C2EB134303EB214389B24FEA234E4F4541EAB8
:40440000034340F8043BE9D956F8242006EB840362B9043BB3421A4602D8C8F8104005E01268043B002AF8D1013CF3E7284600E0002003B0BDE8F08F2DE9F04F456A95B024
:404440008246219CCDE9022345B9102000F0B4FDCAF82400456085600560C560DAF82430196859B15A68012393404A608B60504600F0EDFDDAF8243000221A60039BA24A58
:40448000002BBDBF01232360039B0023BCBF23F000430393039FA8BF236027F000431B0D1B0593421DD142F20F73209A1360029B43B9964A964BC7F31300002814BF184632
:4044C000104600E09248229B002B00F06985C37813B100F1080300E0C31C229A136000F05FBDDDE902450022204629460023FEF7E7FE804658B1209A01231360229B002BE8
:4045000000F03C8583481860013800F049BD13AB009312AB0193504622462B4600F0EEFFC7F30A5607905EB1C5F3130343F07F51204641F44011A6F2FF36CDF844801DE09A
:40454000139B129E1E446FF482639E42A1BF029A06F2124322FA03F06F4BB7BF6F4B9B1B029A9B1BAABF9F4002FA03F03843FEF7C9FB0123A1F1F871013E11930022684BC7
:40458000FEF782FA5AA3D3E90023FEF731FC5AA3D3E90023FEF77AFA044630460D46FEF7C1FB57A3D3E90023FEF722FC02460B4620462946FEF76AFA04460D4601F040FA08
:4045C00029468346002220460023FEF783FE58B15846FEF7A7FB02460B4620462946FEF76FFE08B90BF1FF3BBBF1160F0DD84D4B03EBCB03D3E90001DDE90223FEF788FE30
:4046000030B10BF1FF3B002300E00123109300E01090129B9E1B731E0A9345BF5B420993002300234CBF0A930993BBF1000F07DB0A9BCDF834B05B440A9300230B9308E0EE
:40464000099BCBEB03030993CBF100030B9300230D931E9B092B29D8052BC4BF043B1E931E9BC8BF0025A3F10203D8BF0125032B21D8DFE803F0020E0410002300E00123A6
:404680000C931F9B002B20DC0123069305931A4619E0002300E001230C931F9B5B4406930133012B0593B8BF012311E0012500231E930C9501E001230C934FF0FF33069347
:4046C0000593002212231F9202E01F9B06930593DAF8244000226260042101F114029A4222D86268490001326260F6E7AFF3008061436F63A787D23FB3C8608B288AC63F57
:40470000FB799F501344D33F0000F07FE35D0000EC5D00009B5D00000EFCFFFFEEFBFFFF0000F83FF85D00005046616800F05AFCDAF8243020601B680893059B0E2B00F20E
:404740004781002D00F04481DDE90223BBF1000FCDE90E2331DDB14A0BF00F034FEA2B1602EBC303F006D3E900450CD5DDE90E01AB4B06F00F06D3E90823FEF763FC0327AC
:40478000CDE9020100E00227DFF8948276B1F10708D5D8E9002320462946FEF729FB04460D460137761008F10808EFE7DDE9020122462B46FEF746FC1BE0CBF10004DCB121
:4047C000DDE90E01954B04F00F0203EBC203D3E90023FEF70DFB924D241102274CB1E20704D5D5E900230137FEF702FB64100835F4E7CDE9020100E00227109BDBB1DDE91E
:404800000245002220462946864BFEF763FD90B1059B83B1069B002B40F3D680294620460022814BFEF7E4FA0BF1FF36CDE902010137069D01E05E46059D3846DDE9028959
:40484000FEF770FA42464B46FEF7D2FA774B0022FEF71CF9CDE90201039BA3F150740394CDB9404649460022714BFEF70DF9029A234680468946FEF74BFD002840F0408266
:4048800040464946029A04F10043FEF723FD002840F0308298E0614B0C996A1E03EBC203002947D0D3E9002300206249FEF7CAFBDDE90223FEF7E8F8CDE90201089C49469C
:4048C000404601F0BDF80746FEF72CFA02460B4640464946FEF7D8F8DDE90223303704F8017B80468946FEF7F5FC002840F0378342464B4600204B49FEF7C6F8DDE90223EF
:40490000FEF7E8FC002840F0D080089BE31AAB425ADADDE902010022434BFEF769FA0022CDE90201404B40464946FEF761FA80468946C4E7D3E90001DDE90223FEF758FA6A
:40494000089BCDE902015C191D464946404601F077F80746FEF7E6F902460B4640464946FEF792F8303705F8017BA5428046894623D100222F4BDDE90201FEF787F80246CF
:404980000B4640464946FEF7C3FC002840F08D80DDE9022300202749FEF776F802460B4640464946FEF796FC70B114F8013C621E302B40F0D4821446F7E700221A4BFEF7E6
:4049C00017FA80468946C0E7DDE90E23CDE90223139B002BC0F28A80BBF10E0F00F386800E4B03EBCB03D3E900671F9B002B23DA059B002B20DC40F07C81304600220C4B44
:404A00003946FEF7F5F9DDE90223FEF777FC059D2E46002840F06F8174E100BFF85D0000C05E00000000F03F0000244000001C40000014400000E03F089CDDE9028932460D
:404A40003B4640464946FEF7FDFA00F0F9FF0546FEF768F932463B46FEF7CAF90B46024649464046FEF710F805F1300E089B04F801EBC3EB040E059B9E452AD102460B4639
:404A8000FEF704F832463B4680468946FEF740FC70B94046494632463B46FEF711FC002800F05E82EB0703D45AE2B34600E01C4614F8012C631E392A07D1089A9342F6D1A2
:404AC0003023137013460BF1010B1A7801321A7046E20022A34BFEF78BF90022002380468946FEF7EDFB0028A9D039E20C9A002A32D01E9A012A0ADC119A12B103F2334398
:404B000002E0129BC3F136030B9D099C18E0059B5D1E0B9BAB42B7BF0B9B5D1BEA1A0D9BBEBF0B959B180D93059BB8BF0025002BB9BF099B059A099C059BBCBF9C1A00239B
:404B4000099A50461A4409920A9A01211A440A9200F01FFB064602E00B9D099C0C9E64B10A9B002B09DDA342A8BF2346099AE41AD21A09920A9AD31A0A930B9B002B20DD70
:404B80000C9BC3B1002D10DD31462A46504600F099FB0646079A3146504600F003FB07460799504600F053FA07970B9B5A1B08D05046079902E0504607990B9A00F082FB26
:404BC00007905046012100F0E4FA0D9B0546002B0ADD29461A46504600F074FB1E9B0546012B04DD00271BE01E9B012B13DC029B8BB9039BC3F313037BB9039B23F0004751
:404C00003F0D3F0557B1099B0127013309930A9B01330A9302E0002700E0029F0D9B43B12B6905EB8303186900F066FAC0F1200000E001200A9B184410F01F0008D0C0F14E
:404C40002003042B02DDC0F11C0002E008D018461C30099B0444034409930A9B03440A93099B002B05DD504607991A4600F078FB07900A9B002B05DD294650461A4600F032
:404C80006FFB0546109BEBB10798294600F0BBFB002817DA0023504607990A2200F0EEF90C9B0BF1FF3B0790002B00F06B813146002350460A2200F0E1F9069B0646002B16
:404CC00033DC68E1059B002B26DC1E9B022B23DD059B0693069B73B929460522504600F0CDF905460798294600F08DFB002809DC01E000252E461F9B089C6FEA030B08E0BC
:404D0000B3462E46089B089A5C1C312313700BF1010BB14600260FE10C9B23B9059B0693089F079CC9E0059B0693002C05DD31465046224600F014FB0646AFB171685046D8
:404D400000F050F90446326906F10C01023292000C30FEF700FE50462146012200F000FB814602E000002440B146089F079C29462046FFF7D7FA3146099000F13008204688
:404D800000F041FB4A4605902946504600F057FBC26803463AB919462046079300F033FB079B024600E0012250461946079200F04EF9079A92B91E9B83B9029B03F0010351
:404DC00063B9B8F1390F3B4607943ED0059B7C1C002BC4BF099B03F131083DE0059B002B04DA002AC446079408DC21E024D11E9B13BB029B03F00103F3B9F2E7214601222C
:404E000050460597CDF8088000F0AAFA2946079000F0F9FA0028DDF808C0059B03DC07D118F0010F04D0B8F1390F0ED008F1010C7C1C87F800C07FE0002A07F101020EDD53
:404E4000B8F1390F3B46079403D1392201371A7057E0144608F1010887F800806CE0089B1746D31A02F8018C069A93423AD021460A220023504600F001F94E4504463146D9
:404E800050464FF00A024FF0000304D100F0F6F8064681466BE700F0F1F8494606460A225046002300F0EAF8814660E7214650460A22002300F0E2F8044620462946FFF713
:404EC00031FA089B00F1300807F8018B069AFB1A9342EBDB089BB146012AACBF9B1801331F46002621460122504600F039FA2946079000F088FA002803DC15D118F0010F7E
:404F000012D03C4614F8013C621E392B09D1089B9A4204D10BF1010B3123089A02E01446F0E70133137007E03C4614F8013C621E302B01D11446F8E75046294600F087F8DE
:404F4000B9F1000F0CD02EB14E4503D05046314600F07DF85046494600F079F800E0B3465046079900F073F80023209A23700BF101031360229B1BB11C6001E00A480FE0EB
:404F800008980DE0069B002B3FF7CAAE1E9B022B3FF7A0AEC4E61E9B022B3FF79BAEC4E615B0BDE8F08F00BF9A5D0000AFF30080004870478881FF1F024B0146186800F0DC
:404FC00041BB00BF8481FF1F10B5C9B202449042034605D01C7801308C42F8D1184610BD002010BD70B5456A04460E463DB91020FFF7E2FF6062456085600560C560656AD5
:40500000EB6843B1636ADB6853F8260078B1026843F8262017E020460421212200F0C0FA636AE860DB68002BECD1002070BD012101FA06F56A1D2046920000F0B1FA00283E
:40504000F3D04660856000230361C36070BD70B5446A06460D463CB91020FFF7ADFF7062446084600460C4603DB1736A6A68DB6853F82210296043F8225070BD2DE9F041E9
:4050800006460C460F69984601F1140E0023DEF80000013385B2010C02FB0585514301EB1541ADB24FEA1148BB4205EB01414EF8041BECDBB8F1000F1BD0A3689F4212DB52
:4050C000616830460131FFF78DFF0546226904F10C01023292000C30FEF73DFC21463046FFF7B5FF2C4604EB87030137C3F8148027612046BDE8F081030C1B0413B90004BA
:40510000102300E0002310F07F4F04BF0002083310F0704F04BF0001043310F0404F04BF80000233002803DB420003D5581C70471846704720207047036813F007020BD001
:40514000D90722D49A074BBF5B089B08036003604CBF01200220704799B209B91B0C102213F0FF0F04BF1B0A0832190704BF1B090432990704BF9B080232D90702D45B08B4
:4051800005D00132036010467047002070472020704710B50C460121FFF724FF01224461026110BD2DE9F74F14460A69236988469A42BEBF0B46A0461C46D8F81070D4F8CE
:4051C0001090D8F80830D8F8041007EB09069E42C8BF0131FFF706FF00F114052B4605EB860C634503D2002243F8042BF9E704F1140208F1140102EB890301EB8707009309
:40520000009B01929A4257D2B2F800B0BBF1000F23D08946AE464FF0000859F8044BBEF800A0A3B20BFB03A34FEA144ADEF8004043444FEA14480BFB0A84F24604EB134457
:405240009BB243EA04434F454FEA14484AF8043B01D9D646E1E7CEF80480019B0432B3F802A0BAF1000F21D02C4689462B684FF00008B9F800E0B4F802B09BB20AFB0EBEC9
:40528000A346F04443EA08434BF8043B59F8043BB4F804E01B0C0AFB03E3B94503EB18434FEA134801D25C46E3E763600435A7E75CF8043D13B9013E002EF9DC066103B044
:4052C000BDE8F08F12F003032DE9F04106460F46154607D0214A013B52F823200023FFF7CDFE0746AD1035D0746A3CB91020FFF763FE7062446084600460C460D6F8248093
:40530000D8F808407CB9304640F27121FFF741FF0023C8F808000446036004E06D1019D0206870B10446EB07F8D5394622463046FFF738FF804639463046FFF788FE4746CE
:40534000ECE7304621462246FFF72CFF002320600360E7E73846BDE8F08100BFE85E00002DE9F0470C460746164623694FEA621A0AEB03094968A36809F101059D4202DD83
:4053800001315B00FAE73846FFF72CFE804600F114010023534504DA002241F823200133F8E72AEAEA73206901EB830316F01F0204F1140101EB800E14D0C2F1200C0020D1
:4053C0000E689A469640304343F8040B51F8040B714520FA0CF0F3D3CAF8040048B109F1020506E0043B51F8042B714543F8042FF9D3013D3846C8F810502146FFF727FE2F
:405400004046BDE8F08703690A6910B59B1A11D192001430143183180A4453F8044D52F8041D8C4202D007D3012010BD8342F4D8002010BD184610BD4FF0FF3010BD2DE922
:40544000F84307460C46084611461546FFF7DBFF061E08D138463146FFF7C4FD012303614661BDE8F883BCBF23462C4638466168BABF1D4601260026FFF7B4FD2B69C66063
:40548000266905F1140904F1140101EB860709EB830800F114054FF0000C51F8042B59F8044B93B29C44A3B2240CC3EB0C03C4EB124202EB23429BB24FEA224CC84543EAF1
:4054C00002428E4645F8042BE7D8BE450ED25EF8043B9AB262441B0C03EB224392B242EA03424FEA234C45F8042BEEE755F8043D0BB9013EFAE70661BDE8F8832DE9F341A4
:405500001C4601211546089F099EFFF76BFDC4F31302C4F30A5480460CB142F480120192EDB102A840F8085DFFF706FE009B50B1019AC0F1200102FA01F10B43C240C8F83B
:405540001430019201E0C8F81430019B002B14BF02250125C8F81830C8F8105009E001A8FFF7EAFD019B0125C8F81430C8F81050203034B1A4F2334404443C60C0F13500FF
:4055800009E0A0F2324008EB850338601869FFF7B3FDC0EB45103060404602B0BDE8F08138B502FB01F4214600F04CF8054618B100212246FEF7DAF9284638BD30B5002996
:4055C0003CD051F8042C0B1F1D49002AB8BF9B180A680C4612B95A600B6030BD93420DD219685818904201BF5A5852181A60426823605A6030BD994203D80A465168002918
:40560000F9D1146815199D420AD11B682344D0188842136012D10868034413604B680CE002D90C23036030BD1C681819884201BF08684968001918605960536030BD00BF1E
:405640001482FF1F70B5CC1C24F0030408340C2C38BF0C24002C064603DA0C233360002070BD8C42F9D3204A136810461946A1B10A68121B0ED40B2A03D90A608B188C504E
:405680001FE08B420BBF5A684A6802605A6018BF0B4616E00B464968E9E7144D2B681BB9304600F071F928603046214600F06CF9421C0346D1D0C51C25F0030585420AD19A
:4056C0001C6003F10B001A1D20F00700821A0AD05142995070BD3046E91A00F055F90130BBD02B46ECE770BD1482FF1F1082FF1F2DE9F0478E688246B3420C469046994673
:4057000040D38A8912F4906F3AD02568096902236F1A656905EB450595FBF3F57B1C4B449D4238BF1D4653050FD52946FFF78AFF064698B121693A46FEF70DF9A38923F4A1
:40574000906343F08003A38113E02A4600F047F9064670B950462169FFF730FF0C23CAF80030A3894FF0FF3043F04003A381BDE8F08726613E4426604E466561ED1BA560A8
:40578000B14500D24E4632462068414600F00CF9A36800209B1BA36023681E442660BDE8F08700002DE9F0439DB003938B8906461C060D4690460CD50B6953B94021FFF70F
:4057C00041FF2860286110B90C233360CCE040236B610023099320238DF8293030238DF82A3043461C4613F8012B1AB9B4EB08090FD002E0252AF5D1F8E730462946424619
:405800004B46FFF775FF013000F0A980099B4B4409932378002B00F0A28000234FF0FF3204930793059206938DF853301A9304F101084446DFF84891217848460522FFF757
:40584000C3FB08F10108049B30B1C9EB00000122824013430493ECE7D80644BF20228DF85320190744BF2B228DF8532022782A2A02D0079923460EE0039A0134111D1268DB
:405880000391002ABBBF524243F0020307920792B8BF04930AE01C4622780133303A092A03D80A2000FB0121F5E7079123782E2B1AD163782A2B0AD1039B02341A1D1B68DF
:4058C0000392002BB8BF4FF0FF3305930CE0611C00220C4623780131303B092B03D80A2000FB0232F5E70592DFF89880217840460322FFF769FB38B1049AC8EB000040234E
:40590000834013430493013421781A48062204F101088DF82810FFF757FB88B1164B33B9039B073323F007030833039313E003AB0093304604A92A46104BFEF7AFF807E06B
:4059400003AB0093304604A92A460C4BFEF762FB421C074603D0099B3B44099341E7AB895B0601D4099801E04FF0FF301DB0BDE8F08300BFFE5E00009D3A0000F1560000CD
:40598000F45E0000FA5E000038B5064C0023054608462360FBF7D4F9431C02D1236803B12B6038BD0083FF1F814210B501EB020301D3421E0BE09842FBD28118D21AD34295
:4059C00004D013F8014D01F8014DF8E710BD994204D011F8014B02F8014FF8E710BDF8B5074615460E4621B91146BDE8F840FFF729BE1AB9FFF7E2FD2846F8BD00F015F831
:405A0000A8420ED238462946FFF71CFE044650B131462A46FDF79FFF38463146FFF7CEFD01E03046F8BD2046F8BD51F8040C0028BEBF091851F8043CC0180438704700008B
:405A40004FEA410212F5001215D211D56FF47873B3EB625212D94FEAC12343F0004343EA505311F0004F23FA02F018BF404270474FF00000704750EA013005D111F00040EF
:405A800008BF6FF0004070474FF00000704700BF000000000000000051756164636F707465722053656E736F727320496E697469616C697A65640000496E636F7272656324
:405AC000742049442C20636865636B20776972696E67206F7220636F64650000616363656C2E78203D20000020616363656C2E79203D200020616363656C2E7A203D20003B
:405B0000206D2F28735E3229000000002020206D61672E78203D2000206D61672E79203D20000000206D61672E7A203D2000000020755465736C6100436F7272656374202A
:405B4000494400006779726F2E78203D20000000207C7C206779726F2E79203D2000000020207C7C206779726F2E7A203D200000496E697469616C697A696E672042617239
:405B80006F6D65746572696320507265737375726520616E642054656D70657261747572652073656E736F723A0000002F2F3D3D3D3D3D3D3D436F756C64206E6F74206628
:405BC000696E6420612076616C6964204261726F6D65747269632073656E736F722C20636865636B20776972696E67213D3D3D3D3D3D3D2F2F0000005468657265206D75B9
:405C0000737420626520616E20697373756520776974682074686520416C7469747564652063616C63756C6174696F6E206F722070726573737572650000000063686563E9
:405C40006B20636F6465206F7220726573746172742071756164636F7074657220616E6420646F6E277420746F7563682E0000002072617754656D70203D20002C20726520
:405C8000616C54656D70203D20000000202A4300207261775072657373757265203D20002C207265616C5072657373757265203D2000000020506100206162736F6C757486
:405CC00065416C746974756465203D2000000000206D2C2072656C6174697665416C746974756465203D2000206D0000202A4320207C20200000000020506120207C2020B5
:405D00000000000025660000C8490040190030510040400000000140800400050140000B00140140000800400140000A004C0140000200500140200080040140440C0048D2
:405D400080000000706F770000000000000000000000004003B8E23F000000000000000006D0CF43EBFD4C3E000000000000F03F000000000000F83F0000000000003043FE
:405D800000000000000030C34300494E4600696E66004E414E006E616E003000303132333435363738394142434445460030313233343536373839616263646566003031E4
:405DC00032333435363738396162636465666768696A6B6C6D6E6F707172737475767778797A00496E66696E697479004E614E00504F534958002E00000000000000F03FA1
:405E0000000000000000244000000000000059400000000000408F40000000000088C34000000000006AF8400000000080842E4100000000D01263410000000084D79741FD
:405E40000000000065CDCD41000000205FA00242000000E876483742000000A2941A6D42000040E59C30A2420000901EC4BCD64200003426F56B0C430080E03779C34143E6
:405E800000A0D8855734764300C84E676DC1AB43003D9160E458E143408CB5781DAF154450EFE2D6E41A4B4492D54D06CFF08044F64AE1C7022DB544B49DD9794378EA44FF
:405EC0000080E03779C34143176E05B5B5B89346F5F93FE9034F384D321D30F94877825A3CBF737FDD4F157505000000190000007D000000232D302B2000686C4C006566D2
:405F00006745464700000000F8B500BFF8BC08BC9E4670474D000000BD0D0000F8B500BFF8BC08BC9E46704729000000405F00000881FF1FB80000004801000000000000A3
:405F4000000000000883FF1F0000E02EC05D00001800000000366E01010000000000000000000000000000000000000000000000000000000000000000000000885D0000AA
:405F80000000000000000000000000000000000000000000000000000000000000000000000000000000000000000000000000000000000000000000000000002481FF1F1E
:405FC000F65D0000F95E0000F95E0000F95E0000F95E0000F95E0000F95E0000F95E0000F95E0000F95E0000FFFFFFFFFFFFFFFFFFFFFFFFFFFF000000000000000000004D
:406000000000000000000000000000000000000000000000000000000000000000000000000000000000000000000000000000000000000000000000000000000000000060
:406040000000000000000000000000000000000000000000000000000000000000000000000000000000000000000000000000000000000000000000000000000000000020
:4060800000000000000000000000000000000000000000000000000000000000000000000000000000000000000000000000000000000000000000000000000000000000E0
:4060C00000000000000000000000000000000000000000000000000000000000000000000000000000000000000000000000000000000000000000000000000000000000A0
:020000040003F7
:0200000480007A
:400000000752004005640040056500405D00014036010140670201404B0301401D0401404F0501405C060140560701405F080140410901400B0B0140030D0140020F014020
:4000400054140140471501405316014053170140491801404D190140491A0140481B01400240014007410140054201400443014002440140034501400748014012490140FC
:40008000074C01400A4D01400A500140025101400040048060026443780179017C02807282388472850D870F860F870F88388A388B72040705010608080609010A091101D7
:4000C00014091502160619021A091C0F2004210224022502280630073102340E35013A203F014002470449FF4A074BFF4C404D204EF04F05500856025713580459045A04DD
:400100005B045C225D225F01604061A862406320831089028B098F10950399039A019D019E019F0AA704B10CB201B303B710BE04BF41C032C104C205C401C50EC60CC80520
:40014000C9FFCAFFCBFFCC62CDA0CEF0CF41D00CD804D904DA04DC20DD02DF01E640E702E910EA30EB10ED10EE10EF120120031005400702089009280E020F08108013144B
:4001800019201B111F042120220124102604274228802B102F2033153680372839143C103F8240044480452847444E024F085004510157405A0269146B2970807218731451
:4001C0007A027B018C04C006C2C7C40ECA43CC77CEB6D0F4D210D601040705040802090C0A010C010D630E06117F15421804190C1A011B731D21210824072763290F2B7076
:400200002D732F0C31103407350F376039023B20401349FF4AFF4BFF4F0150185418580459045A045B045C225D295F016040624064406540668068806A806C806E80830426
:4002400084188501862288018A069020910194129620970199029A409C209E18A10CA428A50CA838AA04AD08AE40B001B23EB303B50CB640B928BE41BF10C013C9FFCAFF02
:40028000CBFFCD83CE03CF01D018D804D904DA04DD09DF01E040E240E440E540E680E880EA80EC80EE8000100104044005100720082009080A420E081020114012081708B7
:4002C000181019801B011F20200421082204251026012706280129082A012C902D202E803229330236843711390E3C403E18408042204341462047405F0265406708811066
:400300008280858086108B018C408F209102921093089404981099609A089B289C809F14A080A204A681A720C0E6C24FC427CAFBCCF7CE73D05AD680D830E008050109013D
:4003400011013101401349FF4AFF4BFF4D834E034F0150185602571259045A045B045C105D195F016040624064406540668068806A806C806E800510064007020C080E452D
:4003800012031404168217081D101F1421022641271028802B402C902D202F0130023601375439143A103E183F8242204340462047404D014F04562057015A085D015E806B
:4003C0005F04640467086802691470087206732082088E01921093029548981099209A089B049CA19D089E219F50A080A108A420A638A702A910AAC0AB01AE04B101C0D023
:40040000C2F0C4F0CAF0CCF1CEF6D05AD6D2E204EA04EC0801100508091C0B200F011118132419181E011F24230225242718293C2E012F013201331C350337383B803F106C
:40044000402441064205440347EC483049FF4AFF4BFF4C624DA04EF04F41500C5280580459045A045B045C195D915F016640670269106A306B106D106E106F1285018706C1
:4004800088028B01970C98019B039F04A50CA703AD01AF0AB201B30EB402B701BB08BE14BF40C042C103C50BC6E0C70CC819C9FFCAFFCBFFCEF0CF44D00CD401D804D904EB
:4004C000DA04DB04DF01E6C0EA40EB02030809200F02174019041B101E2021042240231024202680270928202B022E892F5430803108322033103440372139283CA03D2019
:400500003E4641044312444045024608470A48204D204F80500851205605581059055A80602062C8652067087740781079208140820483108B148C8091049204932895480D
:4005400096499A129B209C819D089EC09F42A10AA20AA301A430A630A702A820AC10AF08C002C282C480CAFACCBECEF6D0E7D230D60FE001E604EE04030807040AC80B0100
:400580000CCA0E340F08170118131A6C1B02201322E4268028032A042B022E3530F03306340F350137083A2A3B023F54403641044205440246EC480C49FF4AFF4BFF4C62C2
:4005C0004DA04EF04F41500C580459045A045C025F016640670269106A306B106D106E106F12851489108A068B0C8C068D1C8E018F02910C92019311960599109E039F03E7
:40060000A602A909AB10B007B71FBA02C021C104C50BC6C0C7E0C829C9FFCAFFCBFFCEF0CF44D00CD804D904DA04DC22DD02DF01E6C0EA40EB02004001200440052008825B
:400640000B200E08101111801220149215201B021CD41E081F10224024802561275029202F08326033023420360838403B243C083E9140864302450147184B044C084E01B0
:4006800050015110568057205A0382108320880289148C10942097029806A001A220A504A702AB01C0C3C24DC4F4CA24CC6DCEFED0EDD230E480E66081048F02942098068C
:4006C000A001A220A810AC01B002E640E8208404A220E0808E20E0100208040C0560061309600A0C0D400E200F201303150916101710190C1B111D401E201F20201121103B
:400700002206230C24112514260E291C2A132B022D103010311F32203340340F372039803A203E053F0440424106450B46E0470C481949FF4AFF4BFF4EF04F44500C5804F5
:4007400059045A045C115D015F0166C06A406B028009820684038D018E1890129201941898189E18A018A403A502AE18B003B218B302B604B701BF44D804D904DC01DF015A
:40078000000402490690070209080B010D820F14105011101545182419201A401C801D021E212205234125402604284029242A402F2031903289388039403B3C3F404080ED
:4007C00041104914510852205320801086109080913593289404964998D099109AD19B029D20A288A440A54AA624AE88B002B140B220B302B502C0BFC2F5C4BECA4FCC0F7F
:40080000CE1ED005D204E00CE409EA09EE220001011002020407050809190B0410041202130619181D191F02200222052301240725072718291F2D01311F36073B02540185
:40084000580459045B045C115D105F01842A8614870189108A288B02910194039604990E9C039D019E1CA10EA220A403A634A701A904AA15AB08AF01B00FB106B318B43887
:40088000B701B90ABA22BF41C004C604C9FFCA07CBFFCC40CD20CEF0CF05D008D401D804D904DA04DB04DC11DD21DF01E040E1A8E240E320000402080690086009080A1072
:4008C0000B040D02101011101240150519111F4021012248248028C129212A082E812F14301031103202338036803722382039103B043D203E064101501051105240582414
:4009000059025A805C025E587D017F40831084048C408D1091049204932C9608978098019A139B229E809F10A282A380A440A510A702A921AB08AC01B008B110B490B50811
:40094000B7C0C036C215C43ECAFFCCBDCEE6D001D6FFE20CE602EA02EE0100100107040305100604080A0A040B080C200F0111061220130114031501160C17061820190607
:400980001D061E201F012104220824032502260429182A052D183020320F331836103707380239083A083B803E403F045418580459045B045F01810884018533870C8933A8
:4009C0008C018D3F9002910F9330973399049A019D0CA10CA333A511A922B403B50FB730B820BB20D804D904DC02DF010006010103020482061808020A040E220F841519B4
:400A000019201C201E201F452220230D26082701286029012B482C222E022F0430A8330134403601371938803A023B243C803D1A3E285F016405822087408C808F1090863B
:400A40009108920494209601970298079A509B409C209D209F08A003A101A302A40CA504A708AA40AC40AE04B120B250B410B60CC0F5C2FAC470CAF7CCFFCEFFD680D830B0
:400A8000E602EA50EC60003F0427061808040A400C1C0E21103C12021A041E23201024082818301F344036383A02541858045B045D105F01830C8410850C86288703890161
:400AC0008B06911094229611983F99109D10A101A30EA409A612A708A83FAB03AC04AD10B004B203B30FB438B710BB08BF40C006C504C9FFCA07CBFFCC40CD20CEF0CF05B4
:400B0000D008D602D713D804D904DA04DB04DF01E040E1A8E240E3200220034504040A440B020E1810A814201550170419011A451C8C1E101F19240125042D082E602F4091
:400B4000362037413C223D0848024B804C104D084E08562059025C01612062406D506E0874A8760277108120850288209420960197209A409B419C209D019E229F10A01345
:400B8000A228A464A504A708AC02B058B401C02FC26BC4EECAF0CCB0CEE0D220D681D80CE008E401EA49EE803040CC100F085E0284409C40C280D680E6103E10A601AB04BE
:400BC000CE20EC2082019610A601E6807840DC0188409C40E00107805F2084049610C020D620E6401220164074047B0282208640A004A302AA10AF82B320C430DC80DE2041
:400C0000E010E480E840EA90132814107B107F408410C40EDE0310408310874088409780A710AB20AF08C408E20100070101080509010A070B010C0510071A061C070003B2
:400C400003C000000F0000200008000003180C00001F0300020000040C070018041C000203000020011000000C0003030F1C0001080400400040001F0F0000200000280862
:400C8000000000401300000000EC20202BFFFFFF008303011800000001000000040404042199000140004000404080008000800080008000000000000000000000000000A2
:400CC00000000000400080404000400000000000830040808300830000000000010002010100010000000000000B0B000000000000C0C0000000000000000000000000008F
:400D000000000000000000000000000000000000000000000000000000000000000000000000000000000000000000000000000000000000000000000000000000000000B3
:400D40000000000000000000000000000000000000000000000000000000000000000000000000000000000000000000000000000000000000000000000000000000000073
:400D80000000000000000000000000000000000000000000000000000000000000000000000000000000000000000000000000000000000000000000000000000000000033
:400DC00000000000000000000000000000000000000000000000000000000000000000000000000000000000000000000000000000000000000000000000000000000000F3
:0200000490006A
:0400000000004005B7
:0200000490105A
:04000000BC90ACAF55
:0200000490303A
:02000000A595C4
:0200000490402A
:4000000000000000000000000000000000000000000000000000000000000000000000000000000000000000000000000000000000000000000000000000000000000000C0
:400040000000000000000000000000000000000000000000000000000000000000000000000000000000000000000000000000000000000000000000000000000000000080
:400080000000000000000000000000000000000000000000000000000000000000000000000000000000000000000000000000000000000000000000000000000000000040
:4000C0000000000000000000000000000000000000000000000000000000000000000000000000000000000000000000000000000000000000000000000000000000000000
:0200000490501A
:0C00000000012E16106900012E3FB5FE15
:00000001FF