:400000000010002011000000B1010000B101000008B500F0D5F8C04638B50F4C23688022D20213432360182000F05AF922680B4B134023600A4A0B4B1A60063A0A4B1A6015
:40004000002525600920094900F02EF9092000F01FF9074B1D6038BD00010B40FFFFFBFF0600008004010B4008010B40F10400000C020B4010B572B60122244B1A70002466
:4000800010E0234863001A195200821891881B195B001A5AC31858880004104300F0F2F80134E4B2012CECD91949081C0C30283100F0CEF8174A184B1A6099221204174B5C
:4000C0001A608022D202164B1A600522154B1A600132154B1A60154B1978043A0A431A70134802783C218A4328390A430270197816220A431A700F4B02221A60DB2212015A
:400100000D4B1A60FFF788FF10BDC0461C700F40DC07000030EE00000C00014030500F4038500F402000004000800F4000700F4001700F40000304400803044010B5064C73
:400140002378002B07D1054B002B02D0044800E000BF0123237010BD4801002000000000D807000008B5084B002B03D00748084900E000BF07480368002B00D108BD064BC4
:40018000002BFBD09847F9E700000000D80700004C010020C80000200000000010B562B600F074FA0024201C00F008FA0134FAE708B500F0DDFA03680C2B00D1FEE7FEE7F2
:4001C00070B50F4E0F4D13E029686B68AC68002202E001C901C30432A242FAD1E868002202E0002102C304328242FAD11035013E002EE9D100F0C2FAFFF7D0FFFEE7C04678
:4002000001000000CC0D000008B500230AE0032B03D89A000A49505800E00A4899000A4A885001332F2BF2D9FFF724FF0022074B1A608022D205116801230B43136008BD89
:4002400000000000B101000000000020C0000020F0B50025002711E0BB00C658F3B2FF22964308E06A008A181478A419527822700135013BDBB2002BF4D10137062FEBD9B9
:40028000F0BDC04608B50A1C002100F09DFA08BD1F2318401E3B8340181C014B1860704700E100E001BE704738B5041C0D1C1F2802D90020FFF7F6FFA400034B9C466444C0
:4002C0002068256038BDC0464000002008B5034B1B7B584300F038FA08BDC046CC000020F0B557464E46C0B483B0041C00F036FA0190E71E2D2F74D83F4B1B78DBB2A342F7
:4003000008D33E4B1B78DBB29A463D4B1B78DBB2994631E03B4B1B78DBB2A34208D33A4B1B78DBB29A46394B1B78DBB2994623E0374B1B78DBB2A34208D3364B1B78DBB24D
:400340009A46354B1B78DBB2994615E0334B1B78DBB2A34208D3324B1B78DBB29A46314B1B78DBB2994607E02F4B1B78DBB29A462E4B1B78DBB299462D4BDE5D2F2E09D908
:400380002A2C07D919222B4B1A60052000F0DCF9192503E0274B1D683F231D40AE4206D2234BDA5D234B1A60052000F0CDF91F4B9C4664442378DBB21F4A13601F4B5246F1
:4003C0001A601F4B4A461A600520FFF77FFFAE420AD9174BDA5D174B1A60052000F0B4F902E00020FFF75EFF019800F0BBF903B00CBC91469A46F0BDC0F1FF0FC1F1FF0F7C
:40040000C2F1FF0FC3F1FF0FC4F1FF0FC5F1FF0FC6F1FF0FC7F1FF0FC8F1FF0FC9F1FF0FCAF1FF0FCBF1FF0FCCF1FF0FCDF1FF0F940900002CFF0B4028FF0B401CFF0B4083
:4004400020FF0B40034B1868C0231B02184000D00120704700010B4008B500F07FF9044A1368C02109020B43136000F07BF908BD00010B4010B500F071F908490A68084BB3
:400480001A408024E40122430A600A6813408022120213430B6000F065F910BD00010B40FF3FFFFF70B5061C00F058F9041CFFF7C9FF002803D0FFF7DDFF012500E000254D
:4004C0000848331C0340084A106808490840184310601368012D01D1FFF7BEFF201C00F041F970BD0404040010020B40FBFBFBFF10B5244B1B685B0715D5234B1B685B077C
:400500000ED5224BD969042001401F4C22688A432260DA698243DA611B69002B00D098470420FFF7BFFF174B1B685B0518D5164B1B685B0510D5154BD9698022D200114045
:40054000114802688A430260D969114A0A40DA615B69002B00D098478020C000FFF7A2FF084B1B685B030CD5074B1B685B0304D5064B9B69002B00D098478020C002FFF72A
:4005800091FF10BD10020B40E000002064010020FFFBFFFF10B500210AE08B009B189B00054C1851013200E00022032AF5D901310029F9D010BDC0469C010020074B1B78D8
:4005C000DB07FBD5C2B2064B1A70020AD2B21A70020CD2B21A70000E1870704763000F4043000F40072834D880001E4B1B589F461D4A1E4B1A6001221D4B1A6030E01D4AF1
:400600001A4B1A6002221A4B1A6029E01A4A174B1A600322164B1A6022E0184A134B1A600422134B1A601BE0154A104B1A6005220F4B1A6014E0134A0C4B1A6006220C4B8A
:400640001A600DE0104A094B1A600722084B1A6006E001225242054B1A600022044B1A607047C046C40900007F7F7F7FAC010020B00100203F3F3F3F1F1F1F1F0F0F0F0FCB
:4006800007070707030303030101010110B50322124B1A701A32124B1A70053A114B1A700A3A114B1A70114C012323700020FFF771FF00232370002000F01EF80020FFF72F
:4006C00091FF0B4B1B7D002B03D10133084A137523700122074B1A6010BDC04692000F4042000F4022000F4032000F4073000F4084010020B401002000280CD10C4A0D4BC7
:400700001A6005220C4B1A6002320C4B1A6019320B4B1A600BE0064A064B1A600522064B1A600232054B1A601932054B1A607047C40B0000C0010020B8010020C4010020F7
:40074000BC010020000000000230800804D0C0460138FDD1C046C046C0467047EFF3108072B6704780F310887047C046C046C046014B18687047C046440100200E4B70B5A7
:4007800000251E1C0D4CE41AA410A54204D0AB00F35898470135F8E700F006FB084B00251E1C084CE41AA410A54204D0AB00F35898470135F8E770BDB40D0000B40D00002D
:4007C000B40D0000BC0D0000031C8218934202D019700133FAE770470000000000300F40000400400F40000404000F4067320F4051330F4004400F4002410F4003430F40DC
:4008000002600F40021812182214320C00010310040108020C080D010E260F0812011319161018061A381B101C011D042002220423082404250328012F06300E31073218A0
:40084000340135083620371039023E103F504015452546224701481F49FF4AFF4BFF4DA0580459045A045B045C995D095F016040614062C064C066C082218308846D85022F
:40088000861287208B578C2190A4925A9504964997909D019E89A249A410A602A957AA49AB08ADA0AF5FB007B3C0B438B530B6C0B70FB802BA80BB28C013C5CEC7B0C823C8
:4008C000C9FFCAFFCBFFD804D904DA04DB04DC99DD09DF01E2C0E440E50100820320048A06080AA20D080E8610A0120815061710188019501A861B221C081D081E801F803A
:400900002001221823042680278429102B022D012F223140320834203501378238013A103B043C803E4240014108478048404A204C804D044F8051015618574058105A408B
:4009400060206101680169016B026C056E026F107020720280208380840488108A208E808F04C0FDC2FDC47ECADCCCBACE97D01AD210D60CD803E240E402E6106C017040F0
:40098000DA80DC208C41948257088708D402020111010000030405060708090A0B0C0E0F101112131415161718191B1C1D1E1F2021222325262728292A2B2E2F303132339E
:4009C0003435000052060000F0050000FE0500000C0600001A060000280600003606000044060000FFFF0000FFCC0000FF990000FF330000FF000000B3006600990099007B
:400A00006600B3003300CC001919B3000033990000409900006699000099990000CC990000E6660000FF000033FF000066FF000080FF000099FF0000B2FF0000CCFF000009
:400A4000E5FF000000000000000055000000AA000000FF0055000000550055005500AA005500FF00AA000000AA005500AA00AA00AA00FF00FF000000FF005500FF00AA00A0
:400A8000FF00FF0000550000005555000055AA000055FF0055550000555555005555AA005555FF00AA550000AA555500AA55AA00AA55FF00FF550000FF555500FF55AA004B
:400AC000FF55FF0000AA000000AA550000AAAA0000AAFF0055AA000055AA550055AAAA0055AAFF00AAAA0000AAAA5500AAAAAA00AAAAFF00FFAA0000FFAA5500FFAAAA00BB
:400B0000FFAAFF0000FF000000FF550000FFAA0000FFFF0055FF000055FF550055FFAA0055FFFF00AAFF0000AAFF5500AAFFAA00AAFFFF00FFFF0000FFFF5500FFFFAA002A
:400B4000FFFFFFFFFF800000FF008000FF00FF008000FF000080FF0000FF8000FF000000202020000000200000000010000000000000000000000000000000000000000071
:400B8000000000000000FF000010F0000020E0000030D0000040C0000050B0000060A00000709000008080000090700000A0600000B0500000C0400000D0300000E0200036
:400BC00000FF0000000000000000005F00000007000700147F147F14242A7F2A12231308646236495522500005030000001C2241000041221C00082A1C2A0808083E080818
:400C000000503000000808080808006060000020100804023E5149453E00427F400042615149462141454B311814127F1027454545393C4A49493001710905033649494934
:400C400036064949291E003636000000563600000008142241141414141441221408000201510906324979413E7E1111117E7F494949363E414141227F4141221C7F4949FD
:400C800049417F090901013E414151327F0808087F00417F41002040413F017F081422417F404040407F0204027F7F0408107F3E4141413E7F090909063E4151215E7F0989
:400CC000192946464949493101017F01013F4040403F1F2040201F7F2018207F63140814630304780403615149454300007F4141020408102041417F0000040201020440B9
:400D000040404040000102040020545454787F484444383844444420384444487F3854545418087E090102081454543C7F0804047800447D40002040443D00007F10284424
:400D400000417F40007C041804787C0804047838444444387C14141408081414187C7C080404084854545420043F4440203C4040207C1C2040201C3C4030403C44281028E0
:400D8000440C5050503C4464544C44000836410000007F0000004136080008082A1C08081C2A080843000000F8B5C046F8BC08BC9E4670476501000009020000F8B5C046C5
:400DC000F8BC08BC9E4670473D010000E00D0000C800002080000000800000000000000000000000010000000000E02EC05D00001800000000366E010404040000000000D8
:400E000000000000000000000000000000000000000000000000000000000000A40D0000000000000000000000000000000000000000000000000000000000000000000001
:400E400000000000000000000000000000000000000000000000000000000000E400002000000000000000000000000000000000000000000000000000000000000000006E
:400E800000100020910E0000391000003910000008B5024B83F3088800F0D6F80010002038B50F4C23688022D20213432360182000F062F922680B4B134023600A4A0B4BCE
:400EC0001A60063A0A4B1A60002525600920094900F036F9092000F027F9074B1D6038BD00010B40FFFFFBFF0600008004010B4008010B40891300000C020B4010B572B6D8
:400F00000122244B1A70002410E0234863001A195200821891881B195B001A5AC31858880004104300F0FAF80134E4B2012CECD91949081C0C30283100F0D6F8174A184B2A
:400F40001A6099221204174B1A608022D202164B1A600522154B1A600132154B1A60154B1978043A0A431A70134802783C218A4328390A430270197816220A431A700F4BCC
:400F800002221A60DB2212010D4B1A60FFF788FF10BDC0461C700F407416000030EE00000C00014030500F4038500F402000004000800F4000700F4001700F4000030440F6
:400FC0000803044010B5064C2378002B07D1054B002B02D0044800E000BF0123237010BD50010020000000007016000008B5084B002B03D00748084900E000BF0748036833
:40100000002B00D108BD064B002BFBD09847F9E7000000007016000054010020D00000200000000010B562B600F07CFA0024201C00F010FA0134FAE708B500F0E5FA036854
:401040000C2B00D1FEE7FEE770B50F4E0F4D13E029686B68AC68002202E001C901C30432A242FAD1E868002202E0002102C304328242FAD11035013E002EE9D100F0CAFABF
:40108000FFF7D0FFFEE7C04601000000641C000008B500230AE0032B03D89A000D49505800E00D4899000D4A885001332F2BF2D9FFF724FF00220A4B1A600A4B1B68002B31
:4010C00001D1084B1A608022D205116801230B43136008BD800E00003910000000000020C8000020C0000020F0B50025002711E0BB00C658F3B2FF22964308E06A008A18A8
:401100001478A419527822700135013BDBB2002BF4D10137062FEBD9F0BDC04608B50A1C002100F09DFA08BD1F2318401E3B8340181C014B1860704700E100E001BE70474B
:4011400038B5041C0D1C1F2802D90020FFF7F6FFA400034B9C4664442068256038BDC0464000002008B5034B1B7B584300F038FA08BDC046D4000020F0B557464E46C0B4C1
:4011800083B0041C00F036FA0190E71E2D2F74D83F4B1B78DBB2A34208D33E4B1B78DBB29A463D4B1B78DBB2994631E03B4B1B78DBB2A34208D33A4B1B78DBB29A46394B84
:4011C0001B78DBB2994623E0374B1B78DBB2A34208D3364B1B78DBB29A46354B1B78DBB2994615E0334B1B78DBB2A34208D3324B1B78DBB29A46314B1B78DBB2994607E059
:401200002F4B1B78DBB29A462E4B1B78DBB299462D4BDE5D2F2E09D92A2C07D919222B4B1A60052000F0DCF9192503E0274B1D683F231D40AE4206D2234BDA5D234B1A6053
:40124000052000F0CDF91F4B9C4664442378DBB21F4A13601F4B52461A601F4B4A461A600520FFF77FFFAE420AD9174BDA5D174B1A60052000F0B4F902E00020FFF75EFFB3
:40128000019800F0BBF903B00CBC91469A46F0BDC0F1FF0FC1F1FF0FC2F1FF0FC3F1FF0FC4F1FF0FC5F1FF0FC6F1FF0FC7F1FF0FC8F1FF0FC9F1FF0FCAF1FF0FCBF1FF0FDC
:4012C000CCF1FF0FCDF1FF0F2C1800002CFF0B4028FF0B401CFF0B4020FF0B40034B1868C0231B02184000D00120704700010B4008B500F07FF9044A1368C02109020B4319
:40130000136000F07BF908BD00010B4010B500F071F908490A68084B1A408024E40122430A600A6813408022120213430B6000F065F910BD00010B40FF3FFFFF70B5061CB8
:4013400000F058F9041CFFF7C9FF002803D0FFF7DDFF012500E000250848331C0340084A106808490840184310601368012D01D1FFF7BEFF201C00F041F970BD0404040079
:4013800010020B40FBFBFBFF10B5244B1B685B0715D5234B1B685B070ED5224BD969042001401F4C22688A432260DA698243DA611B69002B00D098470420FFF7BFFF174B74
:4013C0001B685B0518D5164B1B685B0510D5154BD9698022D2001140114802688A430260D969114A0A40DA615B69002B00D098478020C000FFF7A2FF084B1B685B030CD5CF
:40140000074B1B685B0304D5064B9B69002B00D098478020C002FFF791FF10BD10020B40E80000206C010020FFFBFFFF10B500210AE08B009B189B00054C1851013200E05C
:401440000022032AF5D901310029F9D010BDC046A4010020074B1B78DB07FBD5C2B2064B1A70020AD2B21A70020CD2B21A70000E1870704763000F4043000F40072834D8AB
:4014800080001E4B1B589F461D4A1E4B1A6001221D4B1A6030E01D4A1A4B1A6002221A4B1A6029E01A4A174B1A600322164B1A6022E0184A134B1A600422134B1A601BE0C5
:4014C000154A104B1A6005220F4B1A6014E0134A0C4B1A6006220C4B1A600DE0104A094B1A600722084B1A6006E001225242054B1A600022044B1A607047C0465C18000014
:401500007F7F7F7FB4010020B80100203F3F3F3F1F1F1F1F0F0F0F0F07070707030303030101010110B50322124B1A701A32124B1A70053A114B1A700A3A114B1A70114C71
:40154000012323700020FFF771FF00232370002000F01EF80020FFF791FF0B4B1B7D002B03D10133084A137523700122074B1A6010BDC04692000F4042000F4022000F4079
:4015800032000F4073000F408C010020BC01002000280CD10C4A0D4B1A6005220C4B1A6002320C4B1A6019320B4B1A600BE0064A064B1A600522064B1A600232054B1A6023
:4015C0001932054B1A6070475C1A0000C8010020C0010020CC010020C4010020000000000230800804D0C0460138FDD1C046C046C0467047EFF3108072B6704780F310884D
:401600007047C046C046C046014B18687047C0464C0100200E4B70B500251E1C0D4CE41AA410A54204D0AB00F35898470135F8E700F006FB084B00251E1C084CE41AA410B5
:40164000A54204D0AB00F35898470135F8E770BD4C1C00004C1C00004C1C0000541C0000031C8218934202D019700133FAE770470000000000300F40000400400F40000425
:4016800004000F4067320F4051330F4004400F4002410F4003430F4002600F40021812182214320C00010310040108020C080D010E260F0812011319161018061A381B1069
:4016C0001C011D042002220423082404250328012F06300E31073218340135083620371039023E103F504015452546224701481F49FF4AFF4BFF4DA0580459045A045B0490
:401700005C995D095F016040614062C064C066C082218308846D8502861287208B578C2190A4925A9504964997909D019E89A249A410A602A957AA49AB08ADA0AF5FB0074A
:40174000B3C0B438B530B6C0B70FB802BA80BB28C013C5CEC7B0C823C9FFCAFFCBFFD804D904DA04DB04DC99DD09DF01E2C0E440E50100820320048A06080AA20D080E86FC
:4017800010A0120815061710188019501A861B221C081D081E801F802001221823042680278429102B022D012F223140320834203501378238013A103B043C803E424001D4
:4017C0004108478048404A204C804D044F8051015618574058105A4060206101680169016B026C056E026F107020720280208380840488108A208E808F04C0FDC2FDC47E50
:40180000CADCCCBACE97D01AD210D60CD803E240E402E6106C017040DA80DC208C41948257088708D402020111010000030405060708090A0B0C0E0F10111213141516175D
:4018400018191B1C1D1E1F2021222325262728292A2B2E2F3031323334350000EA1400008814000096140000A4140000B2140000C0140000CE140000DC140000FFFF000016
:40188000FFCC0000FF990000FF330000FF000000B3006600990099006600B3003300CC001919B3000033990000409900006699000099990000CC990000E6660000FF0000C6
:4018C00033FF000066FF000080FF000099FF0000B2FF0000CCFF0000E5FF000000000000000055000000AA000000FF0055000000550055005500AA005500FF00AA000000E0
:40190000AA005500AA00AA00AA00FF00FF000000FF005500FF00AA00FF00FF0000550000005555000055AA000055FF0055550000555555005555AA005555FF00AA550000BA
:40194000AA555500AA55AA00AA55FF00FF550000FF555500FF55AA00FF55FF0000AA000000AA550000AAAA0000AAFF0055AA000055AA550055AAAA0055AAFF00AAAA00002A
:40198000AAAA5500AAAAAA00AAAAFF00FFAA0000FFAA5500FFAAAA00FFAAFF0000FF000000FF550000FFAA0000FFFF0055FF000055FF550055FFAA0055FFFF00AAFF00009A
:4019C000AAFF5500AAFFAA00AAFFFF00FFFF0000FFFF5500FFFFAA00FFFFFFFFFF800000FF008000FF00FF008000FF000080FF0000FF8000FF000000202020000000200001
:401A0000000000100000000000000000000000000000000000000000000000000000FF000010F0000020E0000030D0000040C0000050B0000060A000007090000080800097
:401A40000090700000A0600000B0500000C0400000D0300000E0200000FF0000000000000000005F00000007000700147F147F14242A7F2A1223130864623649552250006D
:401A800005030000001C2241000041221C00082A1C2A0808083E080800503000000808080808006060000020100804023E5149453E00427F400042615149462141454B319A
:401AC0001814127F1027454545393C4A49493001710905033649494936064949291E0036360000005636000000081422411414141414412214080002015109063249794107
:401B00003E7E1111117E7F494949363E414141227F4141221C7F494949417F090901013E414151327F0808087F00417F41002040413F017F081422417F404040407F0204DB
:401B4000027F7F0408107F3E4141413E7F090909063E4151215E7F09192946464949493101017F01013F4040403F1F2040201F7F2018207F63140814630304780403615137
:401B800049454300007F4141020408102041417F000004020102044040404040000102040020545454787F484444383844444420384444487F3854545418087E0901020814
:401BC0001454543C7F0804047800447D40002040443D00007F10284400417F40007C041804787C0804047838444444387C14141408081414187C7C08040408485454542039
:401C0000043F4440203C4040207C1C2040201C3C4030403C44281028440C5050503C4464544C44000836410000007F0000004136080008082A1C08081C2A0808430000005D
:401C4000F8B5C046F8BC08BC9E467047ED0F000091100000F8B5C046F8BC08BC9E467047C50F0000781C0000D00000208000000080000000000000000000000001000000E2
:401C80000000E02EC05D00001800000000366E010404040000000000000000000000000000000000000000000000000000000000000000003C1C00000000000000000000D8
:401CC00000000000000000000000000000000000000000000000000000000000000000000000000000000000000000000000000000000000EC0000200000000000000000D8
:401D000000100020111D0000C11E0000C11E000008B5024B83F3088800F0DAF80010002038B50F4C23688022D20213432360182000F07EF922680B4B134023600A4A0B4B64
:401D40001A60063A0A4B1A60002525600920094900F03AF9092000F02BF9074B1D6038BD00010B40FFFFFBFF0600008004010B4008010B40412200000C020B4010B572B67A
:401D80000122244B1A70002410E0234863001A195200821891881B195B001A5AC31858880004104300F0FEF80134E4B2012CECD91949081C0C30283100F0DAF8174A184B94
:401DC0001A6099221204174B1A608022D202164B1A600522154B1A600132154B1A60154B1978043A0A431A70134802783C218A4328390A430270197816220A431A700F4B3E
:401E000002221A60DB2212010D4B1A60FFF788FF10BDC0461C700F402C25000030EE00000C00014030500F4038500F402000004000800F4000700F4001700F4000030440A0
:401E40000803044010B5064C2378002B07D1054B002B02D0044800E000BF0123237010BD50010020000000002825000008B5084B002B03D00748084900E000BF07480368DD
:401E8000002B00D108BD064B002BFBD09847F9E7000000002825000054010020D00000200000000010B562B600F098FA0024201C00F02CFA01340A2000F098F8F7E7C04611
:401EC00008B500F0FDFA03680C2B00D1FEE7FEE770B50F4E0F4D13E029686B68AC68002202E001C901C30432A242FAD1E868002202E0002102C304328242FAD11035013EBE
:401F0000002EE9D100F0E2FAFFF7CCFFFEE7C046010000001C2B000008B500230AE0032B03D89A000D49505800E00D4899000D4A885001332F2BF2D9FFF720FF00220A4BAC
:401F40001A600A4B1B68002B01D1084B1A608022D205116801230B43136008BD001D0000C11E000000000020C8000020C0000020F0B50025002711E0BB00C658F3B2FF2244
:401F8000964308E06A008A181478A419527822700135013BDBB2002BF4D10137062FEBD9F0BDC04608B50A1C002100F0B5FA08BD1F2318401E3B8340181C014B186070470F
:401FC00000E100E001BE704738B5041C0D1C1F2802D90020FFF7F6FFA400034B9C4664442068256038BDC0464000002010B5041C06E0084B586800F04FFA074B9C46644470
:4020000080231B029C42F4D8024B9868604300F043FA10BDD40000200080FFFF08B5034B1B7B584300F038FA08BDC046D4000020F0B557464E46C0B483B0041C00F036FA00
:402040000190E71E2D2F74D83F4B1B78DBB2A34208D33E4B1B78DBB29A463D4B1B78DBB2994631E03B4B1B78DBB2A34208D33A4B1B78DBB29A46394B1B78DBB2994623E026
:40208000374B1B78DBB2A34208D3364B1B78DBB29A46354B1B78DBB2994615E0334B1B78DBB2A34208D3324B1B78DBB29A46314B1B78DBB2994607E02F4B1B78DBB29A4612
:4020C0002E4B1B78DBB299462D4BDE5D2F2E09D92A2C07D919222B4B1A60052000F0DCF9192503E0274B1D683F231D40AE4206D2234BDA5D234B1A60052000F0CDF91F4BBA
:402100009C4664442378DBB21F4A13601F4B52461A601F4B4A461A600520FFF77FFFAE420AD9174BDA5D174B1A60052000F0B4F902E00020FFF746FF019800F0BBF903B051
:402140000CBC91469A46F0BDC0F1FF0FC1F1FF0FC2F1FF0FC3F1FF0FC4F1FF0FC5F1FF0FC6F1FF0FC7F1FF0FC8F1FF0FC9F1FF0FCAF1FF0FCBF1FF0FCCF1FF0FCDF1FF0F66
:40218000E42600002CFF0B4028FF0B401CFF0B4020FF0B40034B1868C0231B02184000D00120704700010B4008B500F07FF9044A1368C02109020B43136000F07BF908BD7F
:4021C00000010B4010B500F071F908490A68084B1A408024E40122430A600A6813408022120213430B6000F065F910BD00010B40FF3FFFFF70B5061C00F058F9041CFFF72F
:40220000C9FF002803D0FFF7DDFF012500E000250848331C0340084A106808490840184310601368012D01D1FFF7BEFF201C00F041F970BD0404040010020B40FBFBFBFFB4
:4022400010B5244B1B685B0715D5234B1B685B070ED5224BD969042001401F4C22688A432260DA698243DA611B69002B00D098470420FFF7BFFF174B1B685B0518D5164BC1
:402280001B685B0510D5154BD9698022D2001140114802688A430260D969114A0A40DA615B69002B00D098478020C000FFF7A2FF084B1B685B030CD5074B1B685B0304D525
:4022C000064B9B69002B00D098478020C002FFF791FF10BD10020B40E80000206C010020FFFBFFFF10B500210BE04B005B189B189B00054C1851013200E00022022AF4D94B
:4023000001310029F9D010BDA4010020074B1B78DB07FBD5C2B2064B1A70020AD2B21A70020CD2B21A70000E1870704763000F4043000F40072834D880001E4B1B589F46BE
:402340001D4A1E4B1A6001221D4B1A6030E01D4A1A4B1A6002221A4B1A6029E01A4A174B1A600322164B1A6022E0184A134B1A600422134B1A601BE0154A104B1A600522DC
:402380000F4B1A6014E0134A0C4B1A6006220C4B1A600DE0104A094B1A600722084B1A6006E001225242054B1A600022044B1A607047C046142700007F7F7F7FB00100200C
:4023C000B40100203F3F3F3F1F1F1F1F0F0F0F0F07070707030303030101010110B50322124B1A701A32124B1A70053A114B1A700A3A114B1A70114C012323700020FFF7AB
:4024000071FF00232370002000F01EF80020FFF791FF0B4B1B7D002B03D10133084A137523700122074B1A6010BDC04692000F4042000F4022000F4032000F4073000F4034
:402440008C010020B801002000280CD10C4A0D4B1A6005220C4B1A6002320C4B1A6019320B4B1A600BE0064A064B1A600522064B1A600232054B1A601932054B1A607047CF
:4024800014290000C4010020BC010020C8010020C0010020000000000230800804D0C0460138FDD1C046C046C0467047EFF3108072B6704780F310887047C046C046C046CA
:4024C000014B18687047C0464C0100200E4B70B500251E1C0D4CE41AA410A54204D0AB00F35898470135F8E700F006FB084B00251E1C084CE41AA410A54204D0AB00F358FF
:4025000098470135F8E770BD042B0000042B0000042B00000C2B0000031C8218934202D019700133FAE770470000000000300F40000400400F40000404000F4067320F40B0
:4025400051330F4004400F4002410F4003430F4002600F40021812182214320C00010310040108020C080D010E260F0812011319161018061A381B101C011D04200222044F
:4025800023082404250328012F06300E31073218340135083620371039023E103F504015452546224701481F49FF4AFF4BFF4DA0580459045A045B045C995D095F016040EC
:4025C000614062C064C066C082218308846D8502861287208B578C2190A4925A9504964997909D019E89A249A410A602A957AA49AB08ADA0AF5FB007B3C0B438B530B6C01D
:40260000B70FB802BA80BB28C013C5CEC7B0C823C9FFCAFFCBFFD804D904DA04DB04DC99DD09DF01E2C0E440E50100820320048A06080AA20D080E8610A0120815061710DB
:40264000188019501A861B221C081D081E801F802001221823042680278429102B022D012F223140320834203501378238013A103B043C803E4240014108478048404A200F
:402680004C804D044F8051015618574058105A4060206101680169016B026C056E026F107020720280208380840488108A208E808F04C0FDC2FDC47ECADCCCBACE97D01A08
:4026C000D210D60CD803E240E402E6106C017040DA80DC208C41948257088708D402020111010000030405060708090A0B0C0E0F101112131415161718191B1C1D1E1F2028
:4027000021222325262728292A2B2E2F3031323334350000A2230000402300004E2300005C2300006A230000782300008623000094230000FFFF0000FFCC0000FF9900008E
:40274000FF330000FF000000B3006600990099006600B3003300CC001919B3000033990000409900006699000099990000CC990000E6660000FF000033FF000066FF0000C3
:4027800080FF000099FF0000B2FF0000CCFF0000E5FF000000000000000055000000AA000000FF0055000000550055005500AA005500FF00AA000000AA005500AA00AA0055
:4027C000AA00FF00FF000000FF005500FF00AA00FF00FF0000550000005555000055AA000055FF0055550000555555005555AA005555FF00AA550000AA555500AA55AA0042
:40280000AA55FF00FF550000FF555500FF55AA00FF55FF0000AA000000AA550000AAAA0000AAFF0055AA000055AA550055AAAA0055AAFF00AAAA0000AAAA5500AAAAAA00B1
:40284000AAAAFF00FFAA0000FFAA5500FFAAAA00FFAAFF0000FF000000FF550000FFAA0000FFFF0055FF000055FF550055FFAA0055FFFF00AAFF0000AAFF5500AAFFAA0021
:40288000AAFFFF00FFFF0000FFFF5500FFFFAA00FFFFFFFFFF800000FF008000FF00FF008000FF000080FF0000FF8000FF0000002020200000002000000000100000000073
:4028C00000000000000000000000000000000000000000000000FF000010F0000020E0000030D0000040C0000050B0000060A00000709000008080000090700000A06000D9
:4029000000B0500000C0400000D0300000E0200000FF0000000000000000005F00000007000700147F147F14242A7F2A12231308646236495522500005030000001C224117
:40294000000041221C00082A1C2A0808083E080800503000000808080808006060000020100804023E5149453E00427F400042615149462141454B311814127F10274545D4
:4029800045393C4A49493001710905033649494936064949291E003636000000563600000008142241141414141441221408000201510906324979413E7E1111117E7F4981
:4029C0004949363E414141227F4141221C7F494949417F090901013E414151327F0808087F00417F41002040413F017F081422417F404040407F0204027F7F0408107F3E69
:402A00004141413E7F090909063E4151215E7F09192946464949493101017F01013F4040403F1F2040201F7F2018207F63140814630304780403615149454300007F41416F
:402A4000020408102041417F000004020102044040404040000102040020545454787F484444383844444420384444487F3854545418087E090102081454543C7F08040490
:402A80007800447D40002040443D00007F10284400417F40007C041804787C0804047838444444387C14141408081414187C7C080404084854545420043F4440203C40404E
:402AC000207C1C2040201C3C4030403C44281028440C5050503C4464544C44000836410000007F0000004136080008082A1C08081C2A080843000000F8B5C046F8BC08BC07
:402B00009E4670476D1E0000191F0000F8B5C046F8BC08BC9E467047451E0000302B0000D000002080000000800000000000000000000000010000000000E02EC05D000097
:402B40001800000000366E01040404000000000000000000000000000000000000000000000000000000000000000000F42A0000000000000000000000000000000000006E
:402B80000000000000000000000000000000000000000000000000000000000000000000000000000000000000000000EC0000200000000000000000000000000000000009
:402BC00000000000000000000000000000000000000000000000000000000000000000000000000000000000000000000000000000000000000000000000000000000000D5
:402C000000100020112C0000DD2D0000DD2D000008B5024B83F3088800F0E8F80010002038B50F4C23688022D20213432360182000F08CF922680B4B134023600A4A0B4BD4
:402C40001A60063A0A4B1A60002525600920094900F048F9092000F039F9074B1D6038BD00010B40FFFFFBFF0600008004010B4008010B405D3100000C020B4010B572B624
:402C80000122264B1A70002410E0254863001A195200821891881B195B001A5AC31858880004104300F00CF90134E4B2012CECD91B49081C0C30283100F0E8F8194A1A4B5E
:402CC0001A6099231B04194A1360194A13608022D202184B1A600522174B1A600620174B1860174B1978033A0A431A70154C22783C218A4328390A432270197816220A43FB
:402D00001A70114B1860114B02221A60DB2212010F4B1A60FFF784FF10BDC0461C700F406C34000030EE00000C00014000500F4030500F4038500F402000004000800F40B1
:402D400000700F4001700F4008000440000304400803044010B5064C2378002B07D1054B002B02D0044800E000BF0123237010BD50010020000000006834000008B5084B64
:402D8000002B03D00748084900E000BF07480368002B00D108BD064B002BFBD09847F9E7000000006834000054010020D00000200000000010B562B600F09EFA0024201C8F
:402DC00000F032FA00F000FBC043C0B200F0F0FA0A34642000F098F8F1E7C04608B500F00FFB03680C2B00D1FEE7FEE770B50F4E0F4D13E029686B68AC68002202E001C952
:402E000001C30432A242FAD1E868002202E0002102C304328242FAD11035013E002EE9D100F0F4FAFFF7C6FFFEE7C046010000005C3A000008B500230AE0032B03D89A00F6
:402E40000D49505800E00D4899000D4A885001332F2BF2D9FFF712FF00220A4B1A600A4B1B68002B01D1084B1A608022D205116801230B43136008BD002C0000DD2D000092
:402E800000000020C8000020C0000020F0B50025002711E0BB00C658F3B2FF22964308E06A008A181478A419527822700135013BDBB2002BF4D10137062FEBD9F0BDC04664
:402EC00008B50A1C002100F0C7FA08BD1F2318401E3B8340181C014B1860704700E100E001BE704738B5041C0D1C1F2802D90020FFF7F6FFA400034B9C46644420682560D0
:402F000038BDC0464000002010B5041C06E0084B586800F061FA074B9C46644480231B029C42F4D8024B9868604300F055FA10BDD40000200080FFFF08B5034B1B7B58431D
:402F400000F04AFA08BDC046D4000020F0B557464E46C0B483B0041C00F048FA0190E71E2D2F74D83F4B1B78DBB2A34208D33E4B1B78DBB29A463D4B1B78DBB2994631E0C6
:402F80003B4B1B78DBB2A34208D33A4B1B78DBB29A46394B1B78DBB2994623E0374B1B78DBB2A34208D3364B1B78DBB29A46354B1B78DBB2994615E0334B1B78DBB2A342C6
:402FC00008D3324B1B78DBB29A46314B1B78DBB2994607E02F4B1B78DBB29A462E4B1B78DBB299462D4BDE5D2F2E09D92A2C07D919222B4B1A60052000F0EEF9192503E0B5
:40300000274B1D683F231D40AE4206D2234BDA5D234B1A60052000F0DFF91F4B9C4664442378DBB21F4A13601F4B52461A601F4B4A461A600520FFF77FFFAE420AD9174BE2
:40304000DA5D174B1A60052000F0C6F902E00020FFF746FF019800F0CDF903B00CBC91469A46F0BDC0F1FF0FC1F1FF0FC2F1FF0FC3F1FF0FC4F1FF0FC5F1FF0FC6F1FF0FB0
:40308000C7F1FF0FC8F1FF0FC9F1FF0FCAF1FF0FCBF1FF0FCCF1FF0FCDF1FF0F243600002CFF0B4028FF0B401CFF0B4020FF0B40034B1868C0231B02184000D001207047B1
:4030C00000010B4008B500F091F9044A1368C02109020B43136000F08DF908BD00010B4010B500F083F908490A68084B1A408024E40122430A600A68134080221202134386
:403100000B6000F077F910BD00010B40FF3FFFFF70B5061C00F06AF9041CFFF7C9FF002803D0FFF7DDFF012500E000250848331C0340084A10680849084018431060136874
:40314000012D01D1FFF7BEFF201C00F053F970BD0404040010020B40FBFBFBFF10B5244B1B685B0715D5234B1B685B070ED5224BD969042001401F4C22688A432260DA69CA
:403180008243DA611B69002B00D098470420FFF7BFFF174B1B685B0518D5164B1B685B0510D5154BD9698022D2001140114802688A430260D969114A0A40DA615B69002B14
:4031C00000D098478020C000FFF7A2FF084B1B685B030CD5074B1B685B0304D5064B9B69002B00D098478020C002FFF791FF10BD10020B40E80000206C010020FFFBFFFF3A
:4032000010B500210BE04B005B189B189B00054C1851013200E00022022AF4D901310029F9D010BDA4010020074B1B78DB07FBD5C2B2064B1A70020AD2B21A70020CD2B281
:403240001A70000E1870704763000F4043000F40072834D880001E4B1B589F461D4A1E4B1A6001221D4B1A6030E01D4A1A4B1A6002221A4B1A6029E01A4A174B1A600322A1
:40328000164B1A6022E0184A134B1A600422134B1A601BE0154A104B1A6005220F4B1A6014E0134A0C4B1A6006220C4B1A600DE0104A094B1A600722084B1A6006E00122A0
:4032C0005242054B1A600022044B1A607047C046543600007F7F7F7FB0010020B40100203F3F3F3F1F1F1F1F0F0F0F0F07070707030303030101010110B50322124B1A70EB
:403300001A32124B1A70053A114B1A700A3A114B1A70114C012323700020FFF771FF00232370002000F01EF80020FFF791FF0B4B1B7D002B03D10133084A1375237001223E
:40334000074B1A6010BDC04692000F4042000F4022000F4032000F4073000F408C010020B801002000280CD10C4A0D4B1A6005220C4B1A6002320C4B1A6019320B4B1A60BD
:403380000BE0064A064B1A600522064B1A600232054B1A601932054B1A60704754380000C4010020BC010020C8010020C0010020031C04490868FE22024001201840104329
:4033C0000860704700000440024B1868012318407047C046040004400230800804D0C0460138FDD1C046C046C0467047EFF3108072B6704780F310887047C046C046C04693
:40340000014B18687047C0464C0100200E4B70B500251E1C0D4CE41AA410A54204D0AB00F35898470135F8E700F006FB084B00251E1C084CE41AA410A54204D0AB00F358AF
:4034400098470135F8E770BD443A0000443A0000443A00004C3A0000031C8218934202D019700133FAE770470000000000300F40000400400F40000404000F4067320F4025
:4034800051330F4004400F4002410F4003430F4002600F40021812182214320C00010310040108020C080D010E260F0812011319161018061A381B101C011D042002220400
:4034C00023082404250328012F06300E31073218340135083620371039023E103F504015452546224701481F49FF4AFF4BFF4DA0580459045A045B045C995D095F0160409D
:40350000614062C064C066C082218308846D8502861287208B578C2190A4925A9504964997909D019E89A249A410A602A957AA49AB08ADA0AF5FB007B3C0B438B530B6C0CD
:40354000B70FB802BA80BB28C013C5CEC7B0C823C9FFCAFFCBFFD804D904DA04DB04DC99DD09DF01E2C0E440E50100820320048A06080AA20D080E8610A01208150617108C
:40358000188019501A861B221C081D081E801F802001221823042680278429102B022D012F223140320834203501378238013A103B043C803E4240014108478048404A20C0
:4035C0004C804D044F8051015618574058105A4060206101680169016B026C056E026F107020720280208380840488108A208E808F04C0FDC2FDC47ECADCCCBACE97D01AB9
:40360000D210D60CD803E240E402E6106C017040DA80DC208C41948257088708D402020111010000030405060708090A0B0C0E0F101112131415161718191B1C1D1E1F20D8
:4036400021222325262728292A2B2E2F3031323334350000BE3200005C3200006A320000783200008632000094320000A2320000B0320000FFFF0000FFCC0000FF990000E7
:40368000FF330000FF000000B3006600990099006600B3003300CC001919B3000033990000409900006699000099990000CC990000E6660000FF000033FF000066FF000074
:4036C00080FF000099FF0000B2FF0000CCFF0000E5FF000000000000000055000000AA000000FF0055000000550055005500AA005500FF00AA000000AA005500AA00AA0006
:40370000AA00FF00FF000000FF005500FF00AA00FF00FF0000550000005555000055AA000055FF0055550000555555005555AA005555FF00AA550000AA555500AA55AA00F2
:40374000AA55FF00FF550000FF555500FF55AA00FF55FF0000AA000000AA550000AAAA0000AAFF0055AA000055AA550055AAAA0055AAFF00AAAA0000AAAA5500AAAAAA0062
:40378000AAAAFF00FFAA0000FFAA5500FFAAAA00FFAAFF0000FF000000FF550000FFAA0000FFFF0055FF000055FF550055FFAA0055FFFF00AAFF0000AAFF5500AAFFAA00D2
:4037C000AAFFFF00FFFF0000FFFF5500FFFFAA00FFFFFFFFFF800000FF008000FF00FF008000FF000080FF0000FF8000FF0000002020200000002000000000100000000024
:4038000000000000000000000000000000000000000000000000FF000010F0000020E0000030D0000040C0000050B0000060A00000709000008080000090700000A0600089
:4038400000B0500000C0400000D0300000E0200000FF0000000000000000005F00000007000700147F147F14242A7F2A12231308646236495522500005030000001C2241C8
:40388000000041221C00082A1C2A0808083E080800503000000808080808006060000020100804023E5149453E00427F400042615149462141454B311814127F1027454585
:4038C00045393C4A49493001710905033649494936064949291E003636000000563600000008142241141414141441221408000201510906324979413E7E1111117E7F4932
:403900004949363E414141227F4141221C7F494949417F090901013E414151327F0808087F00417F41002040413F017F081422417F404040407F0204027F7F0408107F3E19
:403940004141413E7F090909063E4151215E7F09192946464949493101017F01013F4040403F1F2040201F7F2018207F63140814630304780403615149454300007F414120
:40398000020408102041417F000004020102044040404040000102040020545454787F484444383844444420384444487F3854545418087E090102081454543C7F08040441
:4039C0007800447D40002040443D00007F10284400417F40007C041804787C0804047838444444387C14141408081414187C7C080404084854545420043F4440203C4040FF
:403A0000207C1C2040201C3C4030403C44281028440C5050503C4464544C44000836410000007F0000004136080008082A1C08081C2A080843000000F8B5C046F8BC08BCB7
:403A40009E4670477D2D0000352E0000F8B5C046F8BC08BC9E467047552D0000703A0000D000002080000000800000000000000000000000010000000000E02EC05D000090
:403A80001800000000366E01040404000000000000000000000000000000000000000000000000000000000000000000343A000000000000000000000000000000000000CF
:403AC0000000000000000000000000000000000000000000000000000000000000000000000000000000000000000000EC00002000000000000000000000000000000000BA
:403B00000000000000000000000000000000000000000000000000000000000000000000000000000000000000000000000000000000000000000000000000000000000085
:403B40000000000000000000000000000000000000000000000000000000000000000000000000000000000000000000000000000000000000000000000000000000000045
:403B80000000000000000000000000000000000000000000000000000000000000000000000000000000000000000000000000000000000000000000000000000000000005
:403BC00000000000000000000000000000000000000000000000000000000000000000000000000000000000000000000000000000000000000000000000000000000000C5
:407FC000A5112C000057000000000F000000000000000000000000000000000000000000000000000000000000000000000000000000000000000000000000000000000039
:0200000490303A
:02000000D4A288
:0200000490402A
:200000000000000000000000000000000000000000000000000000000000000000000000E0
:0200000490501A
:0C000000000204C81193110104D8E63579
:0200000490600A
:0100000001FE
:00000001FF