:400000000080002011000000811700008117000008B5044B1A6803F53F5302331A6001F0CFFB00BFFA46004010B5054C237833B9044B13B10448AFF300800123237010BD7C
:400040008881FF1F000000007C7F0000084B10B51BB108490848AFF300800848036803B910BD074B002BFBD0BDE81040184700BF000000008C81FF1F7C7F0000C880FF1F8C
:400080000000000008B5002000F0E4F9FA2000F019FB00F0A9FB01F0C5F908BD08B562B601F02EFC00F062FD01F02EFF02F0A8F8002000F09BFD00F089FDFFF7E3FF08BDC6
:4000C00008B500F09BF800F031FA00F02FFD01F0BBF908BD08B5FFF7E1FF054800F04EFDFFF7EEFF4FF47A7001F072FEF8E700BF807F000000B583B08DF804008DF80510EB
:400100000023022201A91F2001F076FD01F042FE10F0020FFAD003B05DF804FB00B583B08DF8040000238DF800300223012201A91F2001F061FD01F02DFE10F0020FFAD058
:4001400001231A4669461F2001F0BCFD01F022FE10F0010FFAD09DF8000003B05DF804FB10B5044600F0B2FA204B1C70204A00231380538093801F4A1380538093800D2025
:40018000FFF7CCFFC72804D01B4800F0F7FC002010BD00212A20FFF7ADFF144B1B78012B08D013B1022B0AD00DE000210E20FFF7A1FF08E001210E20FFF79CFF03E0022119
:4001C0000E20FFF797FF02212B20FFF793FF15212A20FFF78FFF1F215B20FFF78BFF20215C20FFF787FF012010BD00BFA481FF1F4083FF1FA083FF1FA07F00002DE9F04F51
:400200008DB0834A0023138053809380814A1380538093808DF82C30079308930993ADF82830022301220BA91F2001F0E5FC01F0B1FD10F0020FFAD001230E2207A91F205B
:4002400001F040FD01F0A6FD10F0010FFAD09DF81D209DF81E309DF81FA09DF820909DF821809DF822709DF823609DF824409DF8251000919DF8260001909DF827500295DC
:400280009DF82850039543EA022343F38D0B584604F0C6F80590604D286049EA0A2949F38D0A504604F0BCF88146686047EA082747F38D07384604F0B3F88046A86044EA12
:4002C000062636B2304604F0ABF804900198009940EA01252DB2284604F0A2F80090039A029B42EA032424B2204604F099F80190474BA3F800B0A3F802A09F80454B1E8016
:400300005D809C80454B1B78012B14D013B1022B22D031E0404C4249059804F0D5F820603F49484604F0D0F860603D49404604F0CBF8A06020E0384C3A49059804F0C4F8FF
:4003400020603849484604F0BFF860603549404604F0BAF8A0600FE02F4C3349059804F0B3F820603049484604F0AEF860602E49404604F0A9F8A0602C4C2D49049804F0C6
:40038000A3F820602A49009804F09EF860602849019804F099F8A060264800F0EBFB1E4D286803F00FFC00F0F5FB234800F0E2FB686803F007FC00F0EDFB204800F0DAFB1E
:4003C000A86803F0FFFB00F0E5FB1D4800F0D2FB1C4800F0CFFB206803F0F4FB00F0DAFB194800F0C7FB606803F0ECFB00F0D2FB164800F0BFFBA06803F0E4FB00F0CAFBB8
:40040000134800F0BBFB01200DB0BDE8F08F00BF4083FF1FA083FF1F4C83FF1FA481FF1FE7D01C3BE7D09C3BE7D01C3CE883FF1FCDCCCC3DC47F0000D07F0000DC7F0000E5
:40044000E87F0000F47F0000008000000C8000001880000008B5FFF783FE08BD00B583B08DF804008DF805100023022201A9212001F0C2FB01F08EFC10F0020FFAD003B011
:400480005DF804FB00B583B08DF8040000238DF800300223012201A9212001F0ADFB01F079FC10F0020FFAD001231A466946212001F008FC01F06EFC10F0010FFAD09DF85F
:4004C000000003B05DF804FB10B5044600F0FEF8124B1C80124B00221A805A809A800C20FFF7D0FFD72804D00E4800F047FB002010BD0D4800F042FB00211320FFF7AEFF48
:4005000040211320FFF7AAFF0E211320FFF7A6FF642001F05DFC012010BD00BFA681FF1F2883FF1FA07F0000208000002DE9F04784B0604A00231380538093808DF80C30BB
:400540000193CDF807300223012203A9212001F053FB01F01FFC10F0020FFAD00123072201A9212001F0AEFB01F014FC10F0010FFAD09DF805609DF806309DF807709DF87D
:4005800008509DF809A09DF80A4043EA062636B2304603F045FF8046DFF82091C9F8000045EA07252DB2284603F03AFF0746C9F8040044EA0A2424B2204603F031FF824660
:4005C000C9F808003B4B1E805D809C803A4B1B88B3F5FA7F1ED002D8FA2B07D055E0B3F57A7F2BD0B3F5FA6F3CD04EE0334C4FF07051404603F068FF20604FF0705138468F
:4006000003F062FF60604FF07051504603F05CFFA0603AE0294C4FF07251404603F054FF20604FF07251384603F04EFF60604FF07251504603F048FFA06026E01F4C4FF0E3
:400640007451404603F040FF20604FF07451384603F03AFF60604FF07451504603F034FFA06012E0154C4FF07651404603F02CFF20604FF07651384603F026FF60604FF037
:400680007651504603F020FFA0600C4C0C49206803F01AFF20600A49606803F015FF60600749A06803F010FFA060012004B0BDE8F08700BF2883FF1FA681FF1FA883FF1FC7
:4006C00035FA8E3C08B5FFF7FFFE08BD08B501F017F908BD00B583B002A901F8040D00230122772001F088FA01F054FB10F0020FFAD003B05DF804FB08B51E20FFF7EAFF20
:4007000008BD00BF30B583B0002502AC24F8045DFFF7E0FF2B4602222146772001F0D2FA01F038FB10F0010FFAD09DF804009DF8053043EA002003B030BD00BF10B50024B2
:400740000BE004F15100400000F0FE00FFF7DAFF034B23F814000134E4B2052CF1D910BDA881FF1F10B582B00024ADF804408DF80640FFF7AFFF2346032201A9772001F0C1
:40078000A1FA01F007FB10F0010FFAD09DF804209DF805309DF806001B0243EA0243184302B010BD082819D8DFE800F0051809180D181118150001220A4B1A730EE00222BA
:4007C000084B1A730AE00322064B1A7306E00522044B1A7302E00A22024B1A73014B5873704700BFA881FF1F08B5FFF76FFFFFF783FF0220FFF7D6FF642001F0E9FAFFF7B3
:400800009DFF012008BD00BF10B5064C607B5030C0B2FFF75FFF207B01F0DAFA0020FFF7A1FF10BDA881FF1F10B5064C607B5030C0B2FFF74FFF207B01F0CAFA0020FFF787
:4008400091FF10BDA881FF1F2DE9F04F83B0FFF7EBFF0190FFF7D8FF664B1A89A0EB02205E8800253404B3F80680C717A8FB002308FB073390469946002A73F1000103DA97
:4008800012F17F0843F100094FEAD81141EA49624FEAE913A4185D4156490A884FF0000B4FEAC23AB1F80480A0FB082308FB073390469946002A73F1000103DA12F1FF08DF
:4008C00043F100094FEA182141EA09624FEA292312EB0A0243EB0B034649897B002961D04449B1F80A80A8FB000108FB071106460F46002871F1000E03DA3F4E0027361865
:400900004F41F10D41EA472101F5FA61394800260027C0E90467C0E90667B1F5FA6F16DAA1F5FA6000FB00F000EB800000EBD0767610F717DFF8BCE0CEE90467064600283A
:4009400000DAC61CB610F7172A48C0E906672B4881421CDA01F2DC5606FB06F6C6EBC60E244FD7E9040110EB0E0041EBEE71C7E9040106EB860106EB410606EBD676761098
:40098000D7E90601801941EBE671C7E90601194ED6E90401241A65EB0105D6E90601121A63EB0103019EA6FB020106FB031106460F46002871F1000303DA114E0027361863
:4009C0004F41710D41EAC7227B15141B63EB050522462B46002C75F1000104DA47F6FF72002312196B41D00B40EA434003B0BDE8F08F00BFA881FF1FFFFF7F0024FAFFFFCE
:400A0000FFFF1F00F8B5FFF7FFFE1A4A1389A0EB0323DF175489A4FB030104FB071104460D46002871F1000203DA134C002524184D41E00D40EA452000F5FA600D4A002124
:400A40001162927B5AB1B0F5FA6F08DA03FB03F3B3F1004F14BF00230123064A1362054B1B6AC01A03F09CF80022044B03F028FAF8BD00BFA881FF1FFFFF7F0000005940A8
:400A800008B503F08DF80CA3D3E9002303F018FA0BA3D3E9002301F039FD02460B4600200B4902F02FFF08A3D3E9002303F0DEF808BD00BFAFF3008000000000D0BCF840D0
:400AC00000000060955BC83F0000000040A5E5400000F03F0000000070B50E4603F060F804460D46304603F05BF802460B462046294603F0E5F908A3D3E9002301F006FD8C
:400B000002460B460020084902F0FCFE04A3D3E9002303F0ABF870BD00000060955BC83F0000000040A5E5400000F03F10B5FFF76BFE0C4C2060FFF777FE6060FFF762FF68
:400B4000C4E90201FFF780FE2061FFF799FFC4E90601054B19682069FFF7BEFFC4E9080110BD00BFB883FF1F4883FF1F08B501F083FB08BD08B501F099FB08BD08B501F057
:400B800095FB202001F0A4FB08BD00BF08B501F081FB08BD00B587B002460B46044901A804F0E4FA01A8FFF7E5FF07B05DF804FB2C800000034A136801331360024B1B788C
:400BC000704700BFCC81FF1F6B64004008B501F0F5FB024801F01AFC08BD00BFB50B0000014B1868704700BFCC81FF1F014B1870704700BFCC80FF1F204B1B78002B38D13F
:400C000010B501F0CFF9002835D001F08BF90A281FD11A4B59681A7AD2B200248C540C33994208D10C3B03F184025A6003F10C02C3F8FC2007E0114B03F10C025A6003F1F6
:400C40008402C3F8FC200D4B00221A72012283F800210A4B5C681A7AD2B2511CC9B21972A0541B7ADBB2772B06D97722034B1A7210BD00207047002010BD00BFD081FF1FE5
:400C800008B501F0F7F908BD014B93F800017047D081FF1F034B002283F80021D3F8FC00704700BFD081FF1F2F280BD9392802D83038C0B27047402806D9462806D8373812
:400CC000C0B270470020704700207047002070472DE9F04184B0054604F07AFA061FAB5D2A2B17D10746C31EE85CFFF7DDFF000184B2023FE85DFFF7D7FF204480B2022326
:400D000003E0EA5C50400133DBB29E42F9D8002840F06E83CA49284604F075FA002800F0A7812C21284604F045FA441C204603F061FD03F06BFA054603F03CFDC14BA3FB9D
:400D400000235B0BC04E86F8083142F2107202FB1303BE4AA2FB03135B0986F80731A2FB00235B09642202FB130386F80631284602F028FF0022B64B01F066FB0022B54BF7
:400D800002F074FF03F022FAA6F80C012C21204604F010FA0546461C43782C2B59D00222314601A804F01CFAEE1C4FF0000804AF07F80A8D01A803F024FDA74C04FB00F4F0
:400DC0000222314601A804F00BFAAE1D04223146384604F005FA8DF80A8001A803F011FD322303FB00F09D4B83FB00239C4A82FB0412E417C4EB6234A3EBE07003F010FBC3
:400E0000984903F061FB0546204603F009FB294603F052FA07468C4CC4F82001924903F007FC03F0A1FC0546642000FB05F003F0F7FA0146384603F03DFA8C4903F0F8FB7C
:400E40000746284603F0ECFA394603F035FAC4F824012C21304604F0ADF9421C43782C2B1DD0532B06D17848D0F8241101F10041C0F824114E2B04D14E21734B83F80A115F
:400E80000DE0532B04D153216F4B83F80A1106E02C2B40F0AF8200216B4B83F80A112C21104604F087F90546461C43782C2B58D00322314601A804F093F92E1D00278DF869
:400EC000077001A803F09DFC634C04FB00F40222314601A804F084F9EE1D042231460DF1060004F07DF98DF80A7001A803F089FC322303FB00F0594B83FB0023584A82FB12
:400F00000412E417C4EB6234A3EBE07003F088FA544903F0D9FA0546204603F081FA294603F0CAF90746484CC4F81C014E4903F07FFB03F019FC0546642000FB05F003F0E9
:400F40006FFA0146384603F0B5F9484903F070FB0746284603F064FA394603F0ADF9C4F828012C21304604F025F9421C43782C2B1DD0572B06D13448D0F8281101F100416F
:400F8000C0F82811572B04D157212F4B83F809110DE0452B04D145212B4B83F8091106E02C2B40F029820021274B83F809112C21104604F0FFF8441C43782C2B05D0204644
:400FC00003F01BFC204B83F802012C21204604F0F1F8441C43782C2B05D0204603F00DFC194B83F801012C21204604F0E3F8441C43782C2B02D0204603F0FCFB2C2120461B
:4010000004F0D8F8441C43782C2B07D0204603F0F1FB03F0FBF80C4BC3F818012C21204604F0C8F82C21013004F0C4F8421C43782C2B00F0E381104603F0DCFB0120E8E1EA
:40104000308000005917B7D1D081FF1F1F85EB510000F03F00408F40809698005655555589B5F8149C53C9360000C84200007042AC49284604F0C7F8002800F0C1812C2187
:40108000284604F097F8441C204603F0B3FB03F0BDF8054603F08EFBA34BA3FB00235B0BA24E86F8083142F2107202FB1303A04AA2FB03135B0986F80731A2FB00235B0909
:4010C000642202FB130386F80631284602F07AFD0022984B01F0B8F90022974B02F0C6FD03F074F8A6F80C012C21204604F062F8421C4378412B03D1012186F80B1106E065
:40110000562B40F07F810021884B83F80B112C21104604F04FF80546461C43782C2B59D00222314601A804F05BF8EE1C4FF0000804AF07F80A8D01A803F063FB7F4C04FBC4
:4011400000F40222314601A804F04AF8AE1D04223146384604F044F88DF80A8001A803F050FB322303FB00F0754B83FB0023754A82FB0412E417C4EB6234A3EBE07003F0EE
:401180004FF9714903F0A0F90546204603F048F9294603F091F80746644CC4F820016B4903F046FA03F0E0FA0546642000FB05F003F036F90146384603F07CF8644903F096
:4011C00037FA0746284603F02BF9394603F074F8C4F824012C21304603F0ECFF421C43782C2B1DD0532B06D15048D0F8241101F10041C0F824114E2B04D14E214B4B83F857
:401200000A110DE0532B04D15321484B83F80A1106E02C2B40F0F8800021444B83F80A112C21104603F0C6FF0546461C43782C2B58D00322314601A803F0D2FF2E1D0027CE
:401240008DF8077001A803F0DCFA3C4C04FB00F40222314601A803F0C3FFEE1D042231460DF1060003F0BCFF8DF80A7001A803F0C8FA322303FB00F0314B83FB0023314AFA
:4012800082FB0412E417C4EB6234A3EBE07003F0C7F82D4903F018F90546204603F0C0F8294603F009F80746204CC4F81C01274903F0BEF903F058FA0546642000FB05F0E2
:4012C00003F0AEF80146384602F0F4FF204903F0AFF90746284603F0A3F8394602F0ECFFC4F828012C21304603F064FF421C43782C2B35D0572B06D10C48D0F8281101F1EF
:401300000041C0F82811572B04D15721074B83F8091125E0452B1DD14521044B83F809111EE000BF388000005917B7D1D081FF1F1F85EB510000F03F00408F408096980070
:401340005655555589B5F8149C53C9360000C842000070422C2B59D100212F4B83F809112C21104603F026FF441C43782C2B07D0204603F03FFA02F049FF274BC3F8140161
:401380002C21204603F016FF441C43782C2B07D0204603F02FFA02F039FF1F4BC3F810012C21204603F006FF421C43782C2B2FD0104603F01FFA02F009FF184BA3FB0023AD
:4013C0005B0B154981F8033142F2107202FB1303134AA2FB03435B0981F80431A2FB00235B09642202FB130381F80531012010E000200EE000200CE000200AE0012008E0B7
:40140000002006E0002004E0002002E0002000E0012004B0BDE8F081D081FF1F5917B7D11F85EB5108B50648FFF72AFC0548FFF727FC4FF47A7000F0CBFC012008BD00BF58
:40144000AC800000E080000008B5FFF7D5FB2B4B1B7813B108B1FFF799FBFFF715FC002847D0FFF717FCFFF733FC0346002843D0FFF7B6FB224B1864224A92F8081119702D
:4014800092F80711597092F806119970B2F80C11D98092F80311597192F80411197192F80511D97092F80B1183F83B1092F8022183F83C20F9B1134AD2F82011996092F808
:4014C0000A1183F83810D2F81C11D96092F8091183F83910D2F814119962D2F81011D962D2F81811596292F8012183F83D20012302E0012300E00123184608BDCC80FF1F79
:401500005883FF1FD081FF1FFEE700BFF0B40022174611E050F82760F3B226F0FF0608E001EB420511F812406D78A5550132013BDBB2002BF4D10137222FEBD9F0BC70470B
:40154000064B1B78DBB203F00701054A11701B09013213704422034B1A707047CF0100496E5800407658004008B50A46002103F084F908BD38B51925284B1D801823284AE8
:40158000137002321580023213704FF49C7102321180023213700222224B1A7008224FF040231A70032103F5007319701E4B1B78DBB21E490B701E4B1A8041F25122023B82
:4015C0001A8000240CE01B4B1B7803F0010343EA440404F003044FF4F07000F025FF013D0DB1032CEFD115B90320FFF78DFF124B4FF480721A8007221A7000220F490A70F9
:401600004820023108701A700222033B1A700C4A137843F00703137038BD00BF80400040824000400043004008010049A14600402242004025420040044000400640004079
:40164000A243004008B503F00DF908BD38B572B6384A137843F00403137000240CE0364D630019194A0011462A44084691882858FFF77AFF0134E4B2082CF0D900240CE086
:401680002D48A20011194B000344B3F84020D96B986BFFF7D7FF0134E4B2032CF0D927494FF09040FFF732FF254A137843F0020313701032137843F002031370214C23788B
:4016C00043F040032370A2F58632513A137843F0100313700A221C491C48FFF7B3FF0A221B491C48FFF7AEFF0A221B491B48FFF7A9FF08221A491B48FFF7A4FF08221A49D8
:401700001A48FFF79FFF1A4A137843F008031370184D61232B70FFF72DFF81232B700122154B1A70FFF70CFF0E2221461348FFF789FF38BDE8460040F48000008C000048F5
:4017400003500140A0430040F40D004800510040000E0048C05100400C0E0048F0510040180E004812510040200E004822510040224300400048004004000840B043004068
:4017800008B503F043F803680C2B00D1FEE7FEE708B5094B1A681044084BC31AB3F5006F02DC054B186005E003F030F80C2303604FF0FF32104608BDD080FF1FD884FF1F28
:4017C00008B5104E104D16E029686B68AC68002204E051F8040B43F8040B0432A242F8D1E868002203E0002143F8041B04328242F9D11035013E002EE6D103F00DF8FEF78E
:4018000069FCFEE7010000005884000008B5104A104B1A60104A136843F40073136000230AE0032B03D80D4A52F8231000E00C490C4A42F8231001332F2BF2D90A4B1A7881
:401840000A4B1A70074A0A4B1A60FFF7FFFE08BD0004FA050CED00E014ED00E000000000811700000080FF1FBC760040C080FF1F08ED00E038B50222114B1A7081220E3B36
:401880001A70082202331A700F2511331D70002401331C704FF400420A4B1A600721284600F0C0FA0849284600F0A8FA1022074B1A70074B1C70074B1C70074B1C7038BD4A
:4018C000D649004080E100E029190000F483FF1FFA83FF1F0284FF1FF883FF1F08B500F0ABFD064A137843F0040313701032137843F00403137000F0A3FD08BDA5430040A5
:4019000008B5074B1B7823B9FFF7B4FF0122044B1A70FFF7E3FF4FF40042024B1A6008BD0483FF1F00E100E038B5A54B1C78A54B1B7813F0400F00F03A81E4B214F0010F9A
:4019400000F01D819F4B1B78453B052B00F21481DFE813F006008200120112010600DF0004F0DF0504F00A04082C42D1954B1B78DBB2452B35D1944B1B7813F0FF0F10D0CE
:40198000924B1B681B78DBB2914A137004228C4B1A7001228F4B1A7046228A4B1A702C46EDE08D4B1B7813F0020F0DD08B4A137843F00A0313706022824B1A704FF4004258
:4019C000874B1A602C46DAE0864A137843F0100313701022844B1A700422023B1A702C46CDE00022764B1A704A22764B1A702C46C5E00A2C2BD1794A137843F0A0031370A0
:401A0000754B1B7813F0020F14D06E4B1B7813F0080F01D0092300E00A23704A11780B4313706022674B1A704FF400426C4B1A602C46A4E06B4A137843F010031370102232
:401A4000694B1A700422023B1A702C4697E0002000F0BCF92C4692E014F0020F36D15D4B1A78D2B2584B1B78DBB29A4210D2594A1378DBB255490968CB5CDBB254490B70B8
:401A800004214F4B197013780133DBB2137076E0514B1B7813F0020F0CD0504A137843F00A0313706022474B1A704FF400424C4B1A6064E04B4A137843F01003137010221F
:401AC000494B1A700422023B1A7058E0424B1B7813F0020F0CD0414A137843F09A0313706022384B1A704FF400423D4B1A6046E03C4A137843F01003137010223A4B1A70D3
:401B00000422023B1A70354A137843F09003137035E0364A1378DBB2354908682C490978C9B2C15413780133DBB213701278D2B2304B1B78DBB29A4203D21022204B1A70F4
:401B40001DE0254B1B7813F0020F0CD0234A137843F00903137060221A4B1A704FF400421F4B1A600BE01F4A137843F0100313700022134B1A7002E0002000F027F914F019
:401B8000200F1CD00F4B1B7813F0080F01D0012300E00223114A11780B431370114A137803F0EF0313701022064B1A7038BD054B1B7813F0100F02D11022024B1A7038BD2E
:401BC000D7490040F483FF1FF983FF1F0484FF1FD8490040F883FF1F0084FF1FFA83FF1F80E100E0D6490040D94900400284FF1FFC83FF1F0184FF1F002948D070B40C46DC
:401C000026490978C9B2102906D12549097811F0080F11D1002112E020490978C9B260290CD14FF400451F490D601F4D297801F0F7012970002102E0012100E0022149BB4A
:401C40004526164D2E700026184D2E70184D2A70184A1460184A1370134C227802F0FD0222704200D2B21548027013F0010F06D012220B4B1A700422023B1A7002E0012215
:401C8000074B1A704FF400420D4B1A6002E0022108467047084670BC704700BFF483FF1FD949004080E200E0FA83FF1FF883FF1FF983FF1F0484FF1F0084FF1FD849004047
:401CC00000E100E000294AD070B40C4627490978C9B2102906D12649097811F0080F11D1002112E021490978C9B260290CD14FF4004520490D60204D297801F0F701297037
:401D0000002102E0012100E0022159BB4926174D2E700026194D2E70194D2A70194A1460194A1370144C227802F0FE0222704200D2B242F001021548027013F0010F06D0DE
:401D400012220B4B1A700422023B1A7002E00122074B1A704FF400420D4B1A6002E0022108467047084670BC704700BFF483FF1FD949004080E200E0FA83FF1F0284FF1FB8
:401D80000184FF1FFC83FF1F0084FF1FD849004000E100E04FF40042084B1A60084B1878C0B2084B1B7813F0400F01D040F004004FF40042044B1A60704700BF80E100E036
:401DC000FA83FF1FF483FF1F00E100E001BE704710B5044605E0084B186800F025FBA4F50044B4F5004FF6D8034B586800FB04F000F01AFB10BD00BFD480FF1F70B5044693
:401E00000E46074B1D681F2802D90020FFF7DEFF04F01F04103455F8240045F8246070BD08ED00E038B504460D46072902D90020FFF7CCFF1F2C02D90020FFF7C7FF04F067
:401E40001F0000F1604000F564406D01EDB2057038BD00BF08B512490020FFF7CFFF07210020FFF7DFFF00220E4B1A7072220E4B1A70202203F580731A700C490120FFF72C
:401E8000BDFF07210120FFF7CDFF0622084B1A70472210331A7002224D331A7008BD00BF992000000583FF1F85640040312100002364004010B500F0BFFA04460E4A137832
:401EC00043F02003137002F58072137843F0100313700A4A0123136009490B7843F010030B70022307490B60136000F04DF9204600F0A6FA10BD00BF9564004000E100E046
:401F00009064004080E200E008B5054B5B7823B9FFF7A0FF0122024B5A70FFF7CBFF08BD0583FF1F0122194B1A60194A9378DBB2D178C9B2127912F0FF0F01D18B4211D09A
:401F4000144AD05CC0B20133DBB2632B00D900230F4A9370137913F0FF0F13D000220C4B1A710FE00C4B1B78DBB213F0200F06D00A4A1078C0B213F01E0F02D102E0002079
:401F800000E000200122064B1A60704780E100E00583FF1F0884FF1F656500404164004000E100E00122144B1A60144B9A78D2B2DB78DBB29A4206D1104B1B7913F0FF0FB7
:401FC00015D0642014E00D4B9A78D2B2DB78DBB29A4205D2094AD3789078181AC0B207E0064AD3789078181A6430C0B200E000200122034B1A60704780E100E00583FF1F6E
:4020000000E100E0164BD9799B79DBB2994205D25A1E914214BF0022012204E0CA1A632A14BF00220122002AECD1994207D10D4B1B7813F0040F02D10B4B1870704763297A
:4020400000D90021094B58540131054BD971054B1B7813F0020F02D00222054B1A6070470583FF1F60640040406400406C84FF1F00E200E038B5074B5B782BB938BDFFF7ED
:40208000C1FF0134A4B201E005460024285D0028F5D138BD0583FF1F1D4B1B78DBB213F01E0F05D01B4803F01E0201780A43027003F0200303F0FF0233B3174B1978C9B2DE
:4020C000164B1B78DBB21648C154164B1B7813F0FF0F02D00121144B197010490B780133DBB20B700B78DBB2632B02D900210B4B19700A4B1978C9B20C4B1B78DBB29942C7
:4021000002D10121074B1970002AC5D1704700BF656500400583FF1F416400400883FF1F0884FF1F0983FF1F0A83FF1F0783FF1F13E0104B1B78DBB2632B02D900220D4B63
:402140001A700C4A1378DBB20B49CB5CDBB20B490B7013780133DBB21370064B1B78DBB2074A1278934204D0064B1B7813F0040FDFD070470B83FF1F6C84FF1F40640040CE
:402180000C83FF1F60640040054A137843F0040313701032137843F004031370704700BFA24300407222074B1A70202201331A700622663B1A70472210331A700022503314
:4021C0001A7070478965004010B500F035F904460A4A137843F0200313700132137843F010031370063A137843F01003137000F07FF8204600F024F910BD00BF99650040CC
:4022000008B5054B1B7823B9FFF7CCFF0122024B1A70FFF7D9FF08BD0E83FF1F7222074B1A70202201331A700622A0331A70472210331A700022B63B1A707047876400407B
:4022400010B500F0F9F804460A4A137843F0200313700132137843F010031370063A137843F01003137000F051F8204600F0E8F810BD00BF9764004008B5054B1B7823B9E9
:40228000FFF7CCFF0122024B1A70FFF7D9FF08BD1083FF1F034B1B7813F0040FFAD1024B18707047626400404565004038B5074B1B782BB938BDFFF7EDFF0134A4B201E0E8
:4022C00005460024285D0028F5D138BD1083FF1F08B5064B1B783BB1FFF7DCFF0D20FFF7D9FF0A20FFF7D6FF08BD00BF1083FF1F054A137843F0010313701032137843F03F
:4023000001031370704700BFA2430040054A137843F0020313701032137843F002031370704700BFA2430040024A137843F080031370704779640040014B1870704700BF95
:402340008B640040014B1878704700BF6B640040014B1860704700BF28640040014B1868704700BF48640040014B1860704700BF0864004008B501E0FFF7F0FFFFF7E2FF59
:4023800010F0080FF8D108BD08B545F6BF50FFF7DFFF45F6BF50FFF7E7FF00F04DF8064A137843F01003137000F04AF8FFF7E2FF0120FFF7C1FF08BD9B64004008B5054BAD
:4023C0001B7823B9FFF7E0FF0122024B1A70FFF7ABFF08BD1283FF1F014B1B689864704708ED00E04001C0B2014B1870704700BF02E400E00422014B1A60704700E100E009
:402400000422014B1A60704780E100E010B50446FFF7F6FF2046FFF7DFFF0720FFF7E2FFFFF7E8FF10BD00BF0230800803D000BF01380046FCD17047EFF3108072B670477D
:4024400080F31088704700BF2DE9F04F8BB01D4680468946144600F0F1F92A4B064693F900A00F46BAF1FF3F2FD022462B462046294601F095FE40BB42464B46404649469A
:4024800001F08EFE834600BB002200232046294601F054FEC8B11C4A0123CDE90289CDE90445CDF820B001920093BAF1000F11D1CDE90689684601F00FF9B0B1089BDBB9A0
:4024C000DDE906010BB0BDE8F08F304639460BB0BDE8F08F002200231046194601F0F0FCBAF1020FCDE90601E4D102F08FF921230360089B002BE3D002F088F9089B03603C
:40250000DEE700BFE480FF1F548100002DE9F04F8DB006460F4614461D4600F0ADFADFF81093CDE9000199F90080B8F1FF3F46D022462B462046294601F032FE8346002839
:402540003DD132463B463046394601F029FE8246002874D1304639460022002301F0EEFD002833D0002200232046294601F0E6FD8346B8B1A94A012300200021CDF828A0CC
:40258000CDE90467CDE90645CDE9080103920293B8F1000F6CD0A24B0022104619460DB0BDE8F08F2046294601F090F838B1002200232046294601F0CBFD00286AD1DDE944
:4025C0000023104619460DB0BDE8F08FDDE9000101F07CF8804600287DD0DDE900014FF0000A4FF0000B52465B4601F0A7FD0028E5D03046394601F069F80028DFD0204632
:40260000294601F063F80028D9D099F90030834804210022022BCDE90467CDE90645CDE908AB039002910A9204D002A801F054F8002847D102F0EAF82223036042E0002205
:4026400000232046294601F079FD0028B7D0744B724800220121B8F1020FCDF828B0CDE90467CDE90645CDE9082303900291A8D002A801F031F800287ED00A9B43B302F0D0
:40268000C5F8DDE908230A990160104619460DB0BDE8F08F614999F900300122CDF828B0CDE90467CDE9064503910292002B68D05C490020022BCDE9080166D102F0A6F881
:4026C000212303600A9B1BB102F0A0F80A9B0360DDE9082375E73046394600F0F7FF00283FF47BAF2046294600F0F0FF00283FF474AFDDE900231046194601F051FD00284C
:402700006FD1464B99F90080039303230A90CDE90467CDE906450293B8F1000F3BD1DFF814B14FF0604A0022002330463946CDE908AB01F00DFD00283FF477AF00223A4B9A
:402740002046294601F092FA04460D4600F0CCFF02460B462046294601F0F0FC00283DD1324B4FF06042CDE9082399F90080B8F1020F7FF45AAF5DE702F048F8212303608A
:402780007BE700230024CDE9083402A800F0A4FF002897D192E7DFF8A0B04FF0000A0022002330463946CDE908AB01F0D1FC0028DDD000221C4B2046294601F057FA0446A8
:4027C0000D4600F091FF02460B462046294601F0B5FC18B9134B0022CDE9082399F90080C5E70E4A99F900900123CDF82880CDE90467CDE9064503920293B9F1000FC0D066
:40280000002200231046194601F05AFBB9F1020FCDE908013FF452AFB7E700BF5C8100000000F03F0000F0FF0000E03FFFFFEFC7E480FF1FFFFFEF470000F07F2DE9F84FFD
:4028400023F0004952EA090620D001F00046834F81EA0608B84519DC57421743DFF814B249EAD7775F45944610D8C8451D4682460446964612DC0FDB90420DD30ED1784B4C
:40288000F60F03EBC60393E8030005E001F0EEF902460B4601F014FBBDE8F88FB8F5801F0EDAB8F1000F40F09C80BAF1000F53466C4909DD5B00002B01F1FF31FADC03E0D5
:4028C0004FEA2851A1F2FF31B9F5801F0EDAB9F1000F40F09F80BCF1000F6346614F09DD5B00002B07F1FF37FADC03E04FEA2957A7F2FF375C4B994256DBC8F3130343F47B
:402900008013594A97425EDBC5F3130545F48015C91B07E052EA000313D0C30F03EB420344000139CEEB04005A1B89B1744538BF02F1FF32002AEDDAE20F02EB4303640088
:40294000EFE7474BF60F03EBC60696E80300A3E71546744538BF02F1FF35002DB4BF1D46CEEB040455EA0403EBD0404A954208DCE30F03EB4505954207F1FF374FEA440439
:40298000F6DD394B9F424EDA374AD21B142A54DCC2F12003D44005FA03F3234345FA02F242EA0601184677E72F4C641A1F2C2BDCC4F1200308FA04F82AFA03F343EA080301
:4029C0000AFA04F49DE72848C01B1F2815DCC0F1200209FA00F52CFA02F215430CFA00FE96E74FEAC823002B1F497FF76DAF5B00002B01F1FF31FADC66E71D4D4FF0000E4B
:402A0000ED1B0CFA05F583E7194B00245B1A0AFA03F376E7144F4FEAC9235B00002B07F1FF37FADC66E7A5F580152E4307F2FF3746EA0753204619462EE71F2A07DCC2F15F
:402A40002003D4409D4045EA04033246A8E7084B3246DB1B45FA03F3A2E700BFFFFFEF7F60810000EDFBFFFF02FCFFFFFFFF0F00E2FBFFFF0000F07F2DE9F04F23F0004891
:402A800058EA020993B03CD0714C21F00046A64283460D460CDD06F1404606F5801656EA0B0038D183466B49584613B0BDE8F08F9A4696462BD0A045EDDC654CA04578D0D2
:402AC000002D0F468146CDE9002376DB0024BEF1000F27D15E4B984500F08B805D4B984552D0BAF1804F00F0C9835B4B9A4519D1002D17DB4846394613B0BDE8F04F00F079
:402B00001DBDCB465846534913B0BDE8F08F0028C1D1B045D1DD514813B0BDE8F04F00F0DDBD00244846394600F0CCFDBBF1000F1CD0ED0F013D54EA050370D0484B9845A1
:402B400040F3948003F10473984540F30D84454B9E4270DDBAF1000F70DD3BA3D3E900231046194601F082F883469DE726B1394B25F040429A42DCD1BAF1000FC0F2B783F3
:402B8000002D08DB83468FE7BAF1000FC0F25E84CB46394688E706F1404606F5801656EA040300F08384012CECD101F1004183467AE7BEF1000F83D06DE72B4B98452CDC26
:402BC000A3F15473984581DD4FEA2853A3F2FF33142B40F35384C3F134032EFA03F202FA03F39E457FF472AF02F00102C2F102046DE706F1404303F5801353EA0B0300F0C8
:402C00003A83184B9E4240F36783BAF1000F15DBDDE900349B46214646E7022457E74A4648463B46394600F06DFE02460B4601F047F9834638E7BAF1000F8EDB4FF0000B62
:402C4000594631E7AFF300809C7500883CE4377E0000F07F0000F03F0000E03FF07F00000000E041FFFFEF3FFFFF3F43B6F5801F4FF0000205DAD04B00F0F8FF0E466FF0F5
:402C80003402DFF844E33315C6F31306A3F2FF3346F07F57764503EB020A47F4401740F3C983C64B00229E4240F304840023CDE90823CDE90C23C24B0022CDE906230AF16D
:402CC000010AA7F5801700263946DDE90623CDE90A0100F017FEDDE9062380468946DDE90A0100F011FE02460B460020B44901F0E7F80A4601461346CDE90E1202464946C5
:402D0000404600F0B3FF8C4683467B1043F0005303F5002399190020CDE904BC06460F464FF0000B6146584632463B46CDE910BCCDE9020100F09AFF02460B4640464946C1
:402D400000F0E0FDDDE90623804689463046394600F0D8FD02460B46DDE90A0100F0D2FDDDE9022300F082FF02460B464046494600F0C8FDDDE90E2300F078FFDDE90478C0
:402D8000CDE906013A4643463846414600F06EFF77A3D3E9002306460F4600F067FF76A3D3E9002300F0B0FD32463B4600F05EFF73A3D3E9002300F0A7FD32463B4600F0AE
:402DC00055FF71A3D3E9002300F09EFD32463B4600F04CFF6EA3D3E9002300F095FD32463B4600F043FF6CA3D3E9002300F08CFD3246804689463B463046394600F036FF21
:402E000002460B464046494600F030FFDDE9022306460F46DDE9040100F076FDDDE9062300F024FF32463B4600F06EFDDDE902678046894632463B463046394600F016FFFE
:402E40000022604BCDE90A0100F05EFD42464B4600F05AFDDDE910BC0F46DDE902015A463B46CDE90EBC5E4600F000FF0022CDE90201544B3046394600F044FDDDE90A23A2
:402E800000F040FD02460B464046494600F03AFDDDE9042300F0EAFE324680468946DDE906013B4600F0E2FE02460B464046494600F02AFD8046894602460B46DDE9020164
:402EC00000F022FDDDE90EBC35A3D3E900235846CDE906BC5E460F4600F0C8FEDDE90223CDE904013046394600F00CFD02460B464046494600F006FD2BA3D3E9002300F0E5
:402F0000B5FE2BA3D3E90023804689463046394600F0ACFE02460B464046494600F0F4FCDDE90C2300F0F0FC80465046894600F037FE06460F46DDE9040142464B4600F0E9
:402F4000E3FCDDE9082300F0DFFC32463B4600F0DBFCDDE906BC324658463B46DA468B4600F0D0FCDDE9082330E000BFAFF30080EF4E454A287ECA3F65DBC9934A86CD3F55
:402F800001411DA96074D13F4D268F515555D53FFFAB6FDBB66DDB3F033333333333E33F000000E009C7EE3FFD033ADC09C7EE3FF5015B14E02F3EBE0000404379B60B00A2
:402FC0000000F03F000008408E98030000F09AFCDDE9042300F096FC02460B464046494600F090FC80468946DDE90012013C54EA050314BFD64CD74C0023CDE904340B46A8
:403000001446CDE9023400230293DDE9024508462B461146224600F075FC52465B4600F025FEDDE9002306460F464046494600F01DFE02460B463046394600F065FC064685
:403040000F4622462B4650465946CDE9006700F00DFE0B460246804689463046394600F053FCBD4B064699420D460C4640F30E8101F13F4303F5E003034340F0F081A0A364
:40308000D3E90023DDE9000100F03EFC424682468B464B463046294600F034FC02460B465046594601F072F8002840F0D8812F463B154FF48012A3F2FE3342FA03F32344B6
:4030C000C3F30A52A54EA2F2FF321641C3F3130B0020C2F1140523EA06014BF4801B02460B46002C4BFA05FB40464946B8BFCBF1000B00F007FC02460B4680468946DDE9BD
:40310000000100F001FC4FEA0B5A00247EA3D3E9002320460D4600F0A9FD424606460F464B462046294600F0EDFB02460B46DDE9000100F0E7FB76A3D3E9002300F096FD7C
:4031400075A3D3E90023804689462046294600F08DFD02460B464046494600F0D5FB8046894602460B463046394600F0CDFB32463B4604460D4600F0C5FB02460B464046C6
:40318000494600F0BFFB2246804689462B462046294600F06BFD62A3D3E9002306460F4600F064FD60A3D3E9002300F0ABFB32463B4600F05BFD5EA3D3E9002300F0A4FB3D
:4031C00032463B4600F052FD5BA3D3E9002300F099FB32463B4600F049FD59A3D3E9002300F092FB32463B4600F040FD02460B462046294600F086FB06460F4602460B4670
:403200002046294600F032FD0022CDE900014FF080433046394600F075FB02460B46DDE9000100F04DFE424606460F464B462046294600F01BFD42464B4600F065FB024687
:403240000B463046394600F05DFB22462B4600F059FB02460B4600203D4900F053FB8A44BAF5801FC0F237815146DDE9042300F0FDFC834618E4F346354915E44A464846A0
:403280003B46394600F0F2FC83460DE4344B21F000479F4240F30181324B0B4403430CD142464B4600F02EFB02460B46DDE9000100F058FF00283FF4FBAE23A3D3E9002398
:4032C000DDE9040100F0D2FC1FA3D3E9002300F0CDFC8346FFF7E8BBBAF1000FBFF6AEACDDE900349B4604F10041FFF7DDBB02460B460020164900F0E3FD41E4AFF30080F2
:40330000FE822B654715973C00000000432EE63FEF39FAFE422EE63F396CA80C615C20BED0A4BE726937663EF16BD2C541BDBB3E2CDE25AF6A56113F93BDBE166CC1663F59
:403340003E5555555555C53F59F3F8C21F6EA5010000F03F0000F0BFFFFF8F40FFFF0F00FFCB904000346F3F6F4B9E427FF763AC6E4B9E423FF7EEAB00226C4B00F0C2FAE9
:403380005BA3D3E9002306460F4600F06FFC5AA3D3E90023804689463046394600F066FC002282468B46624B3046394600F05EFC02460B4652A1D1E9000100F0A3FA324689
:4033C0003B4600F053FC02460B460020594900F099FA3246CDE902013B463046394600F045FC02460B46DDE9020100F03FFC46A3D3E9002300F03AFC02460B46504659460E
:4034000000F080FA02460B4606460F464046494600F07AFA42464B46002082468B4600F071FA02460B463046394600F06BFA80468946D9E500220023CDE90823CDE90C2301
:403440003A4B00220026CDE906233DE44A463B460020364900F034FD8346FFF725BB2CA3D3E90023DDE9040100F000FC28A3D3E9002300F0FBFB8346FFF716BBBEF1000FCC
:403480007FF44FABC3F1140348FA03F202FA03F3984524D07446FFF721BB264B9F423FF707AEDDE902349A469B462EE602460B46FFF7B9BB204B4FF48026CDE9062316A351
:4034C000D3E90023CDE9082315A3D3E90023CDE90C23FFF7F9BB5A4600F096F9C5E602F00102C2F10204FFF7F9BA00BFAFF30080000000604715F73F44DF5DF80BAE543E2F
:40350000555555555555D53FFE822B654715F73F9C7500883CE4377E0000004003B8E23F06D0CF43EBFD4C3EFEFFEF3F0000F03F0000D03F0000E03F0000F83F2DE9F041ED
:403540005F4E0C46B6460E407645054600F0988000290B46024674DD5FEA215E7FD0AEF2FF3EC3F313031EF0010F43F4801363D100273E4603EBD2710B444FEA6E0E5200D3
:4035800016204FF4001174189C424FEAD2754FEA420202DC1B1B66180F44013805EB43034FEA5101EFD1844620244FF0004109E020D003EBD275013C4FEA51012B444FEA6F
:4035C000420220D09E4201EB0C05F1DA002D05EB010C09DBB0469542A3EB060300D9013B4646521B0844E4E7BCF1000FF2DB06F10108F0E7954217D8002D05EB010C49DBE4
:4036000098460023ECE7134310D140087B1003F17F5303F50013FA0703EB0E57394648BF40F00040BDE8F0813346C2E7411C35D000F001031844E8E75B0003EBD2735200F8
:4036400096E721F000460643ECD079BB8E46D30AAEF1150E5205002BF9D0DD0221D4002100E001465B00DC0201F10100F9D5C0F1200422FA04F42343C1EB0E0E82406EE73B
:4036800002460B4600F0F2FA2A46234600F03CF9BDE8F081BCF1000FA9DAB1E701372046B4E720244FF0FF310020E2E702460B4600F028F902460B4600F002FCB2E700BF4C
:4036C0000000F07F21F00041704700BF41F0004101F58010C00F70470020704700200149704700BF0000F87FF0B5C1F30A5EAEF2FF36132E83B002460B460C464FEAD17573
:4037000007462EDC002E49DB3D49314103EA010010432BD049080B4053EA02070CD04FF48023132E24EA010143FA06F444EA01040CBF4FF000470027324B214603EBC50539
:40374000D5E90045384622462B4600F0DDF8CDE90001DDE9000122462B4600F0D3F803B0F0BD332E06DDB6F5806F45D01046194603B0F0BDAEF2134E4FF0FF3121FA0EF126
:403780000842F3D049080842D6D04FF0804320EA010143FA0EFE4EEA0107CDE721F0004101431946E4D0C3F3130343EA000CCCF1000343EA0C0C134B640C4FEA1C3C0CF45E
:4037C000002C03EBC5036404D3E900674CEA040132463B4600F098F8CDE90001DDE9000132463B4600F08EF8024621F0004141EAC57310461946BBE700F086F8B8E700BF9B
:40380000FFFF0F0070810000F8B5C1F30A5604460D460B46174606BB21F00043034325D000222F4B00F022FA2E4A044697420D460B462ADBC1F30A56363E40F2FE723E4496
:40384000964228DC002E12DD23F0FF4323F4E00343EA065520462946F8BD40F2FF729642EBD102460B4600F04FF8F8BDF8BD16F1350F1DDA4CF250339F420CDC14A1D1E942
:40388000000122462B4600F031F811A3D3E9002300F0ECF9F8BD22460FA1D1E900012B4600F024F80CA3D3E9002300F0DFF9F8BD23F0FF4323F4E003363643EA06552046F4
:4038C00029460022084B00F0D1F9F8BDAFF3008059F3F8C21F6EA5019C7500883CE4377E00005043B03CFFFF0000903C03F0004321F0004242EA0301704700BF81F0004182
:4039000002E000BF83F0004330B54FEA41044FEA430594EA050F08BF90EA020F1FBF54EA000C55EA020C7FEA645C7FEA655C00F0E2804FEA5454D4EB5555B8BF6D420CDDF5
:403940002C4480EA020281EA030382EA000083EA010180EA020281EA0303362D88BF30BD11F0004F4FEA01314FF4801C4CEA113102D0404261EB410113F0004F4FEA0333F2
:403980004CEA133302D0524263EB430394EA050F00F0A780A4F10104D5F1200E0DDB02FA0EFC22FA05F2801841F1000103FA0EF2801843FA05F359410EE0A5F120050EF182
:4039C000200E012A03FA0EFC28BF4CF0020C43FA05F3C01851EBE37101F0004507D54FF0000EDCF1000C7EEB00006EEB0101B1F5801F1BD3B1F5001F0CD349085FEA3000FC
:403A00004FEA3C0C04F101044FEA445212F5800F80F09A80BCF1004F08BF5FEA500C50F1000041EB045141EA050130BD5FEA4C0C404141EB010111F4801FA4F10104E9D18C
:403A400091F0000F04BF01460020B1FA81F308BF2033A3F10B03B3F120020CDA0C3208DD02F1140CC2F10C0201FA0CF021FA02F10CE002F11402D8BFC2F1200C01FA02F1B0
:403A800020FA0CFCDCBF41EA0C019040E41AA2BF01EB0451294330BD6FEA04041F3C1CDA0C340EDC04F11404C4F1200220FA04F001FA02F340EA030021FA04F345EA030118
:403AC00030BDC4F10C04C4F1200220FA02F001FA04F340EA0300294630BD21FA04F0294630BD94F0000F83F4801306BF81F480110134013D4EE77FEA645C18BF7FEA655C11
:403B000029D094EA050F08BF90EA020F05D054EA000C04BF1946104630BD91EA030F1EBF0021002030BD5FEA545C05D14000494128BF41F0004130BD14F580043CBF01F52F
:403B4000801130BD01F0004545F0FE4141F470014FF0000030BD7FEA645C1ABF194610467FEA655C1CBF0B46024650EA013406BF52EA033591EA030F41F4002130BD00BFBF
:403B800090F0000F04BF0021704730B54FF4806404F132044FF000054FF0000150E700BF90F0000F04BF0021704730B54FF4806404F1320410F0004548BF40424FF00001BB
:403BC0003EE700BF42004FEAE2014FEA31014FEA02701FBF12F07F4393F07F4F81F06051704792F0000F14BF93F07F4F704730B54FF4607401F0004521F0004120E700BFEB
:403C000050EA010208BF704730B54FF000050AE050EA010208BF704730B511F0004502D5404261EB41014FF4806404F132045FEA915C3FF4DCAE4FF003025FEADC0C18BF58
:403C400003325FEADC0C18BF033202EBDC02C2F1200300FA03FC20FA02F001FA03FE40EA0E0021FA02F11444C1E600BF70B54FF0FF0C4CF4E06C1CEA11541DBF1CEA13557C
:403C800094EA0C0F95EA0C0F00F0DEF82C4481EA030621EA4C5123EA4C5350EA013518BF52EA033541F4801143F4801338D0A0FB02CE4FF00005E1FB02E506F00042E0FBFB
:403CC00003E54FF00006E1FB03569CF0000F18BF4EF0010EA4F1FF04B6F5007F64F5407404D25FEA4E0E6D4146EB060642EAC62141EA55514FEAC52040EA5E504FEACE2E5F
:403D0000B4F1FD0C88BFBCF5E06F1ED8BEF1004F08BF5FEA500E50F1000041EB045170BD06F0004646EA010140EA020081EA0301B4EB5C04C2BFD4EB0C0541EA045170BD37
:403D400041F480114FF0000E013C00F3AB8014F1360FDEBF002001F0004170BDC4F10004203C35DA0C341BDC04F11404C4F1200500FA05F320FA04F001FA05F240EA02000F
:403D800001F0004221F0004110EBD37021FA04F642EB06015EEA430E08BF20EAD37070BDC4F10C04C4F1200500FA04F320FA05F001FA04F240EA020001F0004110EBD370F1
:403DC00041F100015EEA430E08BF20EAD37070BDC4F1200500FA05F24EEA020E20FA04F301FA05F243EA020321FA04F001F0004121FA04F220EA020000EBD3705EEA430E49
:403E000008BF20EAD37070BD94F0000F0FD101F00046400041EB010111F4801F08BF013CF7D041EA060195F0000F18BF704703F00046520043EB030313F4801F08BF013DFC
:403E4000F7D043EA0603704794EA0C0F0CEA135518BF95EA0C0F0CD050EA410618BF52EA4306D1D181EA030101F000414FF0000070BD50EA410606BF1046194652EA43063E
:403E800019D094EA0C0F02D150EA013613D195EA0C0F05D152EA03361CBF104619460AD181EA030101F0004141F0FE4141F470014FF0000070BD41F0FE4141F4780170BD9A
:403EC00070B54FF0FF0C4CF4E06C1CEA11541DBF1CEA135594EA0C0F95EA0C0F00F0A7F8A4EB050481EA030E52EA03354FEA013100F088804FEA03334FF0805545EA13138D
:403F000043EA12634FEA022245EA111545EA10654FEA00260EF000419D4208BF964244F1FD0404F5407402D25B084FEA3202B61A65EB03055B084FEA32024FF480104FF4D8
:403F4000002CB6EB020E75EB030E22BFB61A754640EA0C005B084FEA3202B6EB020E75EB030E22BFB61A754640EA5C005B084FEA3202B6EB020E75EB030E22BFB61A75460F
:403F800040EA9C005B084FEA3202B6EB020E75EB030E22BFB61A754640EADC0055EA060E18D04FEA051545EA16754FEA06164FEAC30343EA52734FEAC2025FEA1C1CC0D13A
:403FC00011F4801F0BD141EA00014FF000004FF0004CB6E711F4801F04BF01430020B4F1FD0C88BFBCF5E06F3FF6AFAEB5EB030C04BFB6EB020C5FEA500C50F1000041EB29
:40400000045170BD0EF0004E4EEA113114EB5C04C2BFD4EB0C0541EA045170BD41F480114FF0000E013C90E645EA060E8DE60CEA135594EA0C0F08BF95EA0C0F3FF43BAFEA
:4040400094EA0C0F0AD150EA01347FF434AF95EA0C0F7FF425AF104619462CE795EA0C0F06D152EA03353FF4FDAE1046194622E750EA410618BF52EA43067FF4C5AE50EAE0
:4040800041047FF40DAF52EA43057FF4EBAE12E74FF0FF3C06E000BF4FF0010C02E000BF4FF0010C4DF804CD4FEA410C7FEA6C5C4FEA430C18BF7FEA6C5C1BD001B050EA78
:4040C000410C0CBF52EA430C91EA030F02BF90EA020F0020704710F1000F91EA030F58BF994208BF90422CBFD8176FEAE37040F0010070474FEA410C7FEA6C5C02D150EA13
:40410000013C07D14FEA430C7FEA6C5CD6D152EA033CD3D05DF8040B704700BF8446104662468C461946634600E000BF01B5FFF7B7FF002848BF10F1000F01BD4DF808ED38
:40414000FFF7F4FF0CBF012000205DF808FB00BF4DF808EDFFF7EAFF34BF012000205DF808FB00BF4DF808EDFFF7E0FF94BF012000205DF808FB00BF4DF808EDFFF7CEFF18
:4041800094BF012000205DF808FB00BF4DF808EDFFF7C4FF34BF012000205DF808FB00BF4FEA410C7FEA6C5C02D150EA013C0AD14FEA430C7FEA6C5C02D152EA033C02D160
:4041C0004FF0000070474FF0010070474A0011D212F5001211D20DD56FF47873B3EB62520ED44FEAC12343F0004343EA505323FA02F070474FF00000704750EA013002D1E8
:404200004FF0FF3070474FF0000070474FEA4102B2F1E04324BFB3F5001CDCF1FE5C0DD901F0004C4FEAC0024CEA5070B2F1004F40EB830008BF20F00100704711F0804F40
:4042400021D113F13872BCBF01F00040704741F480114FEA5252C2F11802C2F1200C10FA0CF320FA02F018BF40F001004FEAC1234FEAD32303FA0CFC40EA0C0023FA02F336
:404280004FEA4303CCE77FEA625307D150EA01331EBF4FF0FE4040F44000704701F0004040F0FE4040F40000704700BF80F0004002E000BF81F0004142001FBF5FEA4103EA
:4042C00092EA030F7FEA226C7FEA236C6AD04FEA1262D2EB1363C1BFD218414048404140B8BF5B42192B88BF704710F0004F40F4000020F07F4018BF404211F0004F41F4AD
:40430000000121F07F4118BF494292EA030F3FD0A2F1010241FA03FC10EB0C00C3F1200301FA03F100F0004302D5494260EB4000B0F5000F13D3B0F1807F06D340084FEA5B
:40434000310102F10102FE2A51D2B1F1004F40EBC25008BF20F0010040EA03007047490040EB000010F4000FA2F10102EDD1B0FA80FCACF1080CB2EB0C0200FA0CF0AABF24
:4043800000EBC25052421843BCBFD0401843704792F0000F81F4000106BF80F400000132013BB5E74FEA41037FEA226C18BF7FEA236C21D092EA030F04D092F0000F08BF3B
:4043C0000846704790EA010F1CBF0020704712F07F4F04D1400028BF40F00040704712F100723CBF00F50000704700F0004343F0FE4040F4000070477FEA226216BF0846CE
:404400007FEA23630146420206BF5FEA412390EA010F40F4800070474FF0000304E000BF10F0004348BF40425FEA000C08BF704743F0964301464FF000001CE050EA01024C
:4044400008BF70474FF000030AE000BF50EA010208BF704711F0004302D5404261EB41015FEA010C02BF84460146002043F0B64308BFA3F18053A3F50003BCFA8CF2083A3A
:40448000A3EBC25310DB01FA02FC634400FA02FCC2F12002BCF1004F20FA02F243EB020008BF20F00100704702F1200201FA02FCC2F1200250EA4C0021FA02F243EB020090
:4044C00008BF20EADC7070474FF0FF0C1CEAD0521EBF1CEAD15392EA0C0F93EA0C0F6FD01A4480EA010C400218BF5FEA41211ED04FF0006343EA501043EA5111A0FB0131EF
:404500000CF00040B1F5000F3EBF490041EAD3715B0040EA010062F17F02FD2A1DD8B3F1004F40EBC25008BF20F00100704790F0000F0CF0004C08BF49024CEA502040EAE7
:4045400051207F3AC2BFD2F1FF0340EAC250704740F400004FF00003013A5DDC12F1190FDCBF00F000407047C2F10002410021FA02F1C2F1200200FA02FC5FEA310040F1C5
:40458000000053EA4C0308BF20EADC70704792F0000F00F0004C02BF400010F4000F013AF9D040EA0C0093F0000F01F0004C02BF490011F4000F013BF9D041EA0C018FE7E0
:4045C0000CEAD15392EA0C0F18BF93EA0C0F0AD030F0004C18BF31F0004CD8D180EA010000F00040704790F0000F17BF90F0004F084691F0000F91F0004F14D092EA0C0FB9
:4046000001D142020FD193EA0C0F03D14B0218BF084608D180EA010000F0004040F0FE4040F40000704740F0FE4040F4400070474FF0FF0C1CEAD0521EBF1CEAD15392EA4B
:404640000C0F93EA0C0F69D0A2EB030280EA010C49024FEA402037D04FF0805343EA111143EA10130CF000408B4238BF5B0042F17D024FF4000C8B4224BF5B1A40EA0C00F2
:40468000B3EB510F24BFA3EB510340EA5C00B3EB910F24BFA3EB910340EA9C00B3EBD10F24BFA3EBD10340EADC001B0118BF5FEA1C1CE0D1FD2A3FF650AF8B4240EBC25055
:4046C00008BF20F0010070470CF0004C4CEA50207F32C2BFD2F1FF0340EAC250704740F400004FF00003013A37E792F0000F00F0004C02BF400010F4000F013AF9D040EA75
:404700000C0093F0000F01F0004C02BF490011F4000F013BF9D041EA0C0195E70CEAD15392EA0C0F08D142027FF47DAF93EA0C0F7FF470AF084676E793EA0C0F04D14B02CB
:404740003FF44CAF08466EE730F0004C18BF31F0004CCAD130F000427FF45CAF31F000437FF43CAF5FE700BF4FEA4002B2F1FE4F0FD34FF09E03B3EB12620DD94FEA0023F5
:4047800043F0004310F0004F23FA02F018BF404270474FF00000704712F1610F01D1420205D110F0004008BF6FF0004070474FF00000704742000ED2B2F1FE4F0BD34FF03E
:4047C0009E03B3EB126209D44FEA002343F0004323FA02F070474FF00000704712F1610F01D1420202D14FF0FF3070474FF00000704700BF002101F043BB0A22002101F017
:40480000CDBB0A22002101F0C9BB0000014B1868704700BF4C81FF1F0E4B70B51E460E4C0025E41AA410A54204D056F8253098470135F8E703F0FEFD084B094C1E46E41AA4
:40484000A4100025A54204D056F8253098470135F8E770BD4084000040840000408400004884000010B5431E0A44914204D011F8014B03F8014FF8E710BD034602449342FD
:4048800002D003F8011BFAE770472DE9F04788B0149F002B1E461299B8BF03F1004327F02007B6BF1E4600232D23462F1446109DDDF84CA00B7003D0452F03D1013501E0E3
:4048C000032300E0022307AA049206AA03928DE828042246334601F0F7FB472F804602D1119BDB0728D5462F08EB050911D198F80030302B0AD10022002320463146FFF79C
:404900001DFC18B9C5F10105CAF80050DAF8003099440022002320463146FFF70FFC08B9302202E0CDF81C9006E0079B994503D9591C07911A70F8E74046079B159AC8EB15
:404940000303136008B0BDE8F087034673B50029B8BF494203F8022BB4BF2D222B22092942701ADD0DF1070216460A2591FBF5F405FB1411092C01F1300102F8011D214639
:40498000F4DC3031541E02F8011CB4421A460AD214F8012B03F8012BF7E71A463024214402F8024B5970101A02B070BD2DE9F04F91B00C46DDF8688016461F46054602F0F9
:4049C00039FC03681846099300F002FC00230E93D8F800300A90073323F0070303F1080294F81890D4F800B0C8F80020D3E90023C4E91223D4F84CA0D4F848802AF0004382
:404A00000B934FF0FF32A74B40460B99FFF7C8FBA0B94FF0FF32A34B40460B99FFF7A2FB60B90022002340465146FFF791FB10B12D2384F843309C4B9C4A0AE0424653464A
:404A400040465146FFF7ACFB002800F09281984B984AB9F1470F8CBF90469846032323612BF0040323604FF0000A3DE0B9F1670F00F08A81B9F1470F00F0868123600193AF
:404A8000636800210DF13302059002920093424653460691CDF81090CDF80CE02846FFF7F4FE09F0DF03472B804600F08481B9F1650F0D9900F28D8101394A4604F150001C
:404AC0000D91FFF742FF0E9A82468318012A236100F37C812268D10700F178819DF8333013B12D2384F84330009733460FAA2146284600F09FF9013002D14FF0FF3096E1E1
:404B000023685A0501D4236965E0B9F1650F40F2D580D4E9120100220023FFF70FFB78B30123654A31462846B8470130E5D00E9B0D9A9A420BDB2368D80708D423689B07DE
:404B400040F111814FF0000804F1190906E10A9B099A31462846B8470130CED04FF0000804F11A090E9B013B9845E7DA01234A4631462846B8470130BFD008F10108F1E71E
:404B80000D9B002B29DC01234B4A31462846B8470130B2D00D9B23B90E9B13B92368D907CCD50A9B099A31462846B8470130A4D04FF0000904F11A0A0D9B5B42994509DA90
:404BC0000123524631462846B847013095D009F10109F1E70E9B4246A7E00E9AA36D9A42A8BF1A46002A914606DC4FF0000A29EAE97904F11A0B11E013463146424628461E
:404C0000B8470130F1D178E701235A4631462846B84701303FF471AF0AF1010AA36DC9EB03029245F0DB08EB03090D9A0E9B9A420FDB2368DA070CD40E9B0D9A9844C9EB45
:404C400008089B1A9845A8BF9846B8F1000F08DC0FE00A9B099A31462846B8470130EBD14BE743464A4631462846B84701303FF444AF4FF0000928EAE87804F11A0A09E067
:404C80000123524631462846B84701303FF435AF09F101090D9A0E9B9B1AC8EB03039945EEDB4BE7FFFFEF7F83820000878200008B8200008F820000938200000E9A012AF1
:404CC00001DCDB0738D50123424631462846B84701303FF412AF0A9B099A31462846B84701303FF40AAFD4E9120100220023FFF725FA20B14FF0000804F11A090EE00E9BF9
:404D000008F10102013B19E001234A4631462846B84701303FF4F1AE08F101080E9B013B9845F1DB534604F1500231462846B84701307FF403AFE0E64246012331462846A6
:404D4000B8470130EED1D8E601234A4631462846B84701303FF4D1AE08F10108E3680F9A9B1A9845F0DBE0680F9B9842B8BF18465DE062680EA8531C0DF1340E4BF4806389
:404D80007FF474AE062201E012B90122626075E6002106910DF133018DE80C00236005904246CDF81090CDF80CE0029153462846FFF76BFD80460D9BD81C02DB6268934253
:404DC0001DDDA9F102095FFA89F970E60133236184E6B9F1660F14D10029636807DD216113B92268D2071DD501330B4419E013B92268D00701D5023313E0012311E04FF047
:404E000067090D9B0E9A934205DB22682361D10708D5013305E0002BD4BFC3F102030123134423610D9B4FF0000AA36556E611B0BDE8F08F2DE9F04791461F460A698B68A2
:404E400006469342B8BF1346C9F8003091F843200C46DDF8208012B10133C9F800302368990642BFD9F800300233C9F80030256815F0060510D104F1190A07E0012352462A
:404E800039463046C04701301AD00135E368D9F800209B1A9D42F1DB94F843302268003318BF012392060FD5E118302081F843005A1C94F845102244023382F8431003E02F
:404EC0004FF0FF30BDE8F08704F1430239463046C0470130F4D02268D9F80050E36802F00602042A08BF5D1B2269A3680CBF25EAE57500259342C4BF9B1AED184FF0000957
:404F00001A344D4509D00123224639463046C0470130D5D009F10109F3E70020BDE8F0872DE9F04317460A7E85B06E2A984606460C460C9B01F1430E00F0AE8011D8632A4B
:404F400022D009D8002A00F0BB80582A40F0CA8081F84520834955E0642A1ED0692A1CD0C0E0732A00F0B08009D86F2A2ED0702A40F0B8800A6842F020020A603EE0752A6F
:404F800024D0782A3AD0ADE01A6801F14205111D1960136884F84230A8E021681A6811F0800F02D0111D196008E011F0400F02F10401196002D0B2F9003000E01368002B81
:404FC0003CDA2D225B4284F8432037E021681A6811F0800F02D0111D196007E011F0400F02F10401196001D0138800E01368227E5C496F2A14BF0A2208221BE078225A49F7
:4050000084F845202268186812F0800F00F104051D6003D1550601D5038800E00368D00744BF42F0200222601BB9226822F0200222601022002084F8430001E049490A222E
:405040006568002DA56008DB206820F0040020602BB9002D7DD175460CE0002B79D07546B3FBF2F002FB1033CB5C05F8013D03460028F5D1082A0BD12368DA0708D52369B1
:4050800062689A42DEBF302305F8013C05F1FF35C5EB0E0323612EE008681A6810F0800F496903D0101D1860136808E010F0400F02F104001860136801D0198000E0196099
:4050C00000232361754616E01A68111D1960156800216268284602F0B9F808B1401B6060636804E004F1420584F8422001232361002384F84330CDF800803B4603AA214685
:405100003046FFF797FE013002D14FF0FF3026E023692A4639463046C0470130F5D023689B0710D5002504F1190907E001234A4639463046C0470130E7D00135E368039A1D
:405140009B1A9D42F2DBE068039B9842B8BF184605E00B7804F1420584F842308AE705B0BDE8F08395820000A68200000EB400B54FF402719CB0ADF814106FF000410491B3
:4051800007914FF6FF711DAB02900690084853F8042BADF81610006802A9019302F060FD029B00221A701CB05DF804EB03B070474C81FF1FC9B2034610F8012B1AB19142E3
:4051C000F9D11846704700290CBF184600207047034613F8012B002AFBD1181A01387047034610B542B111F8014B013A03F8014B002CF7D11A4400E010BD934202D003F896
:40520000014BFAE710BDF0B5037863B90B78002B18BF0020F0BD15F8012F62B114F8017F30469742F7D00346461C007810B14D1E5C1EF0E7F0BD1846F0BD2DE9F0410F4600
:40524000904602F0D7FA04460D46B8F1000F11D0C7F30A53C3F16B03002B0BDD1B0503F17F55002405F5401522462B46FEF7FEFCBDE8F08120462946BDE8F08100000000EF
:405280002DE9F04F82460C469DB00023139218934FF000084FF000091791179B1A780D2A05D8092A13D2002A00F0AD8112E02B2A04D02D2A04D0202A0CD108E0002200E079
:4052C00001220C925A1C17925B782BB99BE101331793E2E700230C93179D2B78302B5CD16B78582B01D0782B4CD10C9BA84A019318AB009317A919AB504601F0C8FC10F00A
:405300000706044600F08585062E05D10135002317950C9300F07DBD189A3AB135211AA802F04FFB1899504601F0D3FF062E22D8DFE806F0040D08181D0D04004FF00009B7
:40534000C84618E0DDF86880DDF86C9013E01B9B199A23F4801302F23342DDF8688043EA025908E0DFF82C924FF0000803E06FF000494FF0FF38210740F14B8549F0004975
:4053800000F047BD179B5A1C17925B78302BF9D0002B00F03E85012300E000230593179B0A22069300239B4602930493179D2E78A6F13003D9B2092911D8BBF1080FD5BFCC
:4053C0000499029902FB013302FB013305F10105D4BF049302930BF1010B1795E6E7504601F028FF0768504601F024FF0068FFF7EFFE39460246284602F036FD074628B145
:40540000002033465D46024601465AE0504601F011FF0068FFF7DCFE179B1A1817921B5CBBF1000F45D15846302B05D1179B01305A1C17925B78F7E7A3F13102082A46D82A
:40544000179A0692024600200546303B00F1010129D00A44294605EB000C0A2661450FD0013101F1FF3EBEF1080F03DC049F77430497F3E71029DEBF029F77430297EDE7F5
:405480002844082800F1010505DC04980A2101FB0033049306E0102DDFBF02980A2101FB003302930021179B581C17905B78084602E05D4638463A46A3F130010929C4D97B
:4054C0000121652B01D0452B4FD16DB904E0652B40F0AD840022012128B9059B002B00F09280054600E00025179C631C179363782B2B06D02D2B02D00026039606E0012386
:4055000000E000230393A31C1793A378A3F13006092E29D8302B04D1179B5E1C17965B78F8E7A3F13106082E1FD8A3F1300E179B1F46179B5E1C17965B78A3F1300CBCF187
:40554000090F05D80A2606FB0E3EAEF1300EF0E7F61B082E44F61F6602DC7645A8BF7646039F1FB1764201E017940026002D52D1002840F04E84059A002A40F04A840029FD
:4055800041D14E2B20D007DC492B0AD03BE000BFCC8200000000F07F692B02D06E2B13D031E0AA4917A801F0A3FD60B3179BA849013B17A8179301F09BFD10B9179B0133DF
:4055C0001793DFF8A8921AE0A24917A801F090FDC8B1179B1B78282B0FD11AAA9E4917A801F099FD052808D11B9BDDF8688043F0FF4949F4E00900F00CBCDFF874924FF0FE
:40560000000800F006BC139B1794002B00F00C8400230C93FFE32C46BBF1000F08BFAB460498102DA8BF1024B71AFEF7A9FA092C8046894613DD894B03EBC40353E9122392
:40564000FEF714FB804602988946FEF799FA02460B4640464946FEF757F9804689460F2D33DC002F00F0D58322DD162F07DC7B4D424605EBC7014B46D1E9000113E0C5F101
:4056800025039F4221DC754CC5F10F0504EBC5017D1B4246D1E900014B4604EBC504FEF7E5FAD4E90023FEF7E1FA80468946B0E317F1160F09DB694D4046A5EBC703D3E971
:4056C00000234946FEF7FCFBEFE72C1B3C44002C5DDD14F00F010AD0604B424603EBC101D1E900014B46FEF7C1FA8046894634F00F0400F0C180B4F59A7F0FDD4FF0000B47
:40570000CDF808B0CDF814B0CDF810B02223CAF80030DFF858914FF0000889E14046494600234F4E24110293012C0CDDE20704D5D6E90023FEF79AFA0123029A64100132ED
:4057400002920836F0E70BB180468946444B029AA9F1547903EBC201D1E9000142464B46FEF784FA21F0004389460A461B0D3D491B058B428046C1D8A1F580118B4286BFFF
:40578000DFF8F0904FF0FF3802F1547974E073D0644214F00F020AD0304B404603EBC2034946D3E90023FEF78BFB80468946241162D01F2C08DD4FF0000BCDF808B0CDF8DB
:4057C00014B0CDF810B02CE14046494614F0100F0CBF00236A23244E03930023002C09DDE20704D5D6E90023FEF740FA012364100836F3E70BB180468946039BEBB1C9F399
:405800000A53C3F16B03002B494616DD1F2B0EDD342BDEBF203B4FF0FF3202FA03F34FF00008CCBF4FF05C7903EA010905E04FF0FF3202FA03F303EA080800220023404662
:405840004946FEF77BFC0028B5D117E0888200000B83000090820000B882000020830000F88300000000A07CE08200000000F07F0000F8FFFFFFEF7F00230393049B5A463E
:40588000009306992B46504601F075FD059000283FF434AF002FC7F10003A8BF00230D934FF0000B27EAE7731293CDF808B0059B5046596801F0D8FC049000283FF426AF0E
:4058C000059B0C301A6903F10C0102329200FEF7C9FF1AAB019319AB009342464B465046CDE9088901F0F7FF189000283FF40EAF0121504601F0CAFD029000283FF406AF66
:40590000199B0399002BACBF0D9A129A1A9CACBFD618D21AA3EB01032344B14903F1FF33ACBF129A0D9E8B42C4F1360480F28580C91A1F29C8BFAB4D4FF00107D4BF07FAA0
:4059400001F3ED1AA4EB0104D9BF0793002507FA05F507973719039BBE4214441C443346A8BF3B46A342A8BF2346002BC2BFFF1AE41AF61A0D9B002B63D1002F7ADC129BE0
:40598000002B40F08180002C00F38880002E00F38F80049A1899504601F0CDFE834600283FF4B4AEC3680024C4600299069301F0A6FEA04280F28B80069B002B40F00282F2
:4059C000B8F1000F40F0FE81C9F31303002B40F0F98129F000431B0D1B05B3F1D66F40F2F181DBF81430002B6CD059460122504601F034FE0299834601F081FE002840F340
:405A0000E18129F00043039A1B0D1B05002A00F08D80B3F1D66F00F38980B3F15C7F00F3D38122234FF000084FF00009CAF80030059B002B40F0D981EBE101230025079327
:405A400088E71A460299504601F0BAFD029000283FF45CAE0146189A504601F020FD069000283FF453AE1899504601F032FC069B189382E73A461899504601F0EFFD189091
:405A800000287FF47CAF41E6129A0499504601F097FD049000287FF476AF37E622460499504601F0DBFD049000287FF46FAF2DE632460299504601F0D1FD029000287FF4CB
:405AC00068AF23E6DBF81030012B8EDC7AE161D1069AC9F3130322B343494A468B422ED1039B414663B1414B1340B3F1D46F07D81B0DC3F16B034FF0FF3000FA03F301E0BA
:405B00004FF0FF338B421AD139498A4202D101333FF4FCAD354B4FF00008134003F5801950E163B9B8F1000F09D16AE7A3F580136FEA13594FF0FF386FEA095942E115B126
:405B400015EA090F02E0079B13EA080F00F03A81069B039A4046494653B1FFF76EFB02460B46DDE90801FDF7CFFE8046894629E1FFF763FB02460B46DDE90801FDF7C2FEDD
:405B80000022002380468946FEF7D8FA00287FF448AF17E10299584601F0EBFE00224FF0804306460F46FEF7DDFA00283FD0069B13B100260F4F10E0B8F1000F03D1C9F3BE
:405BC00013033BB91AE0B8F1010F03D1B9F1000F3FF427AF084F00260024064D3CE000BF02FCFFFFE2FBFFFFFFFF0F000000F07FFFFFEF7F0000F03F0000F0BF00229A4BDF
:405C000030463946FEF7A4FA40B90022974B30463946FEF72BF804460D4601E0069C934D05F1004314941593DDE9146714E08F4B002230463946FEF719F8069B04460D46DF
:405C400023B901F100430E900F9303E002460B46CDE90E23DDE90E6729F000431B0D1B050793079A824B9A422BD1DDE90823A9F1547940464946CDE90A2301F0BBFD024670
:405C80000B4630463946FDF7F1FF42464B46FDF73BFE21F000431B0D764A1B05934280460CD9754B0B9A9A4203D10A9B01333FF42DADDFF8C4914FF0FF3872E001F15479EA
:405CC00039E0039B3BB3079BB3F1D46F23D85EA3D3E9002320462946FEF744FAB8B129462046FEF773FA002808BF0120FDF748FF069B04460D4623B901F100431090119315
:405D000003E002460B46CDE91023DDE91067079A07F1D6639F1ADDE9080101F06BFD02460B4630463946FDF7A1FFDDE90823FDF7EBFD80468946039B9BBB29F000431B0D12
:405D4000079A1B059A424E462BD12946204602F0EDF8FDF725FF0B46024629462046FDF7D1FD069B04460D462BB9B8F1000F02D1C9F313067EB136A3D3E9002320462946C4
:405D8000FEF7E6F988BB34A3D3E9002320462946FEF7FCF904E032A3D3E90023FEF7D8F918BB1899504601F094FA0499504601F090FA0299504601F08CFA5946504601F0E4
:405DC00088FA74E5039B83B12C4B40460B9300230A934946DDE90A23FDF748FF8046894619B910B92223CAF800301899504601F070FA0499504601F06CFA0299504601F029
:405E000068FA0599504601F064FA5946504601F060FA139B13B1179B139A13600C9B1BB1424609F1004307E042464B4604E000252A460121FFF747BB104619461DB0BDE8C7
:405E4000F08F00BFAFF300800000C0FFFFFFDF419535A094FFFFDF3F35E5AF350000E03F9535A094FFFFCF3F0000F03F0000E03F0000E07FFFFF9F7CFFFFEF7F00005039E9
:405E8000024B0A4601461868FFF7FAB94C81FF1F2DE9F0470F4680463F48D0F800903D4615F8014B09EB0400407800F0080000F0FF0608B12F46F2E72D2C03D1BD1C7C7829
:405EC000012603E02B2C04BF7C78BD1C13B1102B0AD15BE0302C57D1287800F0DF0058284DD16C7810230235002E14BF4FF0004C6FF0004CBCFBF3FA0027384603FB1ACC59
:405F000009EB040E9EF801E01EF0040F01D0303C0BE01EF0030E1BD0BEF1010F0CBF4FF0370E4FF0570ECEEB0404A34210DDB7F1FF3F0AD0504506D801D1644503DC03FBC1
:405F40000040012701E04FF0FF3715F8014BD7E77B1C0CD1002E4FF0220314BF4FF000406FF00040C8F800302AB9BDE8F08706B1404272B107B1691E1160BDE8F0873024EA
:405F8000002BB1D10823AFE70A23ADE7302CA3D0AAE7BDE8F08700BFE880FF1F13460A46014602480068FFF773BF00BF4C81FF1F2DE9F74F03690C6980469C427FDC013C04
:405FC00001F114074FEA840E00F1140606EB0E0357F82450019356F824300135B3FBF5F507EB0E09C5B34FF0000A3846B446D34650F8043B9AB205FB02A21B0C4FEA124A67
:4060000005FB03A392B2C2EB0B0BBCF800204FEA134A5A441FFA83FBDCF800308145CBEB134303EB224392B242EA03424FEA234B4CF8042BDCD256F80E306BB9019B043BE3
:406040009E421A4602D3C8F8104005E01268043B002AF8D1013CF3E7404601F050FB00282BDB304601354FF0000E57F8042B036891B2C1EB0E0E120C99B27144C2EB134355
:4060800003EB214389B24FEA234EB94541EA034340F8043BE9D256F8242006EB840362B9043B9E421A4602D3C8F8104005E01268043B002AF8D1013CF3E7284600E0002069
:4060C00003B0BDE8F08F00002DE9F04F456A95B08246219CCDE9022345B9102001F0AEF8CAF82400456085600560C560DAF82430196859B15A68012393404A608B605046CC
:4061000001F0E7F8DAF8243000221A60039BA04A002BBDBF01232360039B0023BCBF23F000430393DDF80C80A8BF236028F000431B0D1B0593421DD142F20F73209A13603B
:40614000029B43B9934A944BC8F31300002814BF1846104600E09048229B002B00F04685C37813B100F1080300E0C31C229A136000F03CBDDDE902450022002320462946F9
:40618000FDF7DCFF074658B1209A01231360229B002B00F01E8581481860013800F026BD12AB019313AB009322462B46504601F092FBC8F30A56049056B1C5F3130343F05B
:4061C0007F51204641F44011A6F2FF3611971DE0139B129E1E4406F23243202B0ADD029A06F21240C3F1400322FA00F008FA03F3184304E0C3F12000029B03FA00F0FDF7A0
:40620000BFFC0123A1F1F871013E11930022644BFDF778FB58A3D3E90023FDF727FD58A3D3E90023FDF770FB044630460D46FDF7B7FC55A3D3E90023FDF718FD02460B460B
:4062400020462946FDF760FB04460D4601F06EFE00228346002320462946FDF779FF58B15846FDF79DFC02460B4620462946FDF765FF08B90BF1FF3BBBF1160F0DD8DDE944
:406280000223484901EBCB01D1E90001FDF77EFF30B10BF1FF3B002300E00123109300E01090129B9E1B731E079343BFC3F10008002307934FF00008BBF1000F06DB079B52
:4062C000CDF82CB05B440793002705E00023CBEB0808CBF100070B931E9B092B28D8052BC4BF043B1E931E9BC8BF0025A3F10203D8BF0125032B20D8DFE803F0060E020429
:40630000012302E0012308E000230A931F9B002B1DDD9946059321E000230A931F9B0BEB030909F10103012B0593B8BF012315E0012500231E930A9501E001230A934FF0EC
:40634000FF390022CDF8149012231F9206E04FF001094B46CDF81490CDF87C90DAF8244000226260042101F114029A421CD86268490001326260F6E761436F63A787D23FC9
:40638000B3C8608B288AC63FFB799F501344D33F0000F07F0883000011830000948200000000F83F208300006168504600F05CFFDAF8243020601B680693059B0E2B00F23F
:4063C0005B81002D00F05881DDE90234BBF1000FCDE90E3430DD9F4A0BF00F034FEA2B1502EBC303E80618CBCDE908340CD5DDE90E01994B05F00F05D3E90823FDF760FD4F
:406400000324CDE9020100E00224934E6DB1E90708D5DDE90801D6E90023FDF727FCCDE9080101346D100836F0E7DDE90823DDE90201FDF745FD20E0CBF1000505B3DDE92D
:406440000E01844B05F00F0203EBC203D3E90023FDF70CFCCDE902017F4E2D110023022455B1EA0705D5D6E90023FDF7FFFB013401236D100836F3E71BB1CDE9020100E0A9
:406480000224109BE3B1DDE902560022734B28463146FDF75DFE98B1059B8BB1B9F1000F40F3E6800BF1FF330893314600226C4B2846FDF7DBFB0134CDE902014E4602E019
:4064C000059ECDF820B02046FDF76AFBDDE90223FDF7CCFB634B0022FDF716FAA1F1507304460C931D46D6B9DDE9020100225E4BFDF708FA22460C9BCDE90201FDF746FE71
:40650000002840F03F820C99224601F10043DDE90201FDF71DFE002840F02B82A8E00A9A4C4B711E002A49D003EBC103D3E9002300204E49FDF7C4FC22462B46FDF7E2F9EA
:40654000CDE90C01069CDDE9020101F0EFFC0546FDF726FB02460B46DDE90201FDF7D2F9DDE90C23303504F8015BCDE90201FDF7EFFD002840F01D83DDE9022300203749C2
:40658000FDF7C0F9DDE90C23FDF7E2FD002840F0D180069BE31AB3426ADADDE90C0100222F4BFDF763FB0022CDE90C01DDE902012B4BFDF75BFBCDE90201C4E703EBC101A3
:4065C0002246D1E900012B46FDF750FB069BCDE90C011D469C19DDE9020101F0A7FC0646FDF7DEFA02460B46DDE90201FDF78AF9303605F8016BAC42CDE902014FF0000247
:4066000022D11A4BDDE90C01FDF77EF902460B46DDE90201FDF7BAFD002840F08B80DDE90C2300201149FDF76DF902460B46DDE90201FDF78DFDD8B114F8013C621E302BFE
:4066400040F0B7821446F7E7054BFDF70FFBCDE90201C0E720830000F88300000000F03F0000244000001C40000014400000E03FDDE90E34CDE90234139B002B7CDBBBF17B
:406680000E0F79DCAB4B03EBCB03D3E900671F9B002B14DA059B002B11DC40F06C810022A54B30463946FDF7E1FADDE90223FDF763FD059D2E46002840F05F8165E1069CA0
:4066C000DDE9028932463B4640464946FDF7F8FB01F02CFC0546FDF763FA32463B46FDF7C5FA0B46024649464046FDF70BF905F1300E069B04F801EBC3EB040E059B734578
:406700002DD102460B46FDF7FFF88046894602460B4630463946FDF71BFD78B942464B4630463946FDF70AFD002800F04482EB0704D440E2DDF820B000E01C4614F8012C84
:40674000631E392A07D1069A9A42F6D1069930220BF1010B0A701A7801321A702BE20022764BFDF783FA0022002380468946FDF7E5FC0028A6D01EE20A9A002A2BD01E9A29
:40678000012A0ADC119A12B103F2334302E0129BC3F136033D46444613E0059B5D1EAF42BFBF0B9BEA1B9B180B93059BB6BF2F467D1B0025002BA7BF4446059BC3EB080431
:4067C0000023079A01211A4450469844079200F05DFE064602E03D4644460A9E5CB1079B002B08DDA342A8BF2346079AC3EB0808E41AD31A0793002F1DDD0A9BABB18DB15C
:4068000031462A46504600F0DBFE049A01460646504600F044FE04990890504600F059FD089B04937A1B06D000E03A460499504600F0C6FE04900121504600F027FE0B9B15
:4068400005465BB31A460146504600F0B9FE1E9B0546012B18DC029B83B9039BC3F3130373B9039B23F000473F0D3F054FB1079B08F1010801330793012702E0002700E03D
:40688000029F0B9B73B100E000272B6905EB8303186900F0AEFDC0F1200004E01E9B012BD9DD0B9F0120079B184410F01F0008D0C0F12003042B02DDC0F11C0002E006D0C9
:4068C00018461C30079B8044034404440793B8F1000F05DD42460499504600F0BFFE0490079B002B05DD29461A46504600F0B6FE0546109B23B32946049800F000FF002823
:406900001EDA00230A220499504600F0F9FC0A9B0BF1FF3B0490002B00F05F81314600230A22504600F0ECFCB9F1000F06463FDC3BE000BF20830000000014400000244005
:40694000059B002B2BDC1E9B022B28DDDDF81490B9F1000F11D129464B460522504600F0CFFC01460546049800F0C9FE00280CDC03E0354600E000252E461F9B069C6FEA4D
:40698000030B09E03546DDF820B0069B069A5C1C312313700BF1010B05960026F7E00A9BDDF8149023B9069CB2E01E9B022BCFDC002C05DD31462246504600F04FFE0646C5
:4069C0009FB17168504600F04FFC0446326906F10C01023292000C30FDF744FF01222146504600F03BFE059000E00596029B069F03F00103079329460498FFF7D9FA314604
:406A0000044600F13008049800F079FE059A02902946504600F08FFEC36802463BB901460A90049800F06BFE0A9A034600E00123114650460A9300F04CFC0A9B53B91E9AD4
:406A400042B9079A32B9B8F1390F2AD0029B002B1CDC1DE0029A002A04DB1BD11E9ACAB9079ABAB9002B13DD01220499504600F0F5FD2946049000F042FE002803DC07D1A2
:406A800018F0010F04D0B8F1390F0AD004F131087C1C0CE0002B07F101040BDDB8F1390F03D139233B70013756E008F1010887F800806CE0069B2746E31A4B4504F8018CB2
:406AC0003BD000230A220499504600F019FC059B04909E424FF00A024FF000033146504604D100F00DFC0646059084E700F008FC002306460A220599504600F001FC0590F7
:406B000079E700230A220499504600F0F9FB049029460498FFF74CFA069B00F1300804F8018BE31A4B45ECDB069B0596B9F1010FACBF4B4401331F46002601220499504609
:406B400000F08CFD2946049000F0D9FD002803DC15D118F0010F12D03C4614F8013C621E392B09D1069B934204D10BF1010B3123069A02E01446F0E70133137007E03C46E9
:406B800014F8013C621E302B01D11446F8E72946504600F09EFB059B6BB12EB19E4203D03146504600F095FB0599504600F091FB01E0DDF820B00499504600F08AFB00233C
:406BC000209A23700BF101031360229B1BB11C6001E008480AE0069808E0B9F1000F3FF7E2AE1E9B022B7FF7DEAEB1E615B0BDE8F08F00BF93820000F0B506694B11B3420F
:406C000000F1140527DA11F01F0105EB860605EB830201D1294616E0141D55F823202B46C1F1200ECA40B44209D2276807FA0EF73A4343F8042B54F8042BCA40F3E71A60BE
:406C400052B1043308E0B2420B4605D252F8043B41F8043BF7E72B465B1B9B10036103B94361F0BDA0F13003092B01D820380AE0A0F16103052B01D8473804E0A0F14103AB
:406C8000052B02D82738C0B27047002070472DE9F04F8BB08A4690460693029000F0CAFA03684FF0000B18460393FEF791FA039B0190034413F8013C0793DAF8003002339E
:406CC0001F4613F8010B302802D10BF1010BF7E7FFF7C8FF0446E0B9019A0399384601F0C3F8002834D1019BF85CFE18FFF7BAFF80B3334618781F46302803F10103F9D06A
:406D0000FFF7B0FFB0FA80F534466D094FF0010B01E000252C463A46164630780132FFF7A1FF0028F8D1019A0399304601F09CF850B954B9019BF41822461646307801320F
:406D4000FFF790FF0028F8D134B1A41BA40003E03E4600E0044601253378502B01D0702B2AD173782B2B08D02D2B03D0711C4FF0000905E04FF0010901E04FF00009B11CD4
:406D80000878FFF76FFF431EDBB2182B14D8A0F1100211F8010FFFF765FF431EDBB2182B04D80A2303FB0202103AF2E7B9F1000F00D05242144400E03146CAF800102DB1E1
:406DC000BBF1000F14BF002006207CE12946F31B013B072B02DD01315B10FAE7029800F043FA4FF000090546CB46019B00F1140AC3F10103CDF810A00893B7422FD2731EB1
:406E00000593079A16F8013C93420BD0BBF1200F16D1049BC3F8009004334FF000090493CB460DE0059B089A13449F42EED81846019A0399099301F017F8099B68B1E5E764
:406E400016F8010CFFF70EFF00F00F0000FA0BF0059B49EA00090BF1040B1E46CDE7049840F8049BCAEB0000801028614701484600F0BFFAD8F80060381AB04226DD871B28
:406E80003946284600F0B7FDC8B17B1E591103F01F024FF001095AF8211009FA02F20A420ED04B4502DC4FF0020909E0B91E284600F0A1FD0028F6D04FF0030900E0814670
:406EC00039462846FFF798FE3C440CE009DA371A29463A46029800F0C1FB0546E41B00F1140A4FF00009D8F808309C4208DD0298294600F0EEF9149A00231360A320E2E02F
:406F0000D8F80400844253DA041BA6422EDCD8F80C30022B1AD0032B1CD0012B1DD1A6421BD1012E0BDCD8F80430069A6220136001232B61CAF80030149B1D60C3E0711E9F
:406F4000284600F058FD0028EDD106E0159B002BE9D002E0159B002BE5D10298294600F0B8F9149A002313605020ACE0671EB9F1000F06D13FB13946284600F03CFD8146BF
:406F800001E04FF001097A11012307F01F0703FA07F75AF8223021461F42284618BF49F00209361BFFF728FE0227D8F8044000E00127B9F1000F00F08180D8F80C30022B56
:406FC0000ED0032B10D0012B76D119F0020F73D0DAF8000049EA000919F0010F07D16BE0159BC3F101031593159B002B64D0D5F810A005F114034FEA8A0903EB09010020FE
:407000001A68B2F1FF3F02D001321A6020E043F8040B9942F4D8AB689A4512DB69680298013100F021F983462A6905F10C01023292000C30FDF716FC2946029800F049F955
:407040005D462B695A1C2A6105EB830301225A61022F05F1140211D1D8F80030013B9E4227D17111012306F01F0603FA06F652F821301E420CBF022701271AE02B699A4513
:407080000ADA01212846FFF7B7FDD8F8083001349C423FF72CAF0BE016F01F0608D0914459F8040C00F0A5F9C6F12006B042E8DB012747F0200701E047F010073846149B60
:4070C0001D60069B1C600BB0BDE8F08FC2F10802920070B5C2F120064368056803FA06F42C43D340046040F8043F8842F4D370BD30B5036811F8014B01334CB11A78A2F1A1
:407100004105192D98BF2032A242F3D0002030BD0360012030BD0B682DE9F04F5E1102EB860613F01F0318BF0436351F174600228246A8462C46914685B0D0F800B00193FC
:4071400046F8042C00921BF8011F00293CD0084603920291FFF786FD039A00BB0299202916D8009B9945EEDD444505D2072A03DC41462046FFF7AAFFBC4223D90023A4F19C
:40718000040844F8043CCDF8009044461A46DAE7292948D10BF10103CAF8003014E00132082A09F1010906DDBC42CCD9002344F8043C0122043C216800F00F0040EA011042
:4071C0002060C0E70822BEE7B9F1000F2BD0444505D2072A03DC41462046FFF777FFBC420CD93B4654F8042BA54243F8042BF9D2002243F8042B9D42FBD20BE0019B4BB166
:40720000C3F120024FF0FF33D34056F8042C134046F8043C2B6843B9BD4202D101232B6003E0043DF6E7042000E0052005B0BDE8F08F0000004870475081FF1F024B014610
