:4000000000800020110000004D1600004D16000008B5044B1A6803F53F5302331A6001F035FB00BFFA46004010B5054C237833B9044B13B10448AFF300800123237010BD80
:40004000C881FF1F00000000A07F0000084B10B51BB108480849AFF300800848036803B910BD074B002BFBD0BDE81040184700BF00000000A07F0000CC81FF1F0881FF1F83
:400080000000000008B5002000F0A0F9FA2000F0D9FA00F069FB01F0D3F908BD08B562B601F0DAFC00F020FD01F0AEFF02F03AF800F07AFDFFF7E6FF08BD00BF08B500F049
:4000C00099F800F0EFF900F0EFFC01F0CFF908BD08B5FFF7E3FF044800F00EFDFFF7EEFF642001F01FFFF9E7A87F000000B583B08DF804008DF805101F2001A902220023AA
:4001000001F024FE01F0F0FE10F0020FFAD003B05DF804FB00B583B08DF8040000238DF800301F2001A90122022301F00FFE01F0DBFE10F0020FFAD01F2069460122134664
:4001400001F06AFE01F0D0FE10F0010FFAD09DF8000003B05DF804FB10B5044600F076FA204B1C70204A00231380538093801F4A1380538093800D20FFF7CCFFC72804D0F2
:400180001B4800F0B9FC002010BD2A200021FFF7ADFF144B1B78012B08D013B1022B0AD00DE00E200021FFF7A1FF08E00E200121FFF79CFF03E00E200221FFF797FF2B20D6
:4001C0000221FFF793FF2A201521FFF78FFF5B201F21FFF78BFF5C202021FFF787FF012010BD00BFE481FF1F9883FF1FF883FF1FC87F00002DE9F04F8BB06B4A0023138098
:4002000053809380694A1380538093808DF82430059306930793ADF820301F2009A90122022301F093FD01F05FFE10F0020FFAD01F2005A90E22012301F0EEFD01F054FED0
:4002400010F0010FFAD09DF815009DF816309DF817B09DF818709DF819A09DF81A609DF81B909DF81C409DF81D2001929DF81E1002919DF81F5003959DF8208043EA00203F
:4002800040F38D0004F04CF80090494D286047EA0B2040F38D0004F043F80746686046EA0A2040F38D0004F03BF80646A86044EA092000B204F034F804460299019A41EACF
:4002C000022000B204F02CF88146039D48EA052000B204F025F88246334D009804F0C4F92880384604F0C0F96880304604F0BCF9A8802E4D204604F0B7F92880484604F04F
:40030000B3F96880504604F0AFF9A880294B1B78012B14D013B1022B22D031E0244D0098254904F051F828603846234904F04CF868603046204904F047F8A86020E01C4D1B
:4003400000981E4904F040F8286038461B4904F03BF868603046194904F036F8A8600FE0134D0098164904F02FF828603846144904F02AF868603046114904F025F8A8606C
:40038000104D2046104904F01FF8286048460E4904F01AF8686050460B4904F015F8A86001200BB0BDE8F08F9883FF1FF883FF1FA483FF1FE481FF1FE7D01C3BE7D09C3BB2
:4003C000E7D01C3C4084FF1FCDCCCC3D08B5FFF7C3FE08BD00B583B08DF804008DF80510212001A90222002301F0B0FC01F07CFD10F0020FFAD003B05DF804FB00B583B023
:400400008DF8040000238DF80030212001A90122022301F09BFC01F067FD10F0020FFAD0212069460122134601F0F6FC01F05CFD10F0010FFAD09DF8000003B05DF804FB61
:4004400010B5044600F002F9124B1C80124B00221A805A809A800C20FFF7D0FFD72804D00E4800F049FB002010BD0D4800F044FB13200021FFF7AEFF13204021FFF7AAFF93
:4004800013200E21FFF7A6FF642001F04BFD012010BD00BFE681FF1F8083FF1FC87F0000EC7F00002DE9F04385B0624A00231380538093808DF80C300193ADF808308DF800
:4004C0000A30212003A90122022301F03FFC01F00BFD10F0020FFAD0212001A90722012301F09AFC01F000FD10F0010FFAD09DF805009DF806309DF807909DF808609DF8E3
:4005000009809DF80A5043EA002000B203F008FF0746494C206046EA092000B203F000FF0646606045EA082000B203F0F9FE0546A060404C384604F097F82080304604F00A
:4005400093F86080284604F08FF8A0803B4B1B88B3F5FA7F1ED002D8FA2B07D055E0B3F57A7F2BD0B3F5FA6F3CD04EE0324C38464FF0705103F028FF206030464FF07051D1
:4005800003F022FF606028464FF0705103F01CFFA0603AE0284C38464FF0725103F014FF206030464FF0725103F00EFF606028464FF0725103F008FFA06026E01E4C3846C7
:4005C0004FF0745103F000FF206030464FF0745103F0FAFE606028464FF0745103F0F4FEA06012E0144C38464FF0765103F0ECFE206030464FF0765103F0E6FE6060284655
:400600004FF0765103F0E0FEA0600B4C20680C4903F0DAFE20606068094903F0D5FE6060A068074903F0D0FEA060012005B0BDE8F08300BF8083FF1F0084FF1FE681FF1FB6
:4006400035FA8E3C08B5FFF7FBFE08BD08B501F003FA08BD00B583B002A901F8040D77200122002301F072FB01F03EFC10F0020FFAD003B05DF804FB08B51E20FFF7EAFFE1
:4006800008BD00BF30B583B0002502AC24F8045DFFF7E0FF7720214602222B4601F0BCFB01F022FC10F0010FFAD09DF804009DF8053043EA002003B030BD00BF10B500245D
:4006C0000BE004F15100400000F0FE00FFF7DAFF034B23F814000134E4B2052CF1D910BDE881FF1F10B582B00024ADF804408DF80640FFF7AFFF772001A90322234601F002
:400700008BFB01F0F1FB10F0010FFAD09DF804209DF805309DF806001B0243EA0243184302B010BD082819D8DFE800F0051809180D181118150001220A4B1A730EE0022265
:40074000084B1A730AE00322064B1A7306E00522044B1A7302E00A22024B1A73014B5873704700BFE881FF1F08B5FFF76FFFFFF783FF0220FFF7D6FF642001F0D3FBFFF708
:400780009DFF012008BD00BF10B5064C607B5030C0B2FFF75FFF207B01F0C4FB0020FFF7A1FF10BDE881FF1F10B5064C607B5030C0B2FFF74FFF207B01F0B4FB0020FFF7F2
:4007C00091FF10BDE881FF1F2DE9F04F83B0FFF7EBFF0190FFF7D8FF644B1A89A0EB02205E88002545EA16453404DE884FEAE07BA6FB002306FB0B3316461F46002A73F137
:40080000000103DA12F17F0643F10007F10941EA4762FB11A4185D4154490A88002747EA5247D603B1F80480A0FB082308FB0B3390469946002A73F1000103DA12F1FF088B
:4008400043F100094FEA182141EA09624FEA292392197B414549897B002960D043494E89A0FB060106FB0B1106460F46002871F1000E03DA3E4E002736184F41F10D41EA6A
:40088000472101F5FA61394800260027C0E90467C0E90667B1F5FA6F16DAA1F5FA6000FB00F000EB800000EBD0767610F717DFF8BCE0CEE904670646002800DAC61CB610F2
:4008C000F7172A48C0E906672A4881421CDA01F2DC5606FB06F6C6EBC60E244FD7E9040110EB0E0041EBEE71C7E9040106EB860106EB410606EBD6767610D7E9060180193C
:4009000041EBE671C7E90601184ED6E90401241A65EB0105D6E90601121A63EB0103019EA6FB020106FB031106460F46002871F1000303DA104E002736184F41710D41EA0C
:40094000C7227B15141B63EB050522462B46002C75F1000104DA47F6FF72002312196B41D00B40EA434003B0BDE8F08FE881FF1FFFFF7F0024FAFFFFFFFF1F00F8B5FFF746
:4009800003FF1A4A1389A0EB0323DF175489A3FB040104FB071104460D46002871F1000203DA134C002524184D41E00D40EA452000F5FA600D4A00211162927B5AB1B0F530
:4009C000FA6F08DA03FB03F3B3F1004F14BF00230123064A1362054B1B6AC01A03F076F80022044B03F002FAF8BD00BFE881FF1FFFFF7F000000594008B503F067F80CA3A7
:400A0000D3E9002303F0F2F90BA3D3E9002301F009FD02460B4600200B4902F009FF08A3D3E9002303F0B8F808BD00BFAFF3008000000000D0BCF84000000060955BC83F80
:400A40000000000040A5E5400000F03FAFF3008070B50E4603F03AF804460D46304603F035F802460B462046294603F0BFF908A3D3E9002301F0D6FC02460B4600200849DA
:400A800002F0D6FE04A3D3E9002303F085F870BD00000060955BC83F0000000040A5E5400000F03FAFF3008010B5FFF76DFE0C4C2060FFF779FE6060FFF760FFC4E902016B
:400AC000FFF782FE2061FFF797FFC4E906012069044B1968FFF7BCFFC4E9080110BD00BF1084FF1FA083FF1F08B501F057FB08BD08B501F06DFB08BD08B501F069FB20208E
:400B000001F078FB08BD00BF08B501F055FB08BD08B501F06FFB08BD00B587B002F0E8FF02460B4601A8044904F0B4FA01A8FFF7DFFF07B05DF804FBF87F000000B587B04C
:400B400002F0D6FF02460B4601A8044904F0A2FA01A8FFF7D1FF07B05DF804FBF87F000000B587B001A90A2203F013FEFFF7C0FF07B05DF804FB00BF00B587B001A90A2297
:400B800003F007FEFFF7B8FF07B05DF804FB00BF034A136801331360024B1B78704700BF1082FF1F6564004008B501F099FB024801F0BEFB08BD00BF910B0000014B186826
:400BC000704700BF1082FF1F204B1B78002B39D110B501F03FFA002836D001F031FAC0B20A281FD1194B59681A7AD2B200248C540C33994208D10C3B03F184025A6003F12C
:400C00000C02C3F8FC2007E0104B03F10C025A6003F18402C3F8FC200C4B00221A72012283F80021094B5C681A7AD2B2511CC9B21972A0541B7ADBB2772B06D97722034B9B
:400C40001A7210BD00207047002010BD1482FF1F08B501F017FA08BD014B93F8000170471482FF1F034B002283F80021D3F8FC00704700BF1482FF1F2F280BD9392802D869
:400C80003038C0B27047402806D9462806D83738C0B270470020704700207047002070472DE9F04184B0054604F026FA0746061FAB5D2A2B16D1C31EE85CFFF7DDFF00016B
:400CC00084B2023FE85DFFF7D7FF204480B2022303E0EA5C50400133DBB29E42F9D8002840F088832846A64904F020FA002800F0B98128462C2104F0F1F9441C204603F014
:400D0000F9FC03F003FA054603F0D4FC9D4BA3FB00235B0B9C4E86F8083142F2107202FB13039A4AA2FB03135B0986F80731A2FB00235B09642202FB130386F806312846B6
:400D400002F0D6FE0022924B01F012FB0022914B02F022FF03F0BAF9A6F80C0120462C2104F0BCF90546461C43782C2B5DD001A83146022204F0C8F9EE1C4FF0000804AF09
:400D800007F80A8D01A803F0BCFC834C04FB00F401A83146022204F0B7F9AE1D38463146042204F0B1F98DF80A8001A803F0A9FC322303FB00F0794B83FB0023A3EBE07045
:400DC0002318714DC5F83031754B83FB0423E417C4EB633403F0A4FA724903F0F5FA0746204603F09DFA394603F0E6F90746C5F82C016D4903F09CFB03F036FC0446642010
:400E000000FB04F003F08CFA0146384603F0D2F9664903F08DFB0746204603F081FA0146384603F0C9F9C5F8340130462C2104F055F9421C43782C2B1DD0532B06D15248BF
:400E4000D0F8341101F10041C0F834114E2B04D14E214D4B83F80A110DE0532B04D15321494B83F80A1106E02C2B40F0C5820021454B83F80A1110462C2104F02FF9054667
:400E8000461C43782C2B5CD001A83146032204F03BF92E1D00278DF8077001A803F031FC3D4C04FB00F401A83146022204F02CF9EE1D0DF106003146042204F025F98DF8D2
:400EC0000A7001A803F01DFC322303FB00F0334B83FB0023A3EBE07023182B4DC5F838312F4B83FB0423E417C4EB633403F018FA2C4903F069FA0746204603F011FA39464A
:400F000003F05AF90746C5F82801274903F010FB03F0AAFB0446642000FB04F003F000FA0146384603F046F9204903F001FB0746204603F0F5F90146384603F03DF9C5F8FA
:400F40003C0130462C2104F0C9F8421C43782C2B35D0572B06D10C48D0F83C1101F10041C0F83C11572B04D15721074B83F8091125E0452B1CD14521034B83F809111EE0EE
:400F8000FC7F00005917B7D11482FF1F1F85EB510000F03F00408F40809698005655555589B5F8149C53C9360000C842000070422C2B40F023820021954B83F809111046DD
:400FC0002C2104F08BF8441C43782C2B05D0204603F093FB8E4B83F8020120462C2104F07DF8441C43782C2B05D0204603F085FB874B83F8010120462C2104F06FF8441CAF
:4010000043782C2B07D0204603F074FB03F07EF87F4BC3F8100120462C2104F05FF8441C43782C2B07D0204603F064FB03F06EF8774BC3F8200120462C2104F04FF80130EB
:401040002C2104F04BF8421C43782C2B00F0D881104603F04FFB03F059F86D4BC3F824010120D8E128466B4904F060F8002800F0C98128462C2104F031F8441C204603F089
:4010800039FB03F043F8054603F014FB624BA3FB00235B0B5E4E86F8083142F2107202FB13035E4AA2FB03135B0986F80731A2FB00235B09642202FB130386F8063128462C
:4010C00002F016FD0022564B01F052F90022554B02F062FD02F0FAFFA6F80C0120462C2103F0FCFF421C4378412B03D1012186F80B1106E0562B40F087810021444B83F8C3
:401100000B1110462C2103F0E9FF0546461C43782C2B5DD001A83146022203F0F5FFEE1C4FF0000804AF07F80A8D01A803F0E9FA3D4C04FB00F401A83146022203F0E4FF4F
:40114000AE1D38463146042203F0DEFF8DF80A8001A803F0D6FA322303FB00F0334B83FB0023A3EBE0702318294DC5F83031304B83FB0423E417C4EB633403F0D1F82D499C
:4011800003F022F90746204603F0CAF8394603F013F80746C5F82C01274903F0C9F903F063FA0446642000FB04F003F0B9F80146384602F0FFFF214903F0BAF907462046B7
:4011C00003F0AEF80146384602F0F6FFC5F8340130462C2103F082FF421C43782C2B36D0532B06D10A48D0F8341101F10041C0F834114E2B04D14E21054B83F80A1126E07E
:40120000532B1DD15321024B83F80A111FE000BF1482FF1F048000005917B7D11F85EB510000F03F00408F40809698005655555589B5F8149C53C9360000C84200007042E8
:401240002C2B40F0E3800021744B83F80A1110462C2103F043FF0546461C43782C2B5CD001A83146032203F04FFF2E1D00278DF8077001A803F045FA694C04FB00F401A82B
:401280003146022203F040FFEE1D0DF106003146042203F039FF8DF80A7001A803F031FA322303FB00F05F4B83FB0023A3EBE07023185A4DC5F838315B4B83FB0423E4170A
:4012C000C4EB633403F02CF8584903F07DF80746204603F025F8394602F06EFF0746C5F82801534903F024F903F0BEF90446642000FB04F003F014F80146384602F05AFF92
:401300004C4903F015F90746204603F009F80146384602F051FFC5F83C0130462C2103F0DDFE421C43782C2B1CD0572B06D13B48D0F83C1101F10041C0F83C11572B04D102
:401340005721364B83F809110CE0452B04D14521324B83F8091105E02C2B59D100212F4B83F8091110462C2103F0B8FE441C43782C2B07D0204603F0BDF902F0C7FE274BD3
:40138000C3F81C0120462C2103F0A8FE441C43782C2B07D0204603F0ADF902F0B7FE1F4BC3F8180120462C2103F098FE421C43782C2B2FD0104603F09DF902F087FE1E4B72
:4013C000A3FB00235B0B154981F8033142F2107202FB1303194AA2FB03435B0981F80431A2FB00235B09642202FB130381F80531012010E000200EE000200CE000200AE0F9
:40140000012008E0002006E0002004E0002002E0002000E0012004B0BDE8F0811482FF1F809698005655555589B5F8149C53C9360000C842000070425917B7D11F85EB5129
:4014400008B50748FFF704FC0648FFF701FC0648FFF7FEFB4FF47A7000F064FD012008BD78800000AC800000BC80000038B5FFF7ABFBFFF7F1FB002846D0FFF7F3FBFFF7A5
:401480000FFC0346002800F0BF80FFF797FB5F4B18645F4A92F80811197092F80711597092F806119970B2F80C11D98092F80311597192F80411197192F80511D97092F8C5
:4014C0000B1183F83B1092F8022183F83C20D9B14F4AD2F82C11996092F80A1183F83810D2F82811D96092F8091183F83910D2F81C119962D2F81811D962D2F82011596281
:4015000092F8012183F83D20FFF758FB404BC3F850014048FFF7ECFA3C4C2078FFF720FB3D4D2846FFF7E4FA6078FFF719FB2846FFF7DEFAA078FFF713FB3848FFF7D8FA64
:40154000E088FFF719FB3648FFF7D2FA6079FFF707FB2F20FFF7D8FA2079FFF701FB3148FFF7C6FAE078FFF707FB2F48FFF7C0FA94F83B00FFF7F4FA2C48FFF7B9FA94F84C
:401580003C00FFF7F9FA94F83B30002B3BD02848FFF7AEFAA068FFF7BFFA94F83800FFF7B3FA244D2846FFF7A3FAE068FFF7B4FA94F83900FFF7ACFA1F48FFF799FAA069F5
:4015C000FFF7AAFA2846FFF793FAE069FFF7B6FA1A48FFF78DFAA06AFFF7B0FA1848FFF787FAE06AFFF7AAFA1648FFF781FA606AFFF7A4FA1448FFF77BFA94F83D00FFF77A
:40160000BBFA012300E00123184638BDB083FF1F1482FF1FCC800000D4800000D8800000DC800000E4800000E8800000F0800000FC800000088100000C8100003C81000096
:401640004C810000548100006081000008B503F05DF803680C2B00D1FEE7FEE708B5094B1A681044084BC31AB3F5007F02DC054B186005E003F04AF80C2303604FF0FF32A5
:40168000104608BD0C81FF1F6884FF1F08B5104E104D16E029686B68AC68002204E051F8040B43F8040B0432A242F8D1E868002203E0002143F8041B04328242F9D1103510
:4016C000013E002EE6D103F027F8FEF701FDFEE7010000000C85000008B5124A124B1A60124A136843F40073136000230AE0032B03D80F4A52F8231000E00E490E4A42F8B1
:40170000231001332F2BF2D90C4B1A780C4B1A70094A0C4B1A6000F0BBF800220A4B1A6008BD00BF0004FA050CED00E014ED00E0000000004D1600000080FF1FBC760040E7
:401740000481FF1F08ED00E00081FF1FFEE700BFF0B40022174611E050F82760F3B226F0FF0608E001EB420511F812406D78A5550132013BDBB2002BF4D10137212FEBD97E
:40178000F0BC7047064B1B78DBB203F00701054A11701B09013213704422034B1A707047CF0100496E5800407658004008B50A46002102F0FBFF08BD38B51925284B1D8074
:4017C0001823284A137002321580023213704FF49C7102321180023213700222224B1A7008224FF040231A70032103F5007319701E4B1B78DBB21E490B701E4B1A8041F243
:401800005122023B1A8000240CE01B4B1B7803F0010343EA440404F003044FF4F07000F097FD013D0DB1032CEFD115B90320FFF78DFF124B4FF480721A8007221A70002268
:401840000F490A704820023108701A700222033B1A700C4A137843F00703137038BD00BF80400040824000400043004008010049A1460040224200402542004004400040EB
:4018800006400040A243004008B502F084FF08BD38B572B63A4A137843F00403137000240CE0384963001A1952000A4423445B00C8589188FFF77AFF0134E4B2072CF0D9AD
:4018C00000240FE02F49A3001A1952000A4452F8300F23445B000B4451681A8FFFF7D4FF0134E4B2012CEDD94FF090402649FFF72FFF264A137843F002031370103213783F
:4019000043F002031370224C237843F040032370A2F58632513A137843F0100313701D481D490A22FFF7B0FF1C481D490A22FFF7ABFF1C481C490A22FFF7A6FF1B481C4922
:401940000822FFF7A1FF1B481B490822FFF79CFF1A4A137843F008031370194D61232B70FFF72AFF81232B700122164B1A70FFF709FF154821460E22FFF786FF38BD00BF63
:40198000E8460040708100008800004803500140A043004000510040A80C0048C0510040B40C0048F0510040C00C004812510040CC0C004822510040D40C00482243004083
:4019C0000048004004000840B043004038B50222114B1A7081220E3B1A70082202331A700F2511331D70002401331C704FF400420A4B1A602846072100F0BEFA2846084950
:401A000000F0A6FA1022074B1A70074B1C70074B1C70074B1C7038BDD649004080E100E0811A00004C84FF1F5284FF1F5A84FF1F5084FF1F08B500F093FC064A137843F024
:401A4000040313701032137843F00403137000F08BFC08BDA543004008B5074B1B7823B9FFF7B4FF0122044B1A70FFF7E3FF4FF40042024B1A6008BD6883FF1F00E100E018
:401A800038B5A44B1C78E4B2A34B1B7813F0400F00F0378114F0010F00F01B819E4B1B78453B052B00F21281DFE813F006008200100110010600DE0004F0DF0504F00A0422
:401AC000082C42D1944B1B78DBB2452B35D1934B1B7813F0FF0F10D0914B1B681B78DBB2904A137004228B4B1A7001228E4B1A704622894B1A702C46EBE08C4B1B7813F070
:401B0000020F0DD08A4A137843F00A0313706022814B1A704FF40042864B1A602C46D8E0854A137843F0100313701022834B1A700422023B1A702C46CBE00022754B1A70A0
:401B40004A22754B1A702C46C3E00A2C2BD1784A137843F0A0031370744B1B7813F0020F14D06D4B1B7813F0080F01D0092300E00A236F4A11780B4313706022664B1A7039
:401B80004FF400426B4B1A602C46A2E06A4A137843F0100313701022684B1A700422023B1A702C4695E0002000F0BAF92C4690E014F0020F35D15C4B1B78584A1278DBB27E
:401BC000934210D2584A1378DBB255490968CB5CDBB254490B7004214E4B197013780133DBB2137075E0514B1B7813F0020F0CD04F4A137843F00A0313706022464B1A708B
:401C00004FF400424B4B1A6063E04B4A137843F0100313701022494B1A700422023B1A7057E0424B1B7813F0020F0CD0404A137843F09A0313706022374B1A704FF40042E4
:401C40003C4B1A6045E03C4A137843F01003137010223A4B1A700422023B1A70344A137843F09003137034E0354A1378DBB2354908682C490978C9B2C15413780133DBB279
:401C800013701378304A1278DBB2934203D21022204B1A701DE0254B1B7813F0020F0CD0234A137843F00903137060221A4B1A704FF400421F4B1A600BE01F4A137843F01E
:401CC000100313700022134B1A7002E0002000F027F914F0200F1CD00F4B1B7813F0080F01D0012300E00223114A11780B431370114A137803F0EF0313701022064B1A7002
:401D000038BD054B1B7813F0100F02D11022024B1A7038BDD74900404C84FF1F5184FF1F5C84FF1FD84900405084FF1F5884FF1F5284FF1F80E100E0D6490040D949004056
:401D40005A84FF1F5484FF1F5984FF1F002948D070B40C4626490978C9B2102906D12549097811F0080F11D1002112E020490978C9B260290CD14FF400451F490D601F4DB4
:401D8000297801F0F7012970002102E0012100E0022149BB4526164D2E700026184D2E70184D2A70184A1460184A1370134C227802F0FD0222704200D2B21548027013F071
:401DC000010F06D012220B4B1A700422023B1A7002E00122074B1A704FF400420D4B1A6002E0022108467047084670BC704700BF4C84FF1FD949004080E200E05284FF1F44
:401E00005084FF1F5184FF1F5C84FF1F5884FF1FD849004000E100E000294AD070B40C4627490978C9B2102906D12649097811F0080F11D1002112E021490978C9B2602982
:401E40000CD14FF4004520490D60204D297801F0F7012970002102E0012100E0022159BB4926174D2E700026194D2E70194D2A70194A1460194A1370144C227802F0FE0217
:401E800022704200D2B242F001021548027013F0010F06D012220B4B1A700422023B1A7002E00122074B1A704FF400420D4B1A6002E0022108467047084670BC704700BFAA
:401EC0004C84FF1FD949004080E200E05284FF1F5A84FF1F5984FF1F5484FF1F5884FF1FD849004000E100E04FF40042084B1A60084B1878C0B2084B1B7813F0400F01D0A3
:401F000040F004004FF40042044B1A60704700BF80E100E05284FF1F4C84FF1F00E100E001BE704710B5044605E0084B186800F00FFAA4F50044B4F5004FF6D8034B5868DE
:401F400000FB04F000F004FA10BD00BF1081FF1F70B504460E46074B1D681F2802D90020FFF7DEFF04F01F04103455F8240045F8246070BD08ED00E038B504460D46072951
:401F800002D90020FFF7CCFF1F2C02D90020FFF7C7FF04F01F0000F1604000F564406D01EDB2057038BD00BF7222084B1A70202204331A7006225D3B1A70472210331A70FC
:401FC000002203F5A7731A70704700BF8264004010B500F0C5F904460A4A137843F0200313700432137843F01003137002F20112137843F01003137000F056F8204600F099
:40200000B3F910BD9264004008B5054B1B7823B9FFF7CAFF0122024B1A70FFF7D9FF08BD6983FF1F014B1878704700BF46640040024B187800F07F00704700BF6664004017
:4020400010B5FFF7F5FF0402FFF7ECFF204380B210BD00BF044B1B7813F0200F01D0012070470020704700BF66640040034B1B7813F0040FFAD1024B1870704767650040F2
:402080004064004038B5074B1B782BB938BDFFF7EDFF0134A4B201E005460024285D0028F5D138BD6983FF1F054A137843F0040313701032137843F004031370704700BFCB
:4020C000A24300407222084B1A70202203F201131A700622623B1A70472210331A70002250331A70704700BF8964004010B500F037F904460A4A137843F02003137002F243
:402100000112137843F010031370023A137843F01003137000F07EF8204600F025F910BD9964004008B5054B1B7823B9FFF7CAFF0122024B1A70FFF7D9FF08BD6B83FF1FF0
:402140007222074B1A702022FE3B1A700622A0331A70472210331A700022B43B1A7070478565004010B500F0FBF804460A4A137843F020031370FE3A137843F0100313707D
:40218000043A137843F01003137000F051F8204600F0EAF810BD00BF9565004008B5054B1B7823B9FFF7CCFF0122024B1A70FFF7D9FF08BD6D83FF1F034B1B7813F0040F87
:4021C000FAD1024B18707047636400404764004038B5074B1B782BB938BDFFF7EDFF0134A4B201E005460024285D0028F5D138BD6D83FF1F08B5064B1B783BB1FFF7DCFF5A
:402200000D20FFF7D9FF0A20FFF7D6FF08BD00BF6D83FF1F054A137843F0010313701032137843F001031370704700BFA2430040054A137843F0020313701032137843F0D1
:4022400002031370704700BFA2430040024A137843F080031370704774640040014B1870704700BF85640040014B1878704700BF65640040014B1A681860704722640040CB
:40228000014B1868704700BF42640040014B1A68186070470264004008B501E0FFF7F0FFFFF7E2FF10F0080FF8D108BD08B545F6BF50FFF7DFFF45F6BF50FFF7E7FF00F063
:4022C0004FF8064A137843F01003137000F04CF8FFF7E2FF0120FFF7C1FF08BD9564004008B5054B1B7823B9FFF7E0FF0122024B1A70FFF7ABFF08BD6F83FF1F014B1B6884
:402300001864704708ED00E04001C0B2014B1870704700BF00E400E00122014B1A60704700E100E00122014B1A60704780E100E010B50446FFF7F6FF2046FFF7DFFF072037
:40234000FFF7E2FFFFF7E8FF10BD00BF000000000230800803D000BF01380046FCD17047EFF3108072B6704780F31088704700BF2DE9F0478AB01F4680468946164600F02F
:40238000C9F9DFF89CA004469AF900300D46013304D03046394601F003F920B9204629460AB0BDE8F0874046494601F0F9F80028F4D0304639460022002301F055FE0028F1
:4023C000ECD016499AF8004001220023CDE90289CDE9046701910092089394B10020002102460B4601F002FD022CCDE906010AD102F08CF921230360089B53B9DDE906011A
:40240000CEE7CDE90689684601F0F6F80028F3D1EEE702F07BF9089B0360EFE7B48100002081FF1F2DE9F04F8BB01F4680468946164600F095FADFF8D8A204469AF900305B
:402440000D46013304D03046394601F0A9F820B9204629460BB0BDE8F08F4046494601F09FF8834660BB304639460022002301F0FBFD0028ECD09AF900309E4C01229E49AE
:4024800000208DE814005A1CCDF820B0CDE90289CDE90467CDE906010DD0022B0BD0684601F0AAF8002800F09380089B1BB102F02DF9089B0360DDE906010BB0BDE8F08FBF
:4024C000404649460022002301F0CEFDF8B1304639460022002301F0C7FD834600284ED084489AF900300121002200240025CDE90289CDE90467CDE90645019000910892E4
:40250000002BCCD07C4B0022CDE90623D3E72046294601F03FF8834600285ED0204629460022002301F0A0FD002891D04046494601F030F800288BD03046394601F02AF84C
:40254000002885D09AF900306A480421002200240025022BCDE90289CDE90467CDE9064501900091089200F08880684601F044F8002800F08280089B002B9CD097E7304672
:40258000394601F007F800283FF462AF304639460022002301F072FD00283FF459AF55499AF800300122CDF820B0CDE90289CDE9046701910092002B3CD050490020022B88
:4025C000CDE9060130D102F0A1F821230360D2E702F09CF82123036067E74046494600F0D9FF00289AD03046394600F0D3FF002894D02046294600F0D3FF00BB3D4A9AF89A
:40260000004001230890CDE90289CDE90467019200937CB10020002102460B4601F0E6FB022CCDE90601CED0684600F0E5FF0028A1D1C8E700220023CDE90623F4E72D4974
:402640009AF900300322CDF820B0CDE90289CDE9046701910092ABB9294D4FF060444046494600220023CDE9064501F007FD50BB9AF90030022B7FF478AF02F047F822233F
:40268000036078E71F4D00244046494600220023CDE9064501F0F2FC0028E9D000221A4B3046394601F078FA04460D4600F0ACFF22462B4601F0D8FC0028D9D10F4B0022AA
:4026C000CDE90623D4E700220F4B3046394601F063FA04460D4600F097FF22462B4601F0C3FC0028C4D1094B4FF06042CDE90623BEE700BFBC8100000000F03F0000F0FF45
:40270000FFFFEF470000F07F0000E03FFFFFEFC72081FF1F2DE9F84F23F0004959EA02069846154621D001F00046DFF828C286EA010EE64519DCC2F1000C4CEA020CDFF8C5
:4027400018B249EADC7CDC450FD8CE4582460446174612DC0FDB90420DD30ED1784BF60F03EBC60393E8030005E001F015FA02460B4601F03BFBBDE8F88FBEF5801F0EDA09
:40278000BEF1000F40F09E80BAF1000F53466D4909DD5B00002B01F1FF31FADC03E04FEA2E51A1F2FF31B9F5801F0EDAB9F1000F40F0A080002D2B46DFF888C109DD5B0005
:4027C000002B0CF1FF3CFADC03E04FEA295CACF2FF3C5D4B994256DBCEF3130242F48012594B9C455EDBC8F3130545F48015CCEB010107E053EA000212D0C20F02EB4302B1
:4028000044000139E01B531B89B1BC4238BF03F1FF33002BEEDAE30F03EB42026400F0E7474BF60F03EBC60696E80300A3E71D46A74288BF03F1FF35002DB4BF1546E41BF9
:4028400055EA0403ECD0414A954208DCE30F03EB450595420CF1FF3C4FEA4404F6DD3A4B9C4551DA384ACCEB0202142A56DC0CF21E4CD44005FA0CF3234345FA02F242EA06
:402880000601184677E7304B5B1A1F2B2CDC01F21E420EFA03FE2AFA02F20AFA03F44EEA02029DE7284BCCEB03031F2B16DC0CF21E4009FA03F925FA00F005FA03F749EAE2
:4028C000000594E74FEACE23002B1F497FF76BAF5B00002B01F1FF31FADC64E71C4B0027CCEB03039D4082E7194B00245B1A0AFA03F275E7DFF850C04FEAC9235B00002BCD
:402900000CF1FF3CFADC64E7A5F580152E430CF2FF3C46EA0C53204619462CE71F2A08DC0CF21E4CD44005FA0CF545EA04033246A5E7074B3246CCEB030345FA03F39EE7DA
:40294000C0810000EDFBFFFF02FCFFFFFFFF0F00E2FBFFFFFFFFEF7F0000F07F000000002DE9F04F144623F00047024657EA04000E468FB01D469C46214634D06E4B26F0C9
:40298000004A9A459346B14626DC24D09F4223DC694B9F4200F08F80B9F1000FC0F28F804FF0000879BB644B9F4200F0A580634B9F4267D0BCF1804F00F0E283604B9C45F7
:4029C00021D1B9F1000F1EDB104631460FB0BDE8F04F00F015BD62B10AF1404000F5801050EA0B0007D10346544918460FB0BDE8F08F5745CCDD53480FB0BDE8F04F00F037
:402A0000FDBD4FF0000810463146CDF808C0009200F0BCFD009ADDF808C0BBF1000F20D04FEAD97909F1FF3958EA09037AD0464B9F4240F38F8003F104739F4240F3108402
:402A4000424B9A4540F39283BCF1000F40F3928337A1D1E900010B46024601F09DF80346C3E7BAF1000F04D0344B29F0404E9E45D6D1BCF1000FC0F2B683B9F1000F08DB78
:402A80000346B2E7BCF1000FC0F2528413463146ABE70AF1404A0AF5801A58EA0A0340F05E8402460B4600F0C3FE0B46024601F09DF9034699E700293FF46EAF8CE7244B81
:402AC0009F422CDCA3F154739F427FF769AF40F213403B15834240F34B84C3F58663033321FA03F000FA03F38B427FF459AF00F00100C0F1020855E70AF1404303F5801379
:402B000053EA0B0300F03983104B9A4540F36483BCF1000FC0F22E832346294665E74FF002083FE7104631463346BCE7AFF300809C7500883CE4377E0000F07F0000F03F81
:402B40000000E03F6C8100000000E041FFFFEF3FFFFF3F43BAF5801F4FF0000205DACA4B01F01AF88A466FF034024FEA2A53C74ECAF3130AA3F2FF334AF07F571344B245C7
:402B80000C9347F4401740F3D083C14B9A4540F307840026B4460C9BA7F5801701330C933946BC4B4FEACC0C6344D3E900AB52465B46CDF834C0CDE9060100F039FE5246D5
:402BC0005B46CDE90801DDE9060100F033FE02460B460020B04901F009F902460B46DDE90801CDE90A2300F0D7FF02460B46CDE90223CDE904237B1043F0005303F5002354
:402C000099190020002306460F460293DDE902231046194632463B46CDE9000100F0BCFF02460B46DDE9080100F002FE5246CDE908015B463046394600F0FAFD02460B46A9
:402C4000DDE9060100F0F4FD02460B46DDE9000100F0A2FF02460B46DDE9080100F0E8FDDDE90A2300F098FFDDE90423CDE906011046194600F090FF02460B4606460F46E6
:402C800000F08AFF6EA3D3E9002382468B463046394600F081FF6CA3D3E9002300F0CAFD32463B4600F078FF69A3D3E9002300F0C1FD32463B4600F06FFF67A3D3E90023CF
:402CC00000F0B8FD32463B4600F066FF64A3D3E9002300F0AFFD32463B4600F05DFF62A3D3E9002300F0A6FD02460B465046594600F052FFDDE9042306460F46DDE900013F
:402D000000F098FDDDE9062300F046FF32463B4600F090FDDDE9006782468B4632463B463046394600F038FF00225C4BCDE9080100F080FD52465B4600F07CFD02980F4613
:402D40000646DDE9000132463B4600F025FF32463B46CDE90001DDE9060100F01DFF0022CDE906014D4B3046394600F061FDDDE9082300F05DFD02460B465046594600F0F7
:402D800057FDDDE9042300F007FF02460B46DDE9060100F04FFD82468B46DDE9000152465B4600F047FD32A3D3E9002302980F46064600F0F1FE30A3D3E90023CDE9040132
:402DC0003046394600F0E8FEDDE90023CDE906013046394600F02CFD02460B465046594600F026FD26A3D3E9002300F0D5FE02460B46DDE9060100F01DFDDDF834C0284B5C
:402E0000CDF818C06344D3E9002300F013FDCDE900010C9800F05AFE06460F46DDE90401204BDDF818C09C44DDE90023DCE900AB00F000FD52465B4636E000BFAFF30080F2
:402E4000EF4E454A287ECA3F65DBC9934A86CD3F01411DA96074D13F4D268F515555D53FFFAB6FDBB66DDB3F033333333333E33F000000E009C7EE3FF5015B14E02F3EBEC0
:402E8000FD033ADC09C7EE3F000040438E98030079B60B00F08100000000F03F00000840E0810000D0810000CDE906AB00F0C2FC32463B4600F0BEFC029832463B4682466C
:402EC0008B4600F0B5FCDDE9062300F0B1FCDDE9042300F0ADFC02460B46DDE9000100F0A7FCCDE9020108F1FF3858EA09030CBFD54BD64B0022CDE904230023CDE90045FB
:402F00000093DDE90067204632463B46294600F08FFC52465B4600F03FFEDDE90223804689462046294600F037FE02460B464046494600F07FFC04460D4652463046394665
:402F40005B46CDE9024500F027FE06460F4620463B462946324600F06DFCBD4B824699428946884640F3138101F13F4303F5E003034340F0E581A0A3D3E90023DDE90201B1
:402F800000F058FC324604460D463B465046494600F04EFC02460B462046294601F08CF8002840F0CD814C462015A0F2FE304FF4801101414144C1F30A50A64CA0F2FF3567
:402FC000C1F3130BC0F5826003302C414BF4801B21EA040300224BFA00FB3946304600F027FC06460F46DDE902018BEAE87B0BEBD87B32463B464FEA0B5A00F01BFC80A326
:40300000D3E90023002420460D4600F0C5FD3246804689463B462046294600F009FC02460B46DDE9020100F003FC77A3D3E9002300F0B2FD76A3D3E9002306460F462046E2
:40304000294600F0A9FD02460B463046394600F0F1FB06460F4632463B464046494600F0E9FB42464B4604460D4600F0E1FB02460B463046394600F0DBFB2246804689468B
:403080002B462046294600F087FD63A3D3E9002306460F4600F080FD61A3D3E9002300F0C7FB32463B4600F077FD5FA3D3E9002300F0C0FB32463B4600F06EFD5CA3D3E9D6
:4030C000002300F0B5FB32463B4600F065FD5AA3D3E9002300F0AEFB32463B4600F05CFD02460B462046294600F0A2FB06460F4632463B462046294600F04EFD0022CDE98E
:4031000000014FF080433046394600F091FB02460B46DDE9000100F069FE424606460F464B462046294600F037FD42464B4600F081FB02460B463046394600F079FB2246D2
:403140002B4600F075FB02460B4600203F4900F06FFB8A44BAF5801F0246C0F227815346DDE9040100F018FD03463EE4BCF1000FFFF66EAC0023194637E40B46334934E404
:4031800033461046314600F007FD03462DE4324B21F000449C4240F3FA80304B0B4403430CD132463B4600F043FB02460B46DDE9020100F06DFF00283FF4F6AE20A3D3E9CE
:4031C0000023DDE9040100F0E7FC1DA3D3E9002300F0E2FC034608E4BCF1000FCADA234605F1004101E402460B460020174900F0FDFD42E4AFF30080FE822B654715973CFD
:4032000000000000432EE63FEF39FAFE422EE63F396CA80C615C20BED0A4BE726937663EF16BD2C541BDBB3E2CDE25AF6A56113F93BDBE166CC1663F3E5555555555C53FAE
:4032400059F3F8C21F6EA5010000F0BF0000F03FFFFF8F40FFFF0F00FFCB904000346F3F634B9A4582DD634B9A453FF7EDAB0022604B00F0DDFA54A3D3E9002306460F468F
:4032800000F08AFC52A3D3E90023CDE900013046394600F081FC3246CDE902013B463046394600F079FC002282468B4630463946514B00F071FC02460B4647A1D1E90001BA
:4032C00000F0B6FA32463B4600F066FC02460B4600204A4900F0ACFA02460B465046594600F05AFC3EA3D3E9002300F055FC02460B46DDE9020100F09BFA06460F46DDE99E
:40330000000132463B4600F095FADDE90023002082468B4600F08CFA02460B463046394600F086FACDE90201DDE50026B44637E4334600202F4900F059FD0346FFF755BBA2
:4033400029A3D3E90023DDE9040100F025FC26A3D3E9002300F020FC0346FFF746BBB8F1010F03467FF441AB01F10041FFF73DBB00297FF446ABC3F58263033347FA03F0BC
:4033800000FA03F3BB4217D08846FFF710BB1B4B9C423FF709AEDDE90023924693462EE64FF480264FF0010CFFF7FABB5A4600F0BBF902460B46D3E600F00100C0F10208A9
:4033C000FFF7F5BAAFF30080000000604715F73F44DF5DF80BAE543E555555555555D53FFE822B654715F73F9C7500883CE4377EFEFFEF3F0000F03F0000D03F0000E03FA7
:403400002DE9F041604E0C46B6460E40764505460B4600F098800029024676DD5FEA215E00F08180AEF2FF3EC3F313031EF0010F43F480135ED100273C46D10F01EB4303A4
:403440004FEA6E0E520016204FF4001165189D424FEAD2764FEA420202DC5B1B6C180F44013806EB43034FEA5101EFD1844620264FF000410AE0A34220D0D50F013E4FEAD0
:40348000510105EB43034FEA420220D09C420CEB0105F0DA002D05EB010C09DBA0461B1B954288BF03F1FF334446521B0844E4E7BCF1000FF2DB04F10108F0E7954217D8D2
:4034C000002D05EB010C48DB98460023ECE7134315D140087B1003F17F5303F50013FA0703EB0E57394648BF40F00040BDE8F0811C46C2E7D10F01EB430352009BE7411C1D
:4035000031D000F001031844E3E721F000460643ECD079BB8E46D30AAEF1150E5205002BF9D0DC0222D400215B00D80201F10101FAD5C1F10100C1F1200422FA04F4234332
:4035400086448A406EE702460B4600F025FB2A46234600F06FF9BDE8F081BCF1000FAADAA0460023A0E701373046B3E7202401200021E2E702460B4600F05AF902460B4696
:4035800000F034FCB2E700BF0000F07F21F00041704700BF41F0004101F58010C00F704710B431F0004408D0114BA1F580129A4208D804205DF8044B704718B902205DF8D6
:4035C000044B704701F1FF41094B01F5E0019942EFD9B4F5801F01D20320EBE7054B9C4201D00020E6E7B0FA80F04009E2E700BFFFFFDF7F0000F07F0020704700200149D2
:40360000704700BF0000F87FF0B5C1F30A5EAEF2FF35132D83B002460B460C464FEAD17607462EDC002D48DB3C49294101EA030010432BD049080B4053EA02070CD04FF457
:403640008023132D24EA010143FA05F444EA01040CBF4FF0004700273149234601EBC606D6E900453A462046294600F0E3F8CDE90001DDE9000122462B4600F0D9F803B0EC
:40368000F0BD332D06DDB5F5806F43D01046194603B0F0BDAEF2134E4FF0FF3121FA0EF10142F3D049080142D6D04FF0804320EA010143FA0EF70F43CEE721F000410143A2
:4036C000E4D0C3F3130141EA000CCCF1000141EA0C0C13495C0C4FEA1C3C0CF4002C640401EBC6014CEA0403D1E900452046294600F0A0F8CDE90001DDE9000122462B4688
:4037000000F096F8024621F0004141EAC67310461946BDE700F08EF8BAE700BFFFFF0F000082000000000000F8B5C1F30A5604460D460B46174616BB21F00043034332D0D6
:403740000022314B00F028FA304A044697420D460B4637DB40F2FE72C1F30A56363E3E44964215DD24A1D1E9000122462B4600F053F821A3D3E9002300F00EFAF8BD40F2BA
:40378000FF72964224D040F2FE723E449642E9DC002E09DD23F0FF4323F4E00343EA065520462946F8BDF8BD16F1350F15DA4CF250339F42D6DC12A1D1E9000122462B460C
:4037C00000F02AF80EA3D3E9002300F0E5F9F8BD02460B4600F02EF8F8BD23F0FF4323F4E003363643EA0655204629460022084B00F0D2F9F8BD00BF9C7500883CE4377E16
:4038000059F3F8C21F6EA50100005043B03CFFFF0000903CAFF3008003F0004321F0004243EA0201704700BF81F0004102E000BF83F0004330B54FEA41044FEA430594EA4A
:40384000050F08BF90EA020F1FBF54EA000C55EA020C7FEA645C7FEA655C00F0E2804FEA5454D4EB5555B8BF6D420CDD2C4480EA020281EA030382EA000083EA010180EADB
:40388000020281EA0303362D88BF30BD11F0004F4FEA01314FF4801C4CEA113102D0404261EB410113F0004F4FEA03334CEA133302D0524263EB430394EA050F00F0A78028
:4038C000A4F10104D5F1200E0DDB02FA0EFC22FA05F2801841F1000103FA0EF2801843FA05F359410EE0A5F120050EF1200E012A03FA0EFC28BF4CF0020C43FA05F3C018C4
:4039000051EBE37101F0004507D54FF0000EDCF1000C7EEB00006EEB0101B1F5801F1BD3B1F5001F0CD349085FEA30004FEA3C0C04F101044FEA445212F5800F80F09A80F0
:40394000BCF1004F08BF5FEA500C50F1000041EB045141EA050130BD5FEA4C0C404141EB010111F4801FA4F10104E9D191F0000F04BF01460020B1FA81F308BF2033A3F130
:403980000B03B3F120020CDA0C3208DD02F1140CC2F10C0201FA0CF021FA02F10CE002F11402D8BFC2F1200C01FA02F120FA0CFCDCBF41EA0C019040E41AA2BF01EB045193
:4039C000294330BD6FEA04041F3C1CDA0C340EDC04F11404C4F1200220FA04F001FA02F340EA030021FA04F345EA030130BDC4F10C04C4F1200220FA02F001FA04F340EA8D
:403A00000300294630BD21FA04F0294630BD94F0000F83F4801306BF81F480110134013D4EE77FEA645C18BF7FEA655C29D094EA050F08BF90EA020F05D054EA000C04BFC3
:403A40001946104630BD91EA030F1EBF0021002030BD5FEA545C05D14000494128BF41F0004130BD14F580043CBF01F5801130BD01F0004545F0FE4141F470014FF00000A2
:403A800030BD7FEA645C1ABF194610467FEA655C1CBF0B46024650EA013406BF52EA033591EA030F41F4002130BD00BF90F0000F04BF0021704730B54FF4806404F132042C
:403AC0004FF000054FF0000150E700BF90F0000F04BF0021704730B54FF4806404F1320410F0004548BF40424FF000013EE700BF42004FEAE2014FEA31014FEA02701FBFA7
:403B000012F07F4393F07F4F81F06051704792F0000F14BF93F07F4F704730B54FF4607401F0004521F0004120E700BF50EA010208BF704730B54FF000050AE050EA0102D6
:403B400008BF704730B511F0004502D5404261EB41014FF4806404F132045FEA915C3FF4DCAE4FF003025FEADC0C18BF03325FEADC0C18BF033202EBDC02C2F1200300FA17
:403B800003FC20FA02F001FA03FE40EA0E0021FA02F11444C1E600BF70B54FF0FF0C4CF4E06C1CEA11541DBF1CEA135594EA0C0F95EA0C0F00F0DEF82C4481EA030621EA62
:403BC0004C5123EA4C5350EA013518BF52EA033541F4801143F4801338D0A0FB02CE4FF00005E1FB02E506F00042E0FB03E54FF00006E1FB03569CF0000F18BF4EF0010E83
:403C0000A4F1FF04B6F5007F64F5407404D25FEA4E0E6D4146EB060642EAC62141EA55514FEAC52040EA5E504FEACE2EB4F1FD0C88BFBCF5E06F1ED8BEF1004F08BF5FEA47
:403C4000500E50F1000041EB045170BD06F0004646EA010140EA020081EA0301B4EB5C04C2BFD4EB0C0541EA045170BD41F480114FF0000E013C00F3AB8014F1360FDEBF9C
:403C8000002001F0004170BDC4F10004203C35DA0C341BDC04F11404C4F1200500FA05F320FA04F001FA05F240EA020001F0004221F0004110EBD37021FA04F642EB060119
:403CC0005EEA430E08BF20EAD37070BDC4F10C04C4F1200500FA04F320FA05F001FA04F240EA020001F0004110EBD37041F100015EEA430E08BF20EAD37070BDC4F12005D7
:403D000000FA05F24EEA020E20FA04F301FA05F243EA020321FA04F001F0004121FA04F220EA020000EBD3705EEA430E08BF20EAD37070BD94F0000F0FD101F000464000C5
:403D400041EB010111F4801F08BF013CF7D041EA060195F0000F18BF704703F00046520043EB030313F4801F08BF013DF7D043EA0603704794EA0C0F0CEA135518BF95EAE7
:403D80000C0F0CD050EA410618BF52EA4306D1D181EA030101F000414FF0000070BD50EA410606BF1046194652EA430619D094EA0C0F02D150EA013613D195EA0C0F05D1E6
:403DC00052EA03361CBF104619460AD181EA030101F0004141F0FE4141F470014FF0000070BD41F0FE4141F4780170BD70B54FF0FF0C4CF4E06C1CEA11541DBF1CEA1355C5
:403E000094EA0C0F95EA0C0F00F0A7F8A4EB050481EA030E52EA03354FEA013100F088804FEA03334FF0805545EA131343EA12634FEA022245EA111545EA10654FEA0026A6
:403E40000EF000419D4208BF964244F1FD0404F5407402D25B084FEA3202B61A65EB03055B084FEA32024FF480104FF4002CB6EB020E75EB030E22BFB61A754640EA0C0000
:403E80005B084FEA3202B6EB020E75EB030E22BFB61A754640EA5C005B084FEA3202B6EB020E75EB030E22BFB61A754640EA9C005B084FEA3202B6EB020E75EB030E22BF27
:403EC000B61A754640EADC0055EA060E18D04FEA051545EA16754FEA06164FEAC30343EA52734FEAC2025FEA1C1CC0D111F4801F0BD141EA00014FF000004FF0004CB6E781
:403F000011F4801F04BF01430020B4F1FD0C88BFBCF5E06F3FF6AFAEB5EB030C04BFB6EB020C5FEA500C50F1000041EB045170BD0EF0004E4EEA113114EB5C04C2BFD4EB15
:403F40000C0541EA045170BD41F480114FF0000E013C90E645EA060E8DE60CEA135594EA0C0F08BF95EA0C0F3FF43BAF94EA0C0F0AD150EA01347FF434AF95EA0C0F7FF44C
:403F800025AF104619462CE795EA0C0F06D152EA03353FF4FDAE1046194622E750EA410618BF52EA43067FF4C5AE50EA41047FF40DAF52EA43057FF4EBAE12E74FF0FF3C70
:403FC00006E000BF4FF0010C02E000BF4FF0010C4DF804CD4FEA410C7FEA6C5C4FEA430C18BF7FEA6C5C1BD001B050EA410C0CBF52EA430C91EA030F02BF90EA020F002014
:40400000704710F1000F91EA030F58BF994208BF90422CBFD8176FEAE37040F0010070474FEA410C7FEA6C5C02D150EA013C07D14FEA430C7FEA6C5CD6D152EA033CD3D0DC
:404040005DF8040B704700BF8446104662468C461946634600E000BF01B5FFF7B7FF002848BF10F1000F01BD4DF808EDFFF7F4FF0CBF012000205DF808FB00BF4DF808ED46
:40408000FFF7EAFF34BF012000205DF808FB00BF4DF808EDFFF7E0FF94BF012000205DF808FB00BF4DF808EDFFF7CEFF94BF012000205DF808FB00BF4DF808EDFFF7C4FF81
:4040C00034BF012000205DF808FB00BF4A0011D212F5001211D20DD56FF47873B3EB62520ED44FEAC12343F0004343EA505323FA02F070474FF00000704750EA013002D18B
:404100004FF0FF3070474FF0000070474FEA4102B2F1E04324BFB3F5001CDCF1FE5C0DD901F0004C4FEAC0024CEA5070B2F1004F40EB830008BF20F00100704711F0804F41
:4041400021D113F13872BCBF01F00040704741F480114FEA5252C2F11802C2F1200C10FA0CF320FA02F018BF40F001004FEAC1234FEAD32303FA0CFC40EA0C0023FA02F337
:404180004FEA4303CCE77FEA625307D150EA01331EBF4FF0FE4040F44000704701F0004040F0FE4040F40000704700BF80F0004002E000BF81F0004142001FBF5FEA4103EB
:4041C00092EA030F7FEA226C7FEA236C6AD04FEA1262D2EB1363C1BFD218414048404140B8BF5B42192B88BF704710F0004F40F4000020F07F4018BF404211F0004F41F4AE
:40420000000121F07F4118BF494292EA030F3FD0A2F1010241FA03FC10EB0C00C3F1200301FA03F100F0004302D5494260EB4000B0F5000F13D3B0F1807F06D340084FEA5C
:40424000310102F10102FE2A51D2B1F1004F40EBC25008BF20F0010040EA03007047490040EB000010F4000FA2F10102EDD1B0FA80FCACF1080CB2EB0C0200FA0CF0AABF25
:4042800000EBC25052421843BCBFD0401843704792F0000F81F4000106BF80F400000132013BB5E74FEA41037FEA226C18BF7FEA236C21D092EA030F04D092F0000F08BF3C
:4042C0000846704790EA010F1CBF0020704712F07F4F04D1400028BF40F00040704712F100723CBF00F50000704700F0004343F0FE4040F4000070477FEA226216BF0846CF
:404300007FEA23630146420206BF5FEA412390EA010F40F4800070474FF0000304E000BF10F0004348BF40425FEA000C08BF704743F0964301464FF000001CE050EA01024D
:4043400008BF70474FF000030AE000BF50EA010208BF704711F0004302D5404261EB41015FEA010C02BF84460146002043F0B64308BFA3F18053A3F50003BCFA8CF2083A3B
:40438000A3EBC25310DB01FA02FC634400FA02FCC2F12002BCF1004F20FA02F243EB020008BF20F00100704702F1200201FA02FCC2F1200250EA4C0021FA02F243EB020091
:4043C00008BF20EADC7070474FF0FF0C1CEAD0521EBF1CEAD15392EA0C0F93EA0C0F6FD01A4480EA010C400218BF5FEA41211ED04FF0006343EA501043EA5111A0FB0131F0
:404400000CF00040B1F5000F3EBF490041EAD3715B0040EA010062F17F02FD2A1DD8B3F1004F40EBC25008BF20F00100704790F0000F0CF0004C08BF49024CEA502040EAE8
:4044400051207F3AC2BFD2F1FF0340EAC250704740F400004FF00003013A5DDC12F1190FDCBF00F000407047C2F10002410021FA02F1C2F1200200FA02FC5FEA310040F1C6
:40448000000053EA4C0308BF20EADC70704792F0000F00F0004C02BF400010F4000F013AF9D040EA0C0093F0000F01F0004C02BF490011F4000F013BF9D041EA0C018FE7E1
:4044C0000CEAD15392EA0C0F18BF93EA0C0F0AD030F0004C18BF31F0004CD8D180EA010000F00040704790F0000F17BF90F0004F084691F0000F91F0004F14D092EA0C0FBA
:4045000001D142020FD193EA0C0F03D14B0218BF084608D180EA010000F0004040F0FE4040F40000704740F0FE4040F4400070474FF0FF0C1CEAD0521EBF1CEAD15392EA4C
:404540000C0F93EA0C0F69D0A2EB030280EA010C49024FEA402037D04FF0805343EA111143EA10130CF000408B4238BF5B0042F17D024FF4000C8B4224BF5B1A40EA0C00F3
:40458000B3EB510F24BFA3EB510340EA5C00B3EB910F24BFA3EB910340EA9C00B3EBD10F24BFA3EBD10340EADC001B0118BF5FEA1C1CE0D1FD2A3FF650AF8B4240EBC25056
:4045C00008BF20F0010070470CF0004C4CEA50207F32C2BFD2F1FF0340EAC250704740F400004FF00003013A37E792F0000F00F0004C02BF400010F4000F013AF9D040EA76
:404600000C0093F0000F01F0004C02BF490011F4000F013BF9D041EA0C0195E70CEAD15392EA0C0F08D142027FF47DAF93EA0C0F7FF470AF084676E793EA0C0F04D14B02CC
:404640003FF44CAF08466EE730F0004C18BF31F0004CCAD130F000427FF45CAF31F000437FF43CAF5FE700BF4FEA4002B2F1FE4F0FD34FF09E03B3EB12620DD94FEA0023F6
:4046800043F0004310F0004F23FA02F018BF404270474FF00000704712F1610F01D1420205D110F0004008BF6FF0004070474FF00000704742000ED2B2F1FE4F0BD34FF03F
:4046C0009E03B3EB126209D44FEA002343F0004323FA02F070474FF00000704712F1610F01D1420202D14FF0FF3070474FF00000704700BF002101F087BB00210A2201F0D4
:4047000013BC00210A2201F00FBC0000014B1868704700BF8881FF1F0E4B70B51E460E4C0025E41AA410A54204D056F8253098470135F8E703F0D8FE084B094C1E46E41A00
:40474000A4100025A54204D056F8253098470135F8E770BDF4840000F4840000F4840000FC840000931E222B10B50C4602D90020087010BD0A2A06D1002804DA2D230B70C8
:404780004042012100E00021214401F0DBFB204610BDFFF7E7BF10B5431E0A44914204D011F8014B03F8014FF8E710BD03460244934202D003F8011BFAE770472DE9F047C0
:4047C0001E4688B0149F002BB8BF06F10043129927F02007B6BF1E4600232D23462F1446109DDDF84CA00B7003D0452F03D1013501E0032300E002238DE8280406AB03935C
:4048000007AB04932246334601F062FC472F804602D1119BDB0726D5462F08EB050911D198F80030302B0AD12046314600220023FFF71AFC18B9C5F10105CAF80050DAF87A
:40484000003099442046314600220023FFF70CFC08B1CDF81C90079B4B4504D25A1C079230221A70F7E74046079B159AC8EB0303136008B0BDE8F087034673B50029B8BF28
:40488000494203F8022BB4BF2D222B22092942701ADD0DF1070426460A2291FBF2F502FB1511092D01F1300104F8011D2946F3DC3031651E04F8011CB5421A460AD215F836
:4048C000012B03F8012BF7E71A463024214402F8024B5970101A02B070BD00002DE9F04F91B08B4615461E461A9F044602F0B8FCD0F800A0504600F0FFFB00230E933B6837
:404900000990073323F0070303F108029BF818803A60D3E90023CBE91223DBE91201FEF73FFE0128DBE9120119D100220023FFF7A5FB10B12D238BF84330A04BA04FB8F1A4
:40494000470F88BF1F460323CBF81030DBF8003023F00403CBF800304FF00009A1E0FEF71FFEDBF8003048B9964A974FB8F1470F88BF17460322CBF81020E9E7DBF80420D5
:40498000DBE91201571CCDE90A0101D1062209E0B8F1670F02D0B8F1470F05D1002A40F0C7810122CBF80420DBF8042043F480638DE80C00CBF800300DF1330302930DAB91
:4049C00003930EAB059300230693CDF81080DDE90A232046FFF7F2FE08F0DF03472B07460AD10D9BD81C03DBDBF80420934237DDA8F102085FFA88F8B8F1650F0D9915D886
:404A0000013942460BF150000D91FFF735FF0E9A81468318012ACBF8103003DCDBF80020D10738D50133CBF8103034E0B8F1660F18D10029DBF8043009DDCBF810101BB992
:404A4000DBF80020D20721D501330B441CE01BB9DBF80020D00701D5023315E0012313E04FF067080D9B0E9A934207DBDBF80020CBF81030D10709D5013305E0002BD4BF08
:404A8000C3F1020301231344CBF810300D9B4FF00009CBF858309DF8333013B12D238BF843300096204659460FAA2B4600F05CF9013002D14FF0FF3052E1DBF800305A0571
:404AC00005D4204629463A46DBF8103008E1B8F1650F40F2D080DBE9120100220023FFF7C3FA50B320462946384A0123B0470130E0D00E9B0D9A9A4209DBDBF80030D807D6
:404B000005D4DBF800309F0700F1108107E1204629465246099BB0470130CBD000270E9B013B9F42EDDA204629460BF11A020123B0470130BED00137F1E70D9B002B29DC52
:404B400020462946214A0123B0470130B2D00D9B2BB90E9B1BB9DBF80030D907D1D5204629465246099BB0470130A3D04FF000080D9B20465B429845294608DA0BF11A02B1
:404B80000123B047013095D008F10108F0E73A460E9BA5E0DBF858200E9B9A42A8BF1A46002A914602DC4FF000081CE0204629463A464B46B0470130F5D17BE71783000034
:404BC000138300001F8300001B83000023830000204629460BF11A020123B04701303FF469AF08F10108DBF85830B9F1000FB4BF1A46C9EB03029045EADB07EB03080D9AD5
:404C00000E9B9A4210DBDBF80030DA070CD40E9A1744C8EB07030D9FD21B9342A8BF1346002B1F4608DC0EE0204629465246099BB0470130EBD13DE7204629464246B04783
:404C400001303FF437AF4FF000080AE0204629460BF11A020123B04701303FF42BAF08F101080D9A0E9B002FA3EB0203A8BFDB1B9845EBDB45E70E9A012A01DCDB0736D596
:404C8000204629463A460123B04701303FF412AF204629465246099BB04701303FF40AAFDBE9120100220023FFF7DEF9E8B90E9B204629467A1C013B1DE0204629460BF192
:404CC0001A020123B04701303FF4F4AE01370E9B013B9F42F1DB204629464B460BF15002B04701307FF40DAFE4E60027EFE7204629463A460123B0470130ECD1DAE6204657
:404D000029460BF119020123B04701303FF4D2AE0137DBF80C300F9A9B1A9F42EFDBDBF80C000F9B9842B8BF184619E00027F0E743F480638DE80C00CBF800300DF13303AD
:404D400002930DAB03930EAB059300230693CDF810802046DDE90A23FFF730FD074640E611B0BDE8F08F00BF2DE9F84391461F468A680B6906469342B8BF1346C9F8003086
:404D800091F843200C46DDF8208012B10133C9F800302368990642BFD9F800300233C9F80030256815F006051CD094F843302268003318BF012392061FD5E118302081F878
:404DC00043005A1C94F845102244023382F8431013E03046394604F119020123C047013007D00135E368D9F800209B1A9D42F0DBDBE74FF0FF30BDE8F8833046394604F17B
:404E00004302C0470130F4D02268D9F80050E36802F00602042A08BF5D1B2269A3680CBF25EAE57500259342C4BF9B1AED184FF00009A9450ADA3046394604F11A0201238F
:404E4000C0470130D5D009F10109F2E70020BDE8F88300002DE9FF410C461746227E98466E2A06460A9B01F1430100F0B08012D8632A23D00AD8002A00F0BD80582A40F081
:404E8000CC8084F84520DFF804E257E0642A1ED0692A1CD0C1E0732A00F0B18009D86F2A2ED0702A40F0B980226842F0200222603FE0752A24D0782A3BD0AEE01A6804F138
:404EC0004205111D1960136884F84230A9E020681A6810F0800F02D0101D186008E010F0400F02F10400186002D0B2F9003000E01368002B3EDA2D225B4284F8432039E0ED
:404F000020681A6810F0800F02D0101D186007E010F0400F02F10400186001D0138800E01368227EDFF864E16F2A0CBF08220A221CE07822DFF858E184F8452022681868EE
:404F400012F0800F00F104051D6003D1550601D5038800E00368D00744BF42F0200222601BB9226822F0200222601022002084F8430002E0DFF814E10A226568002DA8BF3E
:404F80002068A560A4BF20F00400206003B965B10D46B3FBF2F002FB10331EF8033005F8013D03460028F4D100E00D46082A0BD12368DA0708D5236962689A42DEBF302312
:404FC00005F8013C05F1FF35491B21612EE025681A6815F0800F606903D0151D1D60136808E015F0400F02F104051D60136801D0188000E01860002323610D4616E01A688D
:40500000111D1960156800212846626802F034F908B1401B6060636804E004F1420584F8422001232361002384F84330CDF800803046214603AA3B46FFF796FE013002D19F
:405040004FF0FF301FE0304639462A462369C0470130F5D023689B0705D4E068039B9842B8BF18460FE00025E368039A9B1A9D42F3DA3046394604F119020123C04701307C
:40508000DED00135F0E704B0BDE8F08125830000368300000EB400B54FF402719CB0ADF814106FF00041049107914FF6FF711DABADF81610084953F8042B02900690086850
:4050C00002A9019302F0DEFD029B00221A701CB05DF804EB03B070478881FF1FC9B2034610F8012B1AB18A42F9D11846704700290CBF184600207047034613F8012B002A79
:40510000FBD1181A01387047034610B532B111F8014B013A03F8014B002CF7D11A44934203D0002103F8011BF9E710BD30B5037823B90B78002B18BF002030BD03461A7831
:4051400001303AB100228C5C34B19D5CA542F5D10132F8E7104630BD184630BD30B5036811F8014B01334CB11A78A2F14105192D98BF2032A242F3D0002030BD0360012076
:4051800030BD2DE9F0410F46904602F04FFB04460D46B8F1000F11D0C7F30A53C3F16B03002B0BDD1B0503F17F55002405F5401522462B46FEF7F0FCBDE8F08120462946D2
:4051C000BDE8F081000000002DE9F04F00239FB01A9382460B46039115924FF000084FF000091993199B1A780D2A05D8092A13D2002A00F0B78111E02B2A06D02D2A02D08D
:40520000202A0BD108E0012200E0002209925A1C19925B7823B9A5E10133E2E700230993199C2378302B5CD16378582B01D0782B4CD11AAB0093099B5046019319A9AE4AE7
:405240001BAB01F04CFD10F00706054600F0A585062E05D1013400231994099300F09DBD1A9A3AB11CA8352102F0CDFB50461A9902F045F81B9A062E21D8DFE806F0040D2C
:4052800008171C0D04004FF00009C84617E0DDF87080DDF8749012E01D9B02F2334223F48013DDF8708043EA025908E0DFF84C924FF0000803E06FF000494FF0FF38290798
:4052C00040F16B8549F0004900F067BD199B5A1C19925B78302BF9D0002B00F05E85012300E000230026B34635460493199B0793199C2778A7F13003DAB2092A0CD8082D90
:405300004FF00A0204F10104D4BF02FB0B3B02FB063601351994EBE7504601F0A1FF01685046059101F09CFF0068FFF7E5FE05990246204602F0A8FD28B100203B462C460C
:405340000246074657E00590504601F089FF0068FFF7D2FE199B05991A1819921B5C002D41D12846302B05D1199B01305A1C19925B78F7E7A3F13102082A42D8199A0792F5
:40538000024600200446303B00F1010125D00A4421460719B94211D0013101F1FF3EBEF1080F04DC4FF00A0E0EFB0BFBF2E71029DCBF4FF00A0E0EFB06F6EBE7204408285B
:4053C00000F1010403DC0A2101FB0B3B04E0102CDCBF0A2101FB06360021199B581C19905B78084602E02C4608460A46A3F130010929C8D90127652B01D0452B64D16CB95D
:4054000004E0652B40F0D7840022012728B9049B002B00F0A780044600E00024199B039301331993039B5B782B2B07D02D2B02D04FF0000C09E04FF0010C01E04FF0000C75
:40544000039B02331993039B9B78A3F13001092938D81946302904D1199B591C19915978F8E7A1F1310EBEF1080F0B462CD8A1F130030593199B0693199B03F1010ECDF8D3
:4054800064E05B78A3F13001092908D805994FF00A0E0EFB0131A1F130030593ECE70699C1EB0E0EBEF1080F44F61F6E04DC05997145A8BF714600E07146BCF1000F04D031
:4054C000494202E0039919910021002C54D1002840F06384049A002A40F05F84002F41D14E2B20D002DC492B0AD03BE0692B07D06E2B18D036E000BF888300000000F07F41
:4055000019A8AA49FFF72AFE60B3199B19A8013BA7491993FFF722FE10B9199B01331993DFF8A4921AE019A8A249FFF717FEC8B1199B1B78282B0FD119A89F491CAA01F0B5
:4055400005FE052808D11D9BDDF8708043F0FF4949F4E00900F021BCDFF870924FF0000800F01BBC039B1993159B002B00F020840023099300F013BC8B1A06932B46002D3D
:4055800008BF23465846102C25460393A8BF1025FEF78CFA092D8046894613DD874B03EBC50353E91223FEF7F7FA804630468946FEF77CFA02460B4640464946FEF73AF9E3
:4055C000804689460F2C36DC069B002B00F0E58324DD162B07DC794A02EBC302D2E900014B46424615E0069AC4F125039A4222DC724DC4F10F0405EBC403D3E90001424667
:405600004B46FEF7C9FA069B1C1B05EBC405D5E90023FEF7C1FA80468946BEE3069B13F1160F08DB654A4046A2EBC30249460CCAFEF7DCFBEFE7069B651B1D44002D58DDAA
:4056400015F00F020AD05D4B03EBC203D3E9000142464B46FEF7A0FA8046894635F00F0500F0BA80B5F59A7F0FDD4FF0000BCDF80CB0CDF81CB0CDF814B02223CAF80030B7
:40568000DFF844914FF0000883E14946DFF8409140464E462D110027012D0ADDEA0703D5D9E90023FEF778FA01376D1009F10809F2E78046A1F1547906EBC7064246D6E9F0
:4056C00000014B46FEF768FA21F0004389460A461B0D3B491B058B428046C6D8A1F580118B4286BFDFF8EC904FF0FF3802F1547972E071D06D4215F00F020AD02F4B40465D
:4057000003EBC2034946D3E90023FEF76FFB804689462D1160D01F2D08DD4FF0000BCDF80CB0CDF81CB0CDF814B02BE14046494615F0100F0CBF00236A23224E0493002DDC
:4057400008DDEB0703D5D6E90023FEF725FA6D100836F4E7049B80468946EBB1C1F30A53C3F16B03002B0A4616DD1F2B0EDD342BDEBF203B4FF0FF3101FA03F34FF000084A
:40578000CCBF4FF05C7903EA020905E04FF0FF3202FA03F303EA00084046494600220023FEF762FC0028B8D118E000BF18830000C48300002083000048830000D883000056
:4057C0000000A07C608300000000F07F0000F8FFA0840000FFFFEF7F00230493CDF800B050460799039A234601F0DEFD079000283FF43BAF069A069B002AC3F100034FF040
:40580000000BA8BF00230E93CDF80CB0079B5046596801F03FFD059000283FF42EAF079B0C301A69079B023203F10C019200FEF7B2FF1BAB00931CAB0193504642464B46EB
:40584000CDE90A8902F065F81A9000283FF415AF5046012101F035FE039000283FF40DAF069B049923EAE3771B9B1C9C002BAABF0E9AFA1AD618A3EB010323446FF47F71A4
:40588000ACBF3A460E9E8B42C4F1360480F28680C91A1F29A4EB0104C8BFB3494FF00100D5BF00FA01F3C91A149300FA01F3D9BF00230F930F9314903519049BB5421444C2
:4058C0001C442B46A8BF3346A342A8BF2346002BC2BFED1AE41AF61A0E9B002B63D1002D7BDC002F40F08380002C00F38A80002E00F3918050461A99059A01F038FF83465F
:4059000000283FF4BAAEC3680024C4600399089301F011FFA04280F28D80089B002B40F01582B8F1000F40F01182C9F31303002B40F00C8229F000431B0D1B05B3F1D66F40
:4059400040F20482DBF81430002B6ED059460122504601F09DFE0399834601F0ECFE002840F3F48129F00043049A1B0D1B05002A00F08F80B3F1D66F00F38B80B3F15C7F2A
:4059800000F3E68122234FF000084FF00009CAF80030079B002B40F0EC81FEE100230F930123149388E71A465046039901F022FE0390034600283FF460AE504619461A9AEE
:4059C00001F088FD089000283FF457AE50461A9901F095FC089B1A9381E750461A992A4601F056FE1A9000287FF47BAF45E6504605993A4601F0FEFD059000287FF474AF2B
:405A00003BE650460599224601F042FE059000287FF46DAF31E650460399324601F038FE039000287FF466AF27E6DBF81030012B8CDC8BE162D1089AC9F3130322B34B49D1
:405A40004A468B422ED1049B414663B1484B1340B3F1D46F07D81B0DC3F16B034FF0FF3000FA03F301E04FF0FF3399421AD1414B9A4202D101313FF400AE3D4B4FF0000807
:405A8000134003F5801961E163B9B8F1000F09D168E7A3F580136FEA13594FF0FF386FEA095953E10F9B13B113EA090F02E0149B13EA080F00F04A81089B40464946049A35
:405AC00053B1FFF75EFB02460B46DDE90A01FDF7B1FE8046894639E1FFF753FB02460B46DDE90A01FDF7A4FE0022002380468946FEF7BAFA00287FF445AF27E158460399FF
:405B000001F059FF00224FF0804306460F46FEF7BFFA00283FD0089B13B10026164F10E0B8F1000F03D1C9F313033BB90BE0B8F1010F03D1B9F1000F3FF424AF0F4F002683
:405B400000240D4D3CE03046394600220A4BFEF795FAB8B9304639460022094BFEF71CF804460D4610E000BFE3FBFFFFFFFF0F000000F07FFFFFEF7F0000F03F0000F0BFC8
:405B80000000E03F089C9A4D05F1004316941793DDE9166714E0964B304639460022FDF7FBFF089B04460D4623B901F100431090119303E002460B46CDE91023DDE910675A
:405BC00029F0004C4FEA1C5C8A4B4FEA0C5C9C4531D1DDE90A23A9F1547940464946CDF83CC0CDE90C2301F021FE02460B4630463946FDF7D1FF02460B4640464946FDF71D
:405C000019FE21F000431B0D7B4A1B0593428046DDF83CC00CD9794B0D9A9A4203D10C9B01333FF42AADDFF8D4914FF0FF387CE001F1547944E0049B63B3BCF1D46F29D804
:405C400063A3D3E9002320462946CDF83CC0FEF71FFADDF83CC0C8B129462046FEF736FA002808BF0120FDF721FF089B04460D46DDF83CC023B901F100431290139303E0E6
:405C800002460B46CDE91223DDE9126707F1D663CCEB0307DDE90A01CDF83CC001F0C6FD02460B4630463946FDF776FF02460B46DDE90A01FDF7BEFD80468946DDF83CC073
:405CC000049B4E468BBB29F000431B0D1B059C452BD12946204602F03BF9FDF7F7FE0B46024629462046FDF7A3FD089B04460D462BB9B8F1000F02D1C9F313067EB136A338
:405D0000D3E9002320462946FEF7B8F988BB34A3D3E9002320462946FEF7CEF904E032A3D3E90023FEF7AAF918BB50461A9901F0E6FA5046059901F0E2FA5046039901F03E
:405D4000DEFA5046594601F0DAFA5FE5049B83B12B4B40460D9300230C934946DDE90C23FDF71AFF8046894619B910B92223CAF8003050461A9901F0C2FA5046059901F0C9
:405D8000BEFA5046039901F0BAFA5046079901F0B6FA5046594601F0B2FA159B13B1199B159A1360099B1BB1424609F1004307E042464B4604E0002422460127FFF71DBBC6
:405DC000104619461FB0BDE8F08F00BFAFF300800000C0FFFFFFDF419535A094FFFFDF3F35E5AF350000E03F9535A094FFFFCF3F0000E03F0000E07FFFFF9F7CFFFFEF7FF9
:405E000000005039AFF3008003460A46024908681946FFF7D9B900BF8881FF1F2DE9F0470F46404CD4F800903D4615F801EB09EB0E04667806F0080404F0FF060CB12F467F
:405E4000F2E774462D2C03D1BD1C7C78012603E02B2C04BF7C78BD1C13B1102B0AD15AE0302C56D12C7804F0DF04582C4CD16C7810230235002E14BF4FF000486FF0004874
:405E8000B8FBF3FA0027BE4603FB1A8809EB040C9CF801C01CF0040F01D0303C0BE01CF0030C1BD0BCF1010F0CBF4FF0370C4FF0570CCCEB04049C4210DAB7F1FF3F0AD0DE
:405EC000D64506D801D1444503DC03FB0E4E012701E04FF0FF3715F8014BD7E77C1C73460AD1002E4FF0220114BF4FF000436FF0004301602AB911E00EB1CEF100036AB1FC
:405F000007B1691E116009E03024002BB2D10823B0E70A23AEE7302CACD1A3E71846BDE8F08700BF2481FF1F30B505460C461346034A294610682246BDE83040FFF76EBF34
:405F40008881FF1FF0B58BB003460F466D461A4C04F1200E2E4620686168083403C674453546F7D1217920683171911E222930604FF0000001D938701CE07D1EB3FBF2F440
:405F800002FB14330AAE334413F8283C411C05F8013F23460CB10846F0E77C543A18C11A8B4206DAF95C1478FC5402F801190133F5E738460BB0F0BD9C8300002DE9F74FBA
:405FC00003690C698046A3427EDB013C01F114074FEA840E00F1140606EB0E0357F82450019356F824300135B3FBF5F507EB0E09BDB34FF0000A3846B446D34650F8043BF9
:406000009AB21B0C02FB05A26B4303EB124392B2C2EB0B0BBCF800204FEA134A5A441FFA83FBDCF800304845CBEB134303EB224392B242EA03424FEA234B4CF8042BDDD93D
:4060400056F80E306BB9019B043BB3421A4602D8C8F8104005E01268043B002AF8D1013CF3E7404601F067FB00282BDB304601354FF0000E57F8042B036891B2C1EB0E0EBA
:40608000120C99B27144C2EB134303EB214389B24FEA234E4F4541EA034340F8043BE9D956F8242006EB840362B9043BB3421A4602D8C8F8104005E01268043B002AF8D116
:4060C000013CF3E7284600E0002003B0BDE8F08F2DE9F04F456A95B08246219CCDE9022345B9102001F0C0F8CAF82400456085600560C560DAF82430196859B15A68012333
:4061000093404A608B60504601F0F9F8DAF8243000221A60039BA24A002BBDBF01232360039B0023BCBF23F000430393039FA8BF236027F000431B0D1B0593421DD142F298
:406140000F73209A1360029B43B9964A964BC7F31300002814BF1846104600E09248229B002B00F06985C37813B100F1080300E0C31C229A136000F05FBDDDE902450022F6
:40618000204629460023FDF76FFF804658B1209A01231360229B002B00F03C8583481860013800F049BD13AB009312AB0193504622462B4601F0ADFBC7F30A5607905EB1F0
:4061C000C5F3130343F07F51204641F44011A6F2FF36CDF844801DE0139B129E1E446FF482639E42A1BF029A06F2124322FA03F06F4BB7BF6F4B9B1B029A9B1BAABF9F4015
:4062000002FA03F03843FDF751FC0123A1F1F871013E11930022684BFDF70AFB5AA3D3E90023FDF7B9FC5AA3D3E90023FDF702FB044630460D46FDF749FC57A3D3E900236C
:40624000FDF7AAFC02460B4620462946FDF7F2FA04460D4601F07CFE29468346002220460023FDF70BFF58B15846FDF72FFC02460B4620462946FDF7F7FE08B90BF1FF3B39
:40628000BBF1160F0DD84D4B03EBCB03D3E90001DDE90223FDF710FF30B10BF1FF3B002300E00123109300E01090129B9E1B731E0A9345BF5B420993002300234CBF0A9309
:4062C0000993BBF1000F07DB0A9BCDF834B05B440A9300230B9308E0099BCBEB03030993CBF100030B9300230D931E9B092B29D8052BC4BF043B1E931E9BC8BF0025A3F18C
:406300000203D8BF0125032B21D8DFE803F0020E0410002300E001230C931F9B002B20DC0123069305931A4619E0002300E001230C931F9B5B4406930133012B0593B8BF1A
:40634000012311E0012500231E930C9501E001230C934FF0FF3306930593002212231F9202E01F9B06930593DAF8244000226260042101F114029A4222D8626849000132EF
:406380006260F6E7AFF3008061436F63A787D23FB3C8608B288AC63FFB799F501344D33F0000F07FC1830000CA830000248300000EFCFFFFEEFBFFFF0000F83FD883000056
:4063C0005046616800F066FFDAF8243020601B680893059B0E2B00F24781002D00F04481DDE90223BBF1000FCDE90E2331DDB14A0BF00F034FEA2B1602EBC303F006D3E92E
:4064000000450CD5DDE90E01AB4B06F00F06D3E90823FDF7EBFC0327CDE9020100E00227DFF8948276B1F10708D5D8E9002320462946FDF7B1FB04460D460137761008F11C
:406440000808EFE7DDE9020122462B46FDF7CEFC1BE0CBF10004DCB1DDE90E01954B04F00F0203EBC203D3E90023FDF795FB924D241102274CB1E20704D5D5E900230137A9
:40648000FDF78AFB64100835F4E7CDE9020100E00227109BDBB1DDE90245002220462946864BFDF7EBFD90B1059B83B1069B002B40F3D680294620460022814BFDF76CFBA5
:4064C0000BF1FF36CDE902010137069D01E05E46059D3846DDE90289FDF7F8FA42464B46FDF75AFB774B0022FDF7A4F9CDE90201039BA3F150740394CDB940464946002221
:40650000714BFDF795F9029A234680468946FDF7D3FD002840F0408240464946029A04F10043FDF7ABFD002840F0308298E0614B0C996A1E03EBC203002947D0D3E90023F3
:4065400000206249FDF752FCDDE90223FDF770F9CDE90201089C4946404601F0F9FC0746FDF7B4FA02460B4640464946FDF760F9DDE90223303704F8017B80468946FDF731
:406580007DFD002840F0378342464B4600204B49FDF74EF9DDE90223FDF770FD002840F0D080089BE31AAB425ADADDE902010022434BFDF7F1FA0022CDE90201404B40464E
:4065C0004946FDF7E9FA80468946C4E7D3E90001DDE90223FDF7E0FA089BCDE902015C191D464946404601F0B3FC0746FDF76EFA02460B4640464946FDF71AF9303705F8D4
:40660000017BA5428046894623D100222F4BDDE90201FDF70FF902460B4640464946FDF74BFD002840F08D80DDE9022300202749FDF7FEF802460B4640464946FDF71EFD9C
:4066400070B114F8013C621E302B40F0D4821446F7E700221A4BFDF79FFA80468946C0E7DDE90E23CDE90223139B002BC0F28A80BBF10E0F00F386800E4B03EBCB03D3E9CD
:4066800000671F9B002B23DA059B002B20DC40F07C81304600220C4B3946FDF77DFADDE90223FDF7FFFC059D2E46002840F06F8174E100BFD8830000A08400000000F03FCA
:4066C0000000244000001C40000014400000E03F089CDDE9028932463B4640464946FDF785FB01F035FC0546FDF7F0F932463B46FDF752FA0B46024649464046FDF798F83B
:4067000005F1300E089B04F801EBC3EB040E059B9E452AD102460B46FDF78CF832463B4680468946FDF7C8FC70B94046494632463B46FDF799FC002800F05E82EB0703D484
:406740005AE2B34600E01C4614F8012C631E392A07D1089A9342F6D13023137013460BF1010B1A7801321A7046E20022A34BFDF713FA0022002380468946FDF775FC002849
:40678000A9D039E20C9A002A32D01E9A012A0ADC119A12B103F2334302E0129BC3F136030B9D099C18E0059B5D1E0B9BAB42B7BF0B9B5D1BEA1A0D9BBEBF0B959B180D93B2
:4067C000059BB8BF0025002BB9BF099B059A099C059BBCBF9C1A0023099A50461A4409920A9A01211A440A9200F06BFE064602E00B9D099C0C9E64B10A9B002B09DDA342BE
:40680000A8BF2346099AE41AD21A09920A9AD31A0A930B9B002B20DD0C9BC3B1002D10DD31462A46504600F0E5FE0646079A3146504600F04FFE07460799504600F05FFDD9
:4068400007970B9B5A1B08D05046079902E0504607990B9A00F0CEFE07905046012100F030FE0D9B0546002B0ADD29461A46504600F0C0FE1E9B0546012B04DD00271BE020
:406880001E9B012B13DC029B8BB9039BC3F313037BB9039B23F000473F0D3F0557B1099B0127013309930A9B01330A9302E0002700E0029F0D9B43B12B6905EB8303186932
:4068C00000F0B2FDC0F1200000E001200A9B184410F01F0008D0C0F12003042B02DDC0F11C0002E008D018461C30099B0444034409930A9B03440A93099B002B05DD50467D
:4069000007991A4600F0C4FE07900A9B002B05DD294650461A4600F0BBFE0546109BEBB10798294600F007FF002817DA0023504607990A2200F0FAFC0C9B0BF1FF3B0790C0
:40694000002B00F06B813146002350460A2200F0EDFC069B0646002B33DC68E1059B002B26DC1E9B022B23DD059B0693069B73B929460522504600F0D9FC05460798294668
:4069800000F0D9FE002809DC01E000252E461F9B089C6FEA030B08E0B3462E46089B089A5C1C312313700BF1010BB14600260FE10C9B23B9059B0693089F079CC9E0059B77
:4069C0000693002C05DD31465046224600F060FE0646AFB17168504600F05CFC0446326906F10C01023292000C30FDF7D4FE50462146012200F04CFE814602E000002440B2
:406A0000B146089F079C29462046FFF7D7FA3146099000F13008204600F08DFE4A4605902946504600F0A3FEC26803463AB919462046079300F07FFE079B024600E0012285
:406A400050461946079200F05AFC079A92B91E9B83B9029B03F0010363B9B8F1390F3B4607943ED0059B7C1C002BC4BF099B03F131083DE0059B002B04DA002AC44607944A
:406A800008DC21E024D11E9B13BB029B03F00103F3B9F2E72146012250460597CDF8088000F0F6FD2946079000F045FE0028DDF808C0059B03DC07D118F0010F04D0B8F186
:406AC000390F0ED008F1010C7C1C87F800C07FE0002A07F101020EDDB8F1390F3B46079403D1392201371A7057E0144608F1010887F800806CE0089B1746D31A02F8018CD4
:406B0000069A93423AD021460A220023504600F00DFC4E450446314650464FF00A024FF0000304D100F002FC064681466BE700F0FDFB494606460A225046002300F0F6FB69
:406B4000814660E7214650460A22002300F0EEFB044620462946FFF731FA089B00F1300807F8018B069AFB1A9342EBDB089BB146012AACBF9B1801331F46002621460122CF
:406B8000504600F085FD2946079000F0D4FD002803DC15D118F0010F12D03C4614F8013C621E392B09D1089B9A4204D10BF1010B3123089A02E01446F0E70133137007E093
:406BC0003C4614F8013C621E302B01D11446F8E75046294600F093FBB9F1000F0CD02EB14E4503D05046314600F089FB5046494600F085FB00E0B3465046079900F07FFBF8
:406C00000023209A23700BF101031360229B1BB11C6001E00A480FE008980DE0069B002B3FF7CAAE1E9B022B3FF7A0AEC4E61E9B022B3FF79BAEC4E615B0BDE8F08F00BF78
:406C400023830000AFF30080F0B506694B11B34200F1140527DA11F01F0105EB860605EB830201D1294616E0141D55F823202B46C1F1200ECA40B44209D2276807FA0EF711
:406C80003A4343F8042B54F8042BCA40F3E71A6052B1043308E0B2420B4605D252F8043B41F8043BF7E72B465B1B9B10036103B94361F0BDA0F13003092B01D820380AE0E1
:406CC000A0F16103052B01D8473804E0A0F14103052B02D82738C0B27047002070472DE9F04F89B08A4691460493019000F0B8FA0368002618460293FEF7FEF9029B009059
:406D0000034413F8013C0593DAF800300233984613F8010B302801D10136F8E7FFF7CAFF0446E8B940460299009A01F0ADF8002837D1009B18F8030008EB0307FFF7BAFF3B
:406D400088B33B4618789846302803F10103F9D0FFF7B0FFB0FA80F53C466D09012601E000252C46C3465F4638780BF1010BFFF7A1FF0028F7D138460299009A01F084F869
:406D800058B95CB9009BFC18A3465F4638780BF1010BFFF78FFF0028F7D134B1E41BA40003E0474600E0044601253B78502B01D0702B30D17B782B2B06D02D2B02D07A1C82
:406DC000002303E0012300E00023BA1C107806930392FFF76FFF411EC9B21829039A069B19D8A0F1100B12F8010F069303920792FFF760FF411EC9B21829039A069B05D814
:406E00000A2101FB0B0BABF1100BECE70BB1CBF1000B5C4400E03A46CAF8002025B1002E14BF002006207CE12946C8EB0703013B072B02DD01315B10FAE7019800F02AFA08
:406E40004FF0000A00F1140B05465E46D446474537D97B1E0393059A17F8013C934209D0BCF1200F1AD1C6F800A04FF0000A0436D44613E0009B039AC3F1010313444345C8
:406E8000EED318460299009ACDF81CC0069300F0FBFF069BDDF81CC088B1E1E717F8010CCDF818C0FFF706FFDDF818C000F00F0000FA0CF0039B4AEA000A0CF1040C1F4663
:406EC000C5E746F804ABCBEB0606B01028614701504600F0A9FAD9F80060381AB04226DD871B3946284600F0A8FDC8B17B1E5A1103F01F014FF001085BF8222008FA01F180
:406F000011420ED0434502DC4FF0020809E02846B91E00F092FD0028F6D04FF0030800E0804628463946FFF78FFE3C440CE009DA371A294601983A4600F0AAFB0546E41B6F
:406F400000F1140B4FF00008D9F808309C4208DD0198294600F0D3F9129A00231360A320DFE0D9F80400844253DA041BB4422EDBD9F80C30022B1AD0032B1CD0012B1DD128
:406F8000B4421BD1012E0BDCD9F80430049A6220136001232B61CBF80030129B1D60C0E02846711E00F049FD0028EDD106E0139B002BE9D002E0139B002BE5D101982946CA
:406FC00000F09DF9129A002313605020A9E0671EB8F1000F07D1002F07DD2846394600F02CFD804601E04FF001087A115BF8222007F01F070123BB4013422146284618BF56
:4070000048F00208361BFFF71FFE0227D9F8044000E00127B8F1000F7ED0D9F80C30022B0ED0032B10D0012B74D118F0020F71D0DBF8000048EA000818F0010F07D169E027
:40704000139BC3F101031393139B002B62D0D5F810A005F114034FEA8A0803EB08011A68501C02D001321A6021E0002243F8042B8B42F4D3AB689A4512DB696801980131A4
:4070800000F008F983462A6905F10C01023292000C30FDF780FB2946019800F030F95D462B695A1C2A6105EB830301225A61022F05F1140210D1D9F80030013B9E4226D130
:4070C0007111012306F01F0652F82120B34013420CBF022701271AE02B6953450ADD28460121FFF7B1FDD9F8083001349C423FF72FAF0BE016F01F0608D0904458F8040C4D
:4071000000F092F9C6F12006B042E8DB012747F0200701E047F010073846129B1D60049B1C6009B0BDE8F08FC2F10802920070B5C2F120064368056803FA06F42C43D3400F
:40714000046040F8043F8842F4D370BD2DE9F04F0E681746751102EB850516F01F0318BF04350022A5F104098346C8464C46164685B0D0F800A0019345F8042C00921AF849
:40718000011F00293AD0084603920291FFF792FD0299039AE8B9202914D8009BB342EEDA444505D2072A03DC20464146FFF7BCFFBC4221D9A4F10408002244F8042C009650
:4071C0004446DCE7292945D10AF10103CBF8003014E00132082A06F1010606DDBC42CED9002244F8042C043C0122216800F00F0040EA01102060C2E70822C0E756B34445C9
:4072000005D2072A03DC20464146FFF78DFFBC420CD93B4654F8042B4C4543F8042BF9D9002243F8042B4B45FAD90BE0019B4BB1C3F1200655F8042C4FF0FF33F34013408C
