:400000000010002011000000190800001908000008B500F009FCC04638B5164C23688022D20213432360182000F048FF2268124B13402360114A124B1A601022114B1A60F6
:400040001032114B1A6080221206104B1A60002525600F4A0F4B1A600F4A104B1A6009200F4900F0D1FE092000F0B8FE0D4B1D6038BDC04600010B40FFFFFBFF060000802B
:4000800004010B40080202400C02024008010B400E000080000002401000008040000240AD1100000C020B4010B572B6002410E0304863001A195200821891881B195B0064
:4000C0001A5AC31858880004104300F00FFC0134E4B2012CECD92749081C0C30103100F0EBFB99231B04244A1360EE210902234A1160EE21224A1160224A1360224A13607D
:40010000224A136080218903214A1160214A1360214B197802220A431A70204802783C218A4328390A430270197816220A431A7020231B4A13601B491B4A11601B4A136008
:40014000C02149031A4A116004211A4A11603C31194A1160194A1360D8221201184B1A600322184B1A602132174B1A60FFF754FF10BDC0466C180000000001400C00014023
:400180001000014000500F4010500F4020500F4024500F4030500F4000700F4001700F4000000440B611030008000440180004400801044000020440080204400C020440E7
:4001C00008030440000404400804044010B5064C2378002B07D1054B002B02D0044800E000BF0123237010BD50010020000000003818000008B5084B002B03D00748084938
:4002000000E000BF07480368002B00D108BD064B002BFBD09847F9E7000000003818000054010020C80000200000000008B501F0E1F8C043C0B201F0D1F800F0DDF9282825
:4002400009D8002001F08EF8002001F09FF8012001F0B0F814E00E2809D9002001F082F8012001F093F8002001F0A4F808E0012001F078F8002001F089F8002001F09AF824
:40028000074800F0F9FD002001F06CF8002001F07DF8002001F08EF801F028F808BDC0461027000070B5061C0C1C002001F05AF8002513E001F062F8C043C0B201F052F87F
:4002C000FA20400000F0D8FD01F058F8C043C0B201F048F8201C00F0CFFD0135B542E9DD70BDC04670B5061C0C1C002001F04EF8002513E001F056F8C043C0B201F046F819
:40030000FA20400000F0B8FD01F04CF8C043C0B201F03CF8201C00F0AFFD0135B542E9DD70BDC04670B5061C0C1C002001F042F8002513E001F04AF8C043C0B201F03AF854
:40034000FA20400000F098FD01F040F8C043C0B201F030F8201C00F08FFD0135B542E9DD70BDC04610B500F061F9002809D10320FA214900FFF796FFFA20C00000F07CFDA3
:40038000F5E7FA24A4000320211CFFF7ABFF201C00F072FDFA20C00000F028FA0320211CFFF7C0FF10BDC04608B562B6FFF7DAFF0B4800F0C9FF002000F0D4FF002000F08E
:4003C000E5FF002000F0F6FF00F052FE022801D100F07EFE00F060FE00F022FEFAE7C0462D02000070B5041C0E1C151C5520002100F00EFB201C00F0BDFB002403E0305D51
:4004000000F0B8FB0134A542F9DC00F06DFB012070BDC04600B583B06B46D91D00230B7061200122FFF7DEFF03B000BD00B583B06B46D91D08703E200122FFF7D3FF03B065
:4004400000BDC04600B583B06B46D91D08703F200122FFF7C7FF03B000BDC04600B583B06B46D97107334030C0B2191C0122FFF7B9FF03B000BDC04600B583B06B46D91DF4
:40048000087060200122FFF7ADFF03B000BDC04600B583B0030A01A908704B7000200222FFF7A0FF002800D0012003B000BDC04608B54220FFF7ECFF08BDC046F0B54746D2
:4004C00080B4C0B0041C0E1C151C684600218022520001F0A9F95520002100F099FA201C00F048FB00F000FBA846552069462A1C002300F0D9FBFA27FF0003E0012000F0C1
:40050000BBFC271C00F082FB804504D97B1E9CB2002FF3D1271C002F05D107E06A46D25CF254013300E000239D42F7DC38B240B004BC9046F0BDC04610B582B06B46DC1DD8
:400540006020211C0122FFF7B9FF207802B010BD00B589B0402069462022FFF7AFFF0022002304E06946895CCB18DBB201321F2AF8DDDB43D8B209B000BDC04610B582B05A
:40058000C0B201AC211C0222FFF798FF607800022378184302B010BD00B583B0030A01A908704B7000236A461370537000200222FFF718FF002069460222FFF77FFF002814
:4005C00005D06B46587800021B78184300E0002003B000BD08B580200002FFF7DDFF002803D080200002FFF7D7FF08BD08B52020FFF7D2FF08BDC04608B5084B9B78002B09
:4006000002D0012B04D007E01C20FFF7B7FF04E03020FFF7B3FF00E0002008BD6C01002008B50120FFF7B8FF08BDC04608B500F079F9FFF7F5FF034B984201D1012000E091
:40064000002008BD2104000008B50620FFF796FF08BDC04610B5154B5B88002B1ED0FFF727FF002805D120E0012000F005FCA2B201E0FA22D200531E9CB2002A03D0FFF715
:40068000E3FFC306F0D423B2002B0BDD084BDB88002B09D0FFF7AAFF012006E04320FFF7F7FE02E0002000E0012010BDCC0000206C01002008B50020FFF76EFF08BDC046E1
:4006C00008B5FFF7F7FF80239B01184008BDC04610B5164B1B88002B02D00122144B1A81FFF7EEFF002804D00122114BDA80FFF771FF1320FFF7CCFE002805D114E00120E8
:4007000000F0BAFBA2B201E0FA22D200531E9CB2002A03D0FFF7CEFFC306F0D523B2002B01DD012000E0002010BDC046CC0000206C010020F8B5041C0E1C171C1D1C2348CB
:4007400000F062F8202D3FD8214B1B89002B04D10022204B1A80FFF7BBFF1F4800F054F8FFF758FE002830D0201CFFF75FFE00282BD07009FFF766FEFFF7EAFEFFF7DCFE9A
:40078000164800F041F8002407E01F2030400019C0B2395DFFF762FE0134A542F5DC104800F032F8FFF7D4FEFFF766FE0D4800F02BF8074B1B89002B01D1FFF74BFF0A4813
:4007C00000F022F8012000E00020F8BD3C1800006C010020CC000020441800004C180000541800005C1800006418000000B583B0030A01AA1370507052200A210223FFF795
:4008000099FF03B000BDC04608B500F059FD202000F062FD08BDC04608B500F0D9FF03680C2B00D1FEE7FEE770B50F4E0F4D13E029686B68AC68002202E001C901C304327A
:40084000A242FAD1E868002202E0002102C304328242FAD11035013E002EE9D100F0BEFFFFF7A2FDFEE7C04601000000D818000008B500230AE0032B03D89A000A495058D8
:4008800000E00A4899000A4A885001332F2BF2D9FFF70AFC0022074B1A608022D205116801230B43136008BD000000001908000000000020C0000020F0B50025002711E05F
:4008C000BB00C658F3B2FF22964308E06A008A181478A419527822700135013BDBB2002BF4D10137002FEBD0F0BDC04608B50A1C002100F099FF08BD08B50A2000F06EFA93
:4009000008BDC04608B500F01DF808BD08B5044A1368802109060B431360FFF7EDFF08BD0000064008B5064B1B78002B04D1FFF7E9FF0122024B1A70FFF7E8FF08BDC04660
:400940007801002010B51D4A11680C230B43136000241B4B1C601B4A1B4B1A601B4B1C4A13601C4A14601C4A14601C4A13601C4B1C600A2000F03CFA0A20032100F056FA71
:400980000A20184900F040FA174B1C60174B1C60174B1C601422FF32164B1A60164B1C60164B1C60043AFF3A154B1A70154B1C80154B1C60154B1C6010BDC046700006404E
:4009C00000000640770800806000064007010080000306400403064010030640000206400402064031140000C80E0640880E0640480F0640080F0640C80F0640880F0640D0
:400A0000A0010020B0010020C0010020A801002038B52E4B1B78102B53D12D4B1B68DB0751D40D1C041C0A2000F0E2F96000FF231840002D03D12422244B1A7004E025229D
:400A4000224B1A7001231843224B1860224A234B1A600222224B1A60204B1A680823FF331A42F9D01D4B1B685B0714D41B4B1B689B0713D4194B1B68DB0705D51022134B73
:400A80001A70012001210BE01022104B1A7080204000012104E00020002101E0022000210822FF320D4B1A6000290DD00D4A13685B005B0813601368802109060B431360FA
:400AC00002E0042000E0082038BDC046A0010020640006404002064017030000000F064068000640000006401D4B1B789B0634D51C4B1B689B0601D5182200E010221A4BE0
:400B00001A601A4B1A681223FF331A42F9D0174B1B68DB0606D4154B1B68DB0705D50120012105E00020002102E08020400001211222FF320D4B1A60023AFF3A084B1A70B3
:400B400000290BD00A4A13685B005B0813601368802109060B43136000E004207047C046A00100206400064068000640000F064000000640214B1B789B063CD5204B18607C
:400B8000204B1A680823FF331A42F9D01D4B1B685B0705D56022194B1A700020002119E0184B1B689B0705D56022144B1A70022000210FE0134B1B68DB0705D510220F4BCD
:400BC0001A700120012105E010220C4B1A708020400001210822FF320A4B1A6000290BD0094A13685B005B0813601368802109060B43136000E004207047C046A001002093
:400C000040020640000F064000000640014B18687047C046C001002010B51F4B1C6800F0C1F80028FBD0002000F0C4F81B4A13680F218B4313601A4A13685B005B081360AB
:400C4000A3060FD5002000F0B5F80A2000F02CF9012000F0AFF800F0B9F80028FBD00A2000F022F9002000F0A5F80A2000F01CF901220C4B1A600A4A1368802109060B43CD
:400C8000136006490B680F229343013A13430B60012000F08FF810BD64000640100001400000064068000640F0B583B001900C1C171C1D1C002919D02D4B1B78102B0AD178
:400CC0000A2000F095F82B4B1B68DB0701D508260FE000260DE0264B1B78602B08D1264A138808218B431380002602E0042600E00426002E35D129221D4B1A7000221F4B36
:400D00001A601F4A17601F4B1C60EBB21E490B70019B5C00FF231C400120044316490B8883430B8019491A4B19601368072B03D80422184B1A6008E0174A1368802149005A
:400D40000B4313600822134B1A60EB0704D5FFF763FF124B1C6004E0104B1C600222104B1A600A2000F03AF8301C03B0F0BDC046A001002064000640B0010020C0010020E5
:400D8000BC010020B4010020B801002017030000000F0640C80F0640600006404002064068000640024B18688007C00F7047C04604040440031C04490868FE2202400120B5
:400DC000184010430860704700040440024B1868012318407047C046040404401F2318401E3B8340181C014B1860704700E100E01F2318401E3B8340181C014B1860704704
:400E000080E100E001BE704738B5041C0D1C1F2802D90020FFF7F6FFA400034B9C4664442068256038BDC0464000002070B5041C0E1E032E02D90020FFF7E4FF1F2C02D918
:400E40000020FFF7DFFF03252540ED00063500F0E5FAA408A400074B9C46644423680322AA409343AE40351C1D43256000F0DAFA70BDC04600E400E010B5041C06E0084B61
:400E8000586800F0C1FA074B9C46644480231B029C42F4D8024B9868604300F0B5FA10BDD00000200080FFFF08B5034B1B7B584300F0AAFA08BDC046D0000020F0B55746EA
:400EC0004E46C0B483B0041C00F0A8FA0190E71E2D2F74D83F4B1B78DBB2A34208D33E4B1B78DBB29A463D4B1B78DBB2994631E03B4B1B78DBB2A34208D33A4B1B78DBB231
:400F00009A46394B1B78DBB2994623E0374B1B78DBB2A34208D3364B1B78DBB29A46354B1B78DBB2994615E0334B1B78DBB2A34208D3324B1B78DBB29A46314B1B78DBB27D
:400F4000994607E02F4B1B78DBB29A462E4B1B78DBB299462D4BDE5D2F2E09D92A2C07D919222B4B1A60052000F04EFA192503E0274B1D683F231D40AE4206D2234BDA5DC5
:400F8000234B1A60052000F03FFA1F4B9C4664442378DBB21F4A13601F4B52461A601F4B4A461A600520FFF77FFFAE420AD9174BDA5D174B1A60052000F026FA02E00020FB
:400FC000FFF720FF019800F02DFA03B00CBC91469A46F0BDC0F1FF0FC1F1FF0FC2F1FF0FC3F1FF0FC4F1FF0FC5F1FF0FC6F1FF0FC7F1FF0FC8F1FF0FC9F1FF0FCAF1FF0FE1
:40100000CBF1FF0FCCF1FF0FCDF1FF0F801800002CFF0B4028FF0B401CFF0B4020FF0B4008B500F0FBF90D4A1368802109060B4313600B4B1B889BB20A4A13600A4A116841
:4010400004230B43136009490B68FF2293430E3A13430B6030BF00F0E5F908BD00000B4050F1FF0F0C000B4010ED00E02C000B40084B1B68FF221340F12B05D0F22B05D0CF
:40108000002B05D0002004E0022002E0032000E0012070472C000B4008B500F0BFF9094B1B689B030AD4074B1968074A0A4007490A431A601A681A681A681A6000F0B2F9FE
:4010C00008BDC0462C000B40FF000100003A028010B500F0A3F9084B1A6808490A40E824A40122431A601A681A681A681140196000F098F910BDC0462C000B40FF00010086
:40110000034B1868C0231B02184000D00120704700010B4008B500F081F9044A1368C02109020B43136000F07DF908BD00010B4010B500F073F908490A68084B1A4080244C
:40114000E40122430A600A6813408022120213430B6000F067F910BD00010B40FF3FFFFF70B5061C00F05AF9041CFFF7C9FF002803D0FFF7DDFF012500E000250848331CDB
:401180000340084A106808490840184310601368012D01D1FFF7BEFF201C00F043F970BD0404040010020B40FBFBFBFF10B5244B1B685B0715D5234B1B685B070ED5224BFC
:4011C000D969042001401F4C22688A432260DA698243DA611B69002B00D098470420FFF7BFFF174B1B685B0518D5164B1B685B0510D5154BD9698022D20011401148026806
:401200008A430260D969114A0A40DA615B69002B00D098478020C000FFF7A2FF084B1B685B030CD5074B1B685B0304D5064B9B69002B00D098478020C002FFF791FF10BDC3
:4012400010020B40E400002080010020FFFBFFFF144B1A68144B1B689A4208D1134B1B680F221340082B02D0114B186019E00D4B1A680132322A00D100220B4B1B689A42B4
:40128000FBD002230B490B60C0B20B49885405490A600A4A1268134203D1084A11680B4313607047CC010020C80100200802074040020740800F0740D0010020880F074096
:4012C00038B5051C002402E0FFF7C2FF0134285D0028F9D138BDC04608B5FFF7B9FF0D20FFF7B6FF0A20FFF7B3FF08BD034A10680423184010608008C0B2704710020440E7
:40130000014B98647047C0460000002010B5041C00F084F8044A1168044B0B40A4051C43146000F07FF810BD00E400E0FFFF3FFF0422014B1A60704700E100E00422014B50
:401340001A60704780E100E010B5041CFFF7F6FF201CFFF7D5FF0320FFF7D8FFFFF7E8FF10BDC046031C04490868FE2202400120184010430860704700000440024B18684B
:40138000012318407047C0460400044004490A68FD231A404000FB3B184010430860704700000440024B18688007C00F7047C0460400044004490A68FB231A408000F73BDE
:4013C000184010430860704700000440024B18684007C00F7047C0460400044004490A68BF231A4080017F3B184010430860704700010440024B18684006C00F7047C04613
:4014000004010440000000000230800804D0C0460138FDD1C046C046C0467047EFF3108072B6704780F310887047C046C046C04610B5C04B1B68002B00D09847BE4B1B6821
:40144000DB0702D50022BD4B1A60BD4B1B789B0628D5BC4B1B68DB0507D5BB4A1188C0239B000B431380012300E00023B54A1268D20706D5B44A118890239B000B43138079
:401480000123002B0FD0AE4A1278D20701D5012200E00222AC49088802430A800021A84A117000E00023A64A1278920600D414E1A44A1268D20611D51022A44B1A60A04B34
:4014C0001B78DB0701D5012300E002239E4A11880B43138010229A4B1A7029E1984A1278120720D5974A126892070AD50222974B1A60954A118888239B000B4313800123DB
:4015000011E08F4A1278D20703D525218C4A117009E024218A4A11708D4A1268002A02D014398C4A1160864A1278520700D4ABE0834A1278D20749D5874A1268120727D5E5
:40154000864A1268864909680F240C40854909686418141B082C09D8002C16D1824A1168824B0B401360012308340EE008240CE07C4A11687E48006841187E480068C0B2B4
:401580000870116801311160013C002CF0D119E0714A1268520715D5724A116874480068411874480068C0B2087011680131116011686A4A1268914203D204216E4A116083
:4015C00000E001236D496E4A11605DE05D4A1268920726D502225D4B1A606A4A13680F211940136880221202134000D00123CB18654A1168CB1A13601268644B1A60524AFE
:40160000118884239B000B431380614B1A68802149020A431A6019685E4A0A401A60012332E05D4A1268D20612D424E0564A1168474A1268914211D2534A11685748006810
:4016400041180978C9B2564801601168013111604C4A12680F210A40082AE7D14A4A11683B4A1268914202D140213A4A11604D494D4A116008E0484A1268520604D5424B2E
:401680001A68424B1A600123002B51D0364A1168364B0B4013600023444A13602D4A1360434B1B789B070ED5254B1B78DB0701D5092300E00A23244A11880B4313806022E7
:4016C0001F4B1A7034E03B4B1B689B0601D5182200E01022284B1A602AE0194B1B78DB0626D4354A13685B005B0813601021144B19701D4B186831490140196018683049F4
:4017000001401960002329490B6012490B601B49254B196023491A4B19602A492A4B19602A490A4B19601368802109060B43136010BDC0467C0100208C0E0640880E0640D8
:40174000A00100200C0F0640B0010020000F0640AC010020880F0640CC0F0640BC01002008030640C001002060000640FFFEFFFFB40100204003064068000640ED0F00009E
:40178000C00F064008020640A4010020A801002004020640FFFFFEFF8C0F0640C401002040020640F3070000800F0640C80F0640B80100206400064000000640FF5FFFFF90
:4017C000FFFCFFFFFF0F0000400F064017030000014B18687047C046480100200E4B70B500251E1C0D4CE41AA410A54204D0AB00F35898470135F8E700F05CF8084B0025F8
:401800001E1C084CE41AA410A54204D0AB00F35898470135F8E770BDC0180000C0180000C0180000C8180000031C8218934202D019700133FAE77047000000004D41444562
:40184000203100004D414445203200004D414445203300004D414445203400004D414445203500004D4144452036000000300F40000400400F40000402600F400201110124
:40188000030405060708090A0B0C0E0F101112131415161718191B1C1D1E1F2021222325262728292A2B2E2F303132333435000043000000F8B5C046F8BC08BC9E4670472F
:4018C000F501000071080000F8B5C046F8BC08BC9E467047CD010000E8180000C800002088000000B80000000000000001000100010000000000E02EC05D00001800000077
:4019000000366E01040404000000000000000000000000000000000000000000000000000000000000000000B018000000000000000000000000000000000000000000002E
:4019400000000000000000000000000000000000000000000000000000000000000000000000000000000000E800002000000000000000000000000000000000000000005F
:401980000000000000000000000000000000000000000000000000000000000000000000000000000000000000000000000000000000000000000000000000000000000027
:4019C00000000000000000000000000000000000000000000000000000000000000000000000000000000000000000000000000000000000000000000000000000000000E7
:401A000000000000000000000000000000000000000000000000000000000000000000000000000000000000000000000000000000000000000000000000000000000000A6
:401A40000000000000000000000000000000000000000000000000000000000000000000000000000000000000000000000000000000000000000000000000000000000066
:0200000490303A
:0200000043D8E3
:0200000490402A
:200000000000000000000000000000000000000000000000000000000000000000000000E0
:0200000490501A
:0C000000000204C81193110104D0556BDC
:0200000490600A
:0100000001FE
:00000001FF